:04000005080001915D
:020000040800F2
:10000000882800207102000879020008B70900085A
:100010007D0200087F020008810200085AC1FFAF7C
:10002000939D939B70324D4D395E0300830200080F
:1000300085020008CC65000887020008590E0008F8
:100040008B0200088B0200088B0200088B0200085C
:100050008B0200088B0200088B0200088B0200084C
:100060008B0200088B0200088B0200088B0200083C
:100070008B0200088B0200088B0200088B0200082C
:100080008B0200088B0200088B0200088B0200081C
:10009000000000008B020008000000008B02000836
:1000A0008B0200088B0200088B0200088B020008FC
:1000B0008B0200088B0200088B0200088B020008EC
:1000C000000000008B020008000000008B02000806
:1000D0008B020008351000088B0200088B02000814
:1000E0008B0200088B0200088B0200088B020008BC
:1000F0008B0200088B0200088B0200088B020008AC
:10010000000000008B0200088B0200088B02000830
:100110008B0200088B0200088B0200088B0200088B
:100120008B0200088B0200088B0200088B0200087B
:100130008B0200088B020008000000000000000095
:100140008B0200080000000000000000B50A000853
:100150000000000000000000000000008B0200080A
:10016000000000000000000000000000000000008F
:10017000000000000000000000000000000000007F
:1001800000000000000000008B0200088B02000845
:1001900000F002F800F05AF80AA090E8000C82443F
:1001A0008344AAF10107DA4501D100F04FF8AFF21C
:1001B000090EBAE80F0013F0010F18BFFB1A43F045
:1001C0000103184768740000887400000A444FF067
:1001D000000C10F8013B13F0070408BF10F8014BA6
:1001E0001D1108BF10F8015B641E05D010F8016BEB
:1001F000641E01F8016BF9D113F0080F1EBF10F84F
:10020000014BAD1C0C1B09D16D1E58BF01F801CB71
:10021000FAD505E014F8016B01F8016B6D1EF9D5F4
:100220009142D6D370470000002300240025002609
:10023000103A28BF78C1FBD8520728BF30C148BF49
:100240000B6070471FB51FBD10B510BD00F01CFA44
:100250001146FFF7F7FF03F0B3FF00F03AFA03B4DB
:10026000FFF7F2FF03BC00F041FA000085460847A3
:100270000948804709480047FEE7FEE7FEE7FEE73A
:10028000FEE7FEE7FEE7FEE7FEE7FEE70448054976
:10029000054A064B704700008D0E000891010008CA
:1002A000882200208828002088240020882400201C
:1002B00040EA010310B59B070FD1042A0DD310C8E3
:1002C00008C9121F9C42F8D020BA19BA884201D935
:1002D000012010BD4FF0FF3010BD1AB1D30703D07D
:1002E000521C07E0002010BD10F8013B11F8014B33
:1002F0001B1B07D110F8013B11F8014B1B1B01D14F
:10030000921EF1D1184610BD10B5431C02E010F842
:10031000011B71B18107FAD14FF0013202C88C1A6A
:100320008C4314EAC211F9D0C01A0A0603D0C01EC9
:1003300010BDC01A10BD0A0401D0801E10BD0902F4
:10034000FCD0401E10BD40EA010370B59B072ED1C2
:100350004FF00136042A2AD308C810C99D1B9D43BB
:10036000121F15EAC61517D0D8B2E1B2401A50EAEA
:10037000056110D198B2A1B2401A50EA05410AD1E4
:1003800023F07F4024F07F41401A50EA052102D13A
:10039000180EA0EB146070BDA342DBD018BA21BACE
:1003A000884201D9012070BD4FF0FF3070BD0AB9FD
:1003B000002070BD10F8013B11F8014B63B1A3425E
:1003C0000AD1521E08D010F8013B11F8014B1BB1A5
:1003D000A34201D1521EEDD1181B70BD421E12F86E
:1003E000013F002BFBD111F8013B002B02F8013B30
:1003F000F9D17047032A40F2308010F0030C00F06E
:10040000158011F8013BBCF1020F624498BF11F84E
:1004100001CB00F8013B38BF11F8013BA2F1040207
:1004200098BF00F801CB38BF00F8013B11F003037F
:1004300000F06780083AC0F0088051F8043B083AA1
:1004400051F804CBA0E80810F5E7121D5CBF51F885
:10045000043B40F8043BAFF30080D20724BF11F8FF
:10046000013B11F801CB48BF11F8012B24BF00F864
:10047000013B00F801CB48BF00F8012B7047431A3D
:1004800028BF9A427FF6B6AF032A1044114440F2C7
:10049000268010F0030F1EBF11F8013D521E00F818
:1004A000013D10F0030F7FF4F6AF11F0030300F0ED
:1004B000C180083AC0F00B8051F8043D083A51F869
:1004C00004CD40F8043D40F804CDFFF7F3BF121D02
:1004D0005CBF51F8043D40F8043DAFF30080D20703
:1004E00024BF11F8013D11F801CD48BF11F8012CCE
:1004F00024BF00F8013D00F801CD48BF00F8012CF1
:10050000704710B5203AC0F00B80B1E81850203A7F
:10051000A0E81850B1E81850A0E81850BFF4F5AFA3
:100520005FEA027C24BFB1E81850A0E8185044BF2D
:1005300018C918C0BDE810405FEA827C24BF51F89A
:10054000043B40F8043B08BF7047D20728BF31F88E
:10055000023B48BF11F8012B28BF20F8023B48BFDF
:1005600000F8012B704702F0FF0343EA032242EA3E
:10057000024200F002B84FF000020429C0F01280DD
:1005800010F0030C00F01B80CCF1040CBCF1020F46
:1005900018BF00F8012BA8BF20F8022BA1EB0C011B
:1005A00000F00DB85FEAC17C24BF00F8012B00F811
:1005B000012B48BF00F8012B70474FF0000200B537
:1005C000134694469646203922BFA0E80C50A0E876
:1005D0000C50B1F12001BFF4F7AF090728BFA0E824
:1005E0000C5048BF0CC05DF804EB890028BF40F8F0
:1005F000042B08BF704748BF20F8022B11F0804F32
:1006000018BF00F8012B7047704770477047431AB6
:1006100028BF9A427FF675AF104410F0030F1144C3
:100620001EBF11F8013D521E00F8013D10F0030FEE
:100630007FF4F6AF103AC0F00A8010B531E91850D7
:10064000103A20E91850BFF4F9AFBDE81040530745
:1006500024BF31E9081020E9081044BF51F8043DD7
:1006600040F8043D12F0030F08BF7047D20728BFBF
:1006700031F8023D48BF11F8012C28BF20F8023D97
:1006800048BF00F8012C7047754600F02BF8AE46C5
:1006900005006946534620F00700854618B020B58E
:1006A000FFF7F4FDBDE820404FF000064FF00007D3
:1006B0004FF000084FF0000B21F00701AC46ACE80A
:1006C000C009ACE8C009ACE8C009ACE8C0098D4677
:1006D000704710B50446AFF300802046BDE81040D7
:1006E000FFF7BDBD004870472822002001491820AF
:1006F000ABBEFEE72600020070470029416802D029
:1007000041F0010101E021F001014160704700006A
:10071000426844F2F0339A434260D1E900321A430E
:1007200043681A4342608268054B1A4082608268BF
:100730004B691A430B6989680B431A4382607047FF
:100740008FF1F9FF30B40F2403F00F0308290BD900
:10075000456F01F00F02083A9440A5434567446F86
:1007600093401C43446707E0026F8C40A24302673A
:10077000026F8B401A430267C36801228A40934389
:10078000C360C3681343C360480401D4080403D59D
:1007900030BC012000F00AB830BC70470021016075
:1007A0004160816001730161416170470549002822
:1007B000086802D040F00C0001E020F00C00086056
:1007C00070470000042401400021014800F0A6BB4E
:1007D000000800400121014800F0A0BB00080040D3
:1007E00010B5044600F066F8204600F005F800F069
:1007F00027F8002010BD000006490A6942F00202F5
:100800000A614861086940F04000086140F6FF70E5
:1008100000F05CB8002002400848C168C90701D058
:1008200001207047C168490701D502207047C068A0
:10083000C00601D503207047042070470020024005
:100840000248016941F080010161704700200240C7
:1008500004490A6822F010020A600A6802430A602A
:100860007047000000200240044A136943F001036E
:10087000136101800F2000F029B800000020024021
:1008800030B50C46054689B2FFF7EEFF042805D1C6
:10089000210CA81CBDE83040FFF7E6BF30BD0000CA
:1008A00003490A6822F0070202430A607047000009
:1008B00000200240034802494160034941607047FB
:1008C0002301674500200240AB89EFCD00B5024609
:1008D000FFF7A2FFFF21521E491EFDD1012801D1C1
:1008E000002AF5D1044900230B613423CB60002A90
:1008F00000D1052000BD0000002002402DE9F0439A
:10090000CA7802F00F03D20601D58A781343002279
:1009100001274FF00F0C9406240E0E8807FA02F5FB
:100920002E4207D006680CFA04F5AE4303FA04F42D
:1009300026430660521CD2B2082AECD30A88051D51
:100940004FEA12280022B9469406240E09FA02F64C
:1009500016EA080F07D02E680CFA04F7BE4303FA14
:1009600004F426432E60521CD2B2082AECD3CA7873
:10097000282A07D0482A03D1026909880A4302615C
:10098000BDE8F083426909880A434261F8E74B07F2
:1009900010B5DB0E082901D2203000E024300F24EE
:1009A0009C4001689A40A1431143016010BD416120
:1009B00070470161704702F05FF800207047000047
:1009C00030B587B00121042000F062F94FF4D070F7
:1009D00005905F200024ADF81000174DADF81840C9
:1009E0008DF812408DF81A4004A9284600F0E8FA64
:1009F000684600F0DBFA70218DF8001001208DF8B8
:100A00000100D02001908DF808406946284600F08A
:100A100099FA0821284600F0C3FA0121284600F07F
:100A200087FA0121284600F06FFA00F007F8FFF777
:100A3000CBFE07B030BD00000008004038B50121F2
:100A4000022000F019F90C4D022208212846FFF778
:100A50009EFFAC1521462846FFF7A9FFADF80040E0
:100A600001218DF8021018218DF8031069462846DF
:100A7000FFF744FF38BD00000004044010B5054CEA
:100A800002212046FFF795FF2046BDE810400121D6
:100A9000FFF78FBF0000044010B5054C022120462F
:100AA000FFF785FF2046BDE810400121FFF77FBF1B
:100AB000000004402DE9F00F4FF0A0470023D7F8C5
:100AC0008000DFF8DC80844601074CD5354C4FF0C0
:100AD0000D0A04F558794FF0080BD7F89000C0B212
:100AE0000209C0F3C001C0F3800552EA01061CD11F
:100AF000960006EB4101294414F83150C5F38305F3
:100B0000012D12D104EBC1056E8876B9244EB61CB6
:100B1000B25C6A8014F83120520601D5882200E0C8
:100B2000C82204F8312040F00100EFF3108272B6C1
:100B3000D8F80C1009F80100491CB1FBFAF50AFBC2
:100B4000151082F31088C8F80C00C7F880B01BB9E4
:100B5000D7F89400800601D5012300E00023D7F8E0
:100B600080000107B9D44CEA000CEFF3108172B693
:100B70000B4C1034226842EA0C0281F31088226088
:100B80000BB1012100E0002198F80020114388F802
:100B90000010C7F88000BDE8F00F01F0D7BE0000DC
:100BA000DC020020001E002010B5064C4FF48051DE
:100BB0002046FFF7FCFE2046BDE810404FF40051F0
:100BC000FFF7F7BE0004044010B5064C4FF4005187
:100BD0002046FFF7ECFE2046BDE810404FF4805160
:100BE000FFF7E7BE0004044010B5064C4FF48051F7
:100BF0002046FFF7DCFE2046BDE810404FF40051D0
:100C0000FFF7D5BE0004044010B502F0B1F850B1B2
:100C100002F07EF818B1BDE81040FFF7D5BFBDE87F
:100C20001040FFF7C1BFBDE81040FFF7DDBF70B552
:100C300015460C460646FFF73DFE0AE03046296899
:100C4000FFF71EFE042801D0012070BD241F2D1DBA
:100C5000361D002CF2D1FFF7F3FD002070BD00001F
:100C6000044A0029516A01D0014300E081435162E6
:100C70007047000000100240044A0029916A01D028
:100C8000014300E081439162704700000010024080
:100C9000044A0029116B01D0014300E08143116334
:100CA0007047000000100240044A0029D16A01D0B8
:100CB000014300E08143D162704700000010024010
:100CC0000C48016841F001010160416821F0030115
:100CD00041600168084A11400160816C074A114077
:100CE0008164016821F480210160002141608160FC
:100CF0007047000000100240FFFFF6FEFFF880FF83
:100D000001220B49B2EB501F01D1096806E0022312
:100D1000B3EB501F01D1496B00E0896B00F01F005D
:100D20008240114201D0012070470020704700002E
:100D3000001002400248406800F00C0070470000BC
:100D40000010024003494A6822F0F00202434A6060
:100D5000704700000010024009490A6822F4A022EE
:100D60000A60B0F5803F06D0B0F5802F07D1086843
:100D700040F480200860086840F4803008607047C4
:100D80000010024003494A6822F4E06202434A60CC
:100D9000704700000010024003494A6822F4605284
:100DA00042EAC000486070470010024003490A68E8
:100DB00022F0807242EA0060086070470010024032
:100DC00030B589B00D460446202209A16846FFF7D8
:100DD00098FB0F4A906C20F0030020439064684613
:100DE00000EB55404178007800F014F809B030BDB0
:100DF00007030501070109010B010D010F01110195
:100E000013011501170119011B011D011F0100002C
:100E100000100240000440EA01210348826C034BA9
:100E20001A4011438164704700100240FFF880FFB0
:100E300003494A6822F0030202434A6070470000F7
:100E40000010024003494A6822F4400242EA8050FE
:100E5000486070470010024010B50B4CE16849B182
:100E6000206938B12268B2FBF0F300FB132008B907
:100E7000002088472068401C2060A068002802D01D
:100E8000A068401EA06010BDF402002010490F4869
:100E900008601048016841F00101016041680E4A94
:100EA0001140416001680D4A11400160016821F460
:100EB00080210160416821F4430141600168084AD2
:100EC000114001604FF41F0181607047001BB700A3
:100ED000CC020020001002400CC0FFF8FFFFF6FE1D
:100EE000FFFF8F00BFF34F8F05480168054A01F4EB
:100EF000E06111430160BFF34F8F00BFFDE70000C9
:100F00000CED00E00400FA050029016802D041F070
:100F1000800101E021F08001016070470029016833
:100F200002D041F0010101E021F0010101607047B0
:100F30000029416C02D041F4004101E021F400415C
:100F400041647047C2690B7822F070021A43C26193
:100F50000A7A4B781A43036A23F4407343EA022265
:100F600002624A68C2630C4A904202D00B4A904225
:100F700011D14A7A8B781A43036A23F4406343EA17
:100F8000022202624A8989890A43416821F4405158
:100F900041EA021141607047002C014000340140D9
:100FA000C26922F008020A43C26170470021017041
:100FB000417081704160017241724181818170474D
:100FC00030B502680B8922F440721A430260144A59
:100FD000144B90420DD0B0F1804F0AD0124CA04279
:100FE00007D0124CA04204D0114CA04201D098422C
:100FF00005D104688D7824F070042C43046090427D
:1010000001D0984205D1026B8B7A22F0FF021A437D
:1010100002634A68C262098881620121416130BD70
:10102000002C014000340140000400400008004052
:10103000000C004070B516480468A00714D5144889
:1010400008380068C5B2134801F0CEFD152804D950
:101050002946104801F012FE06E005D14FF01502B6
:101060000DA10C4801F038FEE00709D0104801F04E
:10107000C8FD074C0C3C20B10D4801F0D1FD2060AB
:1010800070BD2046BDE870400022012100F012B87A
:101090000C380140A41A00203C4D4D33324C696E8F
:1010A0006B3A204F766572666C6F773E0A000000DF
:1010B00094180020002A026901D00A4300E08A4304
:1010C000026170470107890E01F1A041C0310A7821
:1010D00022F002020A7001F0D5BB000001468078C0
:1010E0008988020601D4024A115401F0CBBB0000EA
:1010F000DE02002070474FF0A041002851F8940F05
:1011000002D040F0010001E020F0010008607047CB
:1011100010B50B4C0B48A2880078824200D90246D9
:101120001AB907490020143908718020216801F09C
:101130002FFC216801442160A188081AA08010BDFD
:1011400020030020B36A000810B5064C0020A288D6
:10115000216801F029F8216801442160A188081A5A
:10116000A08010BD200300207047010608D50007AD
:10117000800E00F1A040C030017821F0050106E0AA
:10118000800000F1A040C030017821F00901017019
:101190007047010608D50007800E00F1A040C0305E
:1011A000017841F0050106E0800000F1A040C03068
:1011B000017841F009010170704700002DE9F04706
:1011C0006E4F0446A7F1080580074FF00009A5F10E
:1011D000140622D501F0B2FB3878C009FFF7C4FF2E
:1011E000F888A8803878C0F3411121B101295AD07C
:1011F00002296FD165E07978DFF884810C2969D202
:10120000DFE801F0060C6813681827682B313846B0
:1012100001F000F91FE0FFF77BFF67E0002005E029
:1012200001F09CFBD8F8000039E0012001F030F912
:10123000C0B3F5E710F01F0F4CD1B878012140F092
:101240008000307000F07F0001F064FB01F086FB4D
:101250004CE001F027F828B3DDE710F01F0F39D17B
:1012600046481B3812E001F063F9D8B101F076FB73
:10127000444813E000F01F0001282BD1707888B19A
:101280003879B178884225D23F4908442860C2E7BE
:1012900001F012FA30B101F061FB3C48006828B35C
:1012A000804723E016E010F01F0013D0012811D171
:1012B00000F074F8D0B900F073F8B8B900F06CF829
:1012C00007E010F01F0F05D100F098F870B900F09A
:1012D00097F858B93878000603D4F88808B1002088
:1012E00000E0802001F01FFBA5F80490600721D5E5
:1012F000387800061CD4A888E0B1FFF725FFA8883D
:10130000C0B93878C0F3411161B101290AD110F098
:101310001F0007D0012805D100F03CF850B900F0BB
:1013200037F838B9802001F0FEFAA5F8049001E002
:1013300001F01AFB200712D53878000606D5A888D8
:10134000317908430BD0FFF7E3FE08E0307801065F
:1013500005D500F07F003070002101F0DBFA600657
:1013600002D50020FFF7AEFE200604D5BDE8F04709
:101370008020FFF7A7BEBDE8F0870000280300200B
:10138000186B0008106B0008DA020020146B0008CC
:1013900000207047002070470020704700207047F1
:1013A00010B51248124A0179127891421BD1427845
:1013B0004188C088FE2A09D0FF2A14D199B990B972
:1013C00000F044FE78B101F0C9FA0AE059B90128E9
:1013D00009D100F061FB30B1074906480860FFF70A
:1013E00097FE012010BD002010BD00002803002042
:1013F000D90200207C1D002020030020002070471F
:10140000002070472DE9F05FEFF3108072B6554D64
:101410004FF000092C69C5F8109095F800A085F8E8
:10142000009080F31088E00707D001F0DBF904F0AA
:10143000B9FA4D48006800B18047E00605D501F0D3
:101440009DFA4A48006800B18047A00605D501F022
:1014500059FA4748006800B18047600703D54548FE
:10146000006800B180474FF0A048022C08D14248E4
:10147000016811B1D8F888008847FF21C8F88810A2
:10148000200764D53D4E3E4FAB46EFF3108272B657
:101490005B46D3E90210814254D1012053E0EFF3BF
:1014A000108472B637480D22405C491CB1FBF2F53E
:1014B00002FB151184F3108899600409C0F3C0027F
:1014C000C0F3800109D109EB420C8C4416F83CC0F2
:1014D000CCF3830CBCF10D0F0AD0A50005EB420242
:1014E000551816F83510C1F38301012913D01CE0FB
:1014F000586920F002005861307E20F0800030767C
:10150000307C20F0800030748BF80190396800291D
:10151000BBD0022014E01CB900F001008BF80100E0
:1015200057F8241009B10420884716F83500C0F395
:1015300083000928A9D157F824100029A5D0082034
:101540008847A2E7002082F310880028A7D0BAF1CC
:10155000000F05D0404650F8941F21F02001016093
:10156000BDE8F09FDC020020BC6A0008C06A0008E9
:10157000C46A0008C86A0008CC6A0008001E00207F
:10158000D06A00086021002010B51548402404707E
:1015900001F030FA432001F061FA12484FF0A04206
:1015A000C0F30720C2F89C000E48C0F30740C2F801
:1015B000B0000C48000EC2F8B400FF20C2F8800052
:1015C0000948006800B104200849096801B10221F6
:1015D000084340F0190042F8840F146110BD000068
:1015E000DE020020001E0020C86A0008CC6A000845
:1015F00070B500F0F5F800281CD00F4802220F4DFE
:10160000027042700E4C03202A632870A0680228E2
:1016100003D9A4F11F008260A2600A48064900783D
:1016200040F0800001F0B4F9A068296B401AA06076
:101630000120207370BD0000BC1D0020300300207D
:101640001A220020B46A0008114910B5087802284F
:1016500008D0032810D0042812D0052801D100207A
:10166000087010BD0B48C07B282801D0A828F8D1ED
:10167000BDE8104000F054BABDE8104000F01CBDB9
:101680000548007840F0800000F02EFDF4E70000EF
:1016900030030020FB210020B46A00081F4A10B567
:1016A0001178B1B301290ED01D48052900781BD04F
:1016B000072929D000F018FD1A4902200873BDE857
:1016C000104000F0F9BC17481F38C07B2A2803D00F
:1016D0002F2805D0AA2820D1BDE8104000F0F4BA88
:1016E000BDE8104000F086BA012181400E48006834
:1016F000014201D0012000E00020BDE8104040F28E
:101700003F420AA101F00EBA00201070106B1F2892
:1017100003D1BDE8104000F0C7B810BD3003002071
:10172000B56A00081A220020180300202866696C98
:1017300065290000104910B54868C86008B101204B
:1017400010BD0E4800F11F0482687AB1007B0006CC
:1017500004D50B48007840F0800005E0A068096BD4
:10176000884203D00748007800F0BEFC01202073B7
:1017700000F0A2FC002010BD30030020FB2100205F
:10178000B46A0008B56A00081048007900F08F01BB
:10179000080605D501F00F004FF48032824001E0C9
:1017A00001228A400A48007840F0800088420CD12B
:1017B00008490968114208D00749084A0968914256
:1017C00003D10D22044901F0E3B87047280300203B
:1017D000B46A0008180300201A220020555342530F
:1017E00070B50A48022400F11F05816831B1007B01
:1017F000000608D40648007800F076FC2C7300F050
:101800005BFC002070BD012070BD0000FB210020AA
:10181000B56A000810B50E480E4C8068216B8842EE
:1018200002D82063032000E0042020700A480B49FE
:10183000226B007840F0800001F0AAF80448226B87
:101840001F308168891A81600021017310BD00007A
:10185000FB21002030030020B46A0008BC1D0020DA
:10186000064810B5028807480549007800F09CFC3E
:1018700005490863BDE81040FFF710BFBA6A0008C9
:10188000BC1D0020B56A00083003002010B50446D6
:10189000400702D50020FFF7E3FF200703D5BDE88E
:1018A0001040FFF7D1BE10BD2DE9F047734E326BEB
:1018B0001F2A01D2134600E01F230020704D7149FA
:1018C00002E00C5C2C54401C9842FAD3DFF8BC9127
:1018D0000127DFF8B4A199F800001F2A40F080002A
:1018E0007ED129686A4A91427AD1654C69681F3471
:1018F0006160A968A160697B19B9A97B09B1102948
:1019000001D927738AE0E97B4FF002082A293ED0EB
:1019100022DC1A294FD00FDC0429F2D006DCE9B30F
:101920000329EED1BDE8F04700F04EBB1229E8D103
:10193000BDE8F04700F0B8B8232944D007DC1B29E4
:1019400035D01E29DDD1BDE8F04700F0DBB82529F0
:101950003DD02829D5D148E09E2940D00FDC55291B
:10196000CFD004DC2F2954D03529CAD103E05A291D
:1019700025D09129C5D1BDE8F04700F0E5BBA129EC
:1019800029D0A3295DD0A8292FD0AA29B9D100F048
:1019900067FA002805D0287B000600E003E04BD45E
:1019A0003770BDE8F087BDE8F04700F0D5BBBDE873
:1019B000F04700F0AFBBBDE8F04700F029BABDE842
:1019C000F04700F0F9B9BDE8F04700F0C7BABDE84C
:1019D000F04700F09BBABDE8F047FFF709BE00E012
:1019E00032E0BDE8F04700F041BB00F039FA0028D2
:1019F000D7D0287B000605D586F80080BDE8F047E3
:101A000000F08EB89AF8000000F06EFB84F80C80AD
:101A100004E0287C800705D400202073BDE8F0474F
:101A200000F04ABB00F01CFA0028BAD0287B000660
:101A300002D437703762B4E799F8000040F08000B4
:101A4000E2E700F051FB5CE74C4600F04DFB2078EC
:101A5000104C00F00F014FF480308840216855464B
:101A6000084320609AF8000000F03EFB2878874089
:101A70002068074306202760307092E7300300207B
:101A8000FB210020BC1D0020B56A0008B46A0008D4
:101A9000555342431C0300200249002008700120D6
:101AA000704700007C1D002010B5FFF799FE00284C
:101AB00020D0114B0020802118705970022199709C
:101AC000D97020241C7158719871D8710B48016825
:101AD00008200A7812B11A54491C00E01C54401C1A
:101AE000C0B22428F5D3064924200863BDE810407D
:101AF000FFF790BE10BD0000BC1D0020D4020020E6
:101B0000300300200548C07CC107044800F11F00D5
:101B100000D00121017300F0CFBA0000FB210020AA
:101B20002DE9F0412E4D2F4F0026A969686ADFF894
:101B3000B88088420AD33878002440F0800000F052
:101B4000D3FA88F80C6000F0B7FA08E02849274873
:101B5000097830F81140E86A844200D30446FFF760
:101B6000E9FD00B90024A86A48B374B1A96AE8691C
:101B700022460144387840F0800000F009FFA86A4E
:101B80002044A862E86A001BE862D5E90410AA6A4A
:101B90004143914203D1AE62696A08446862D8F851
:101BA00008104046091BC8F80810002C05D0E96A47
:101BB000002902D1032129700673BDE8F081002CB1
:101BC000E3D0E96A28690144491EB1FBF0F2686973
:101BD000824200D90246E969686A03F09BFEC5E7C4
:101BE00030030020B46A00081A220020B66A0008F8
:101BF0000F0300202DE9F0412F4C00252F4EA16945
:101C0000606A884207D32E482563007800F06CFA9A
:101C1000357300F051FAFFF78DFD20B1206B08B34A
:101C2000A06A10B10FE0256320E0E16A2069014459
:101C3000491EB1FBF0F26069824200D90246E169B7
:101C4000606A03F067FE00201E49A36A226B0BE066
:101C5000D4F81CC01F181CF8077011F800C06745A5
:101C600001D0256202E0401C9042F1D3A16A206BB2
:101C70000A18A262E16A0B1AE362D4E904714F43C5
:101C8000974203D1A562626A11446162B168091A80
:101C9000B16000280DD013B12078052809D1206A41
:101CA00028B100203073BDE8F04100F005BA0120F2
:101CB000F8E7BDE8F0810000300300201A22002080
:101CC000B56A0008BC1D00202DE9F041344D002606
:101CD000344FA969686A884207D333482E63007875
:101CE00000F002FA3E7300F0E7F9FFF723FD00B9B8
:101CF0002E63296BA86A08442969884206D9BDE881
:101D0000F041FE2229A1002000F00CBF002029494B
:101D100005E0AB6AEC690A5C0344401CE2542A6BA0
:101D20009042F6D3A86A11000844A862EA6AA2EBBE
:101D30000102EA6222D092B988B129690844401EA2
:101D4000B0FBF1F46869844200D904462246E9698F
:101D5000686A03F0F9FDAE62686A20440DE0D5E9D7
:101D6000041202FB01F3834208D1E969686A03F0B7
:101D7000EBFDAE626969686A08446862B968286BFD
:101D8000091AB960002809D0E86A10B12878052836
:101D900004D13E73BDE8F04100F08EB9BDE8F0819A
:101DA000300300201A220020B56A00082866696CFA
:101DB00065290000BC1D002010B5FFF711FD0028AB
:101DC0001FD0FFF7B7FC00281BD00E4800210622C9
:101DD00001700D4B427081701A7AD201C27001718C
:101DE00041718171C1710949082018638A68082A04
:101DF00003D9A1F11F0290608860BDE81040FFF791
:101E000009BD10BDBC1D0020300300201A22002097
:101E100010B5FFF7E5FC00281BD0FFF78BFC00286E
:101E200017D00C480321002201700B4942700B7A35
:101E3000DB018370C2700420086308498A68042AA1
:101E400003D9A1F11F0290608860BDE81040FFF740
:101E5000E1BC10BDBC1D0020300300201A22002070
:101E600070B5264C264DB4F81100E17C40BA000450
:101E700040EA0121207D01430020C5E90910E07BF3
:101E80002F280AD004DC28280BD02A2819D104E0F6
:101E9000A8280DD0AA2814D106E0FFF74BFC002893
:101EA00029D0E08A41BA0CE0FFF744FC002822D098
:101EB000B4F81500E17D40BA000440EA0121207E1B
:101EC000014328690D4E4143E962A06801251F3690
:101ED00068B1884210D0207B000604D509480078FC
:101EE00040F0800001E00848007800F0FDF835730C
:101EF00000F0E2F8002070BD012070BDFB21002041
:101F000030030020B46A0008B56A000810B5FFF776
:101F100067FC00281CD0FFF70DFC002818D00D4AE4
:101F20000D489169491E0B0E03700B0C43700B0A90
:101F30008370C17011690B0E03710B0C43710B0A96
:101F40008371C17108201063BDE81040FFF762BCC7
:101F500010BD000030030020BC1D002010B5FFF7AD
:101F60003FFC002829D0FFF7E5FB002825D01348C7
:101F70000021134A0170417081700821C17091697C
:101F80000B0E03710B0C43710B0A8371C17102219B
:101F9000017211690B0C43720B0A8372C1720949F9
:101FA0000C2010638A680C2A03D9A1F11F029060EB
:101FB0008860BDE81040FFF72DBC10BDBC1D00209F
:101FC000300300201A22002010B5FFF709FC00287A
:101FD00035D01B4870211B4B017000214170DC681B
:101FE0005A6832EA040406D0062484702824047354
:101FF0004173DA6008E0DAB1134A127BE2B10522DC
:102000008270202202734173C1700171417181712C
:102010000A22C271017241728172C1728173C173ED
:102020000174417412201863BDE81040FFF7F2BB41
:10203000022282703A22E5E781700173E3E710BD66
:10204000BC1D0020300300201A220020044900207B
:10205000086004490860044907200870012070479F
:102060001C0300201A2200203003002010B5FFF7C7
:10207000B7FB002817D00C482022002102704170C5
:102080000A4CC17703202263207009480649007872
:1020900040F0800000F07CFC0648226B8168891AC1
:1020A00081600121017310BDBC1D002030030020A0
:1020B000B46A00081A220020084910B506480860D2
:1020C00007480D22007840F0800000F061FC0549CF
:1020D0000520087010BD0000555342531A220020FD
:1020E000B46A00083003002010B5044600F01BFC61
:1020F000200605D504F00F014FF48030884001E040
:102100000120A04002490A681043086010BD000089
:10211000180300200A4810B5817C00F11F0429B182
:1021200001202073BDE81040FFF7C6BFC07C054901
:1021300000F00100486003F005FC0020F1E700001A
:10214000FB21002030030020024900200873FFF724
:10215000B3BF00001A2200200F4810B5816800F1BB
:102160001F0469B1007B000604D50C48007840F0DC
:10217000800001E00A480078FFF7B6FF012004E084
:10218000FFF7D8FA002805D000202073BDE81040E2
:10219000FFF792BF10BD0000FB210020B46A0008C9
:1021A000B56A0008704700002DE9F05F05004FEAAE
:1021B0000570DFF8DC804FEA906408EBC40B0F4633
:1021C000BBF80210DFF8CC9092464FF000061AD10F
:1021D000A9F11400407878B1600801218140EFF343
:1021E000108072B6D9F800304B4080F31088002080
:1021F000C9F80030BDE8F09F18F83400C0F3830040
:102200000D2800D101268A4506D240F2E91222A10A
:10221000002000F087FC51461D4A0020603202EB8E
:10222000841202E0135C3B54401C8842FAD31948E4
:1022300043461238425DABF802206208851E18F84A
:1022400034806869C8F3801820FA02FC0CF0010C95
:10225000C4450CD1FF8806B17FB101279740EFF349
:10226000108672B6784086F31088C9F80000686955
:10227000D040C00707D0C82006E0EFF3108672B642
:1022800020F00100EFE7882003F834000846B1E7AA
:10229000001E0020F00200202866696C65290000FD
:1022A000FFF772BA2DE9FC414E4BA3F11C051878DB
:1022B000A3F1080410F01F0002D001286DD179E0CD
:1022C0004949D878494E0A784649494F1C39062869
:1022D000C97810D006DC012809D0022814D00328C0
:1022E0007ED141E007282AD00F2879D156E0414815
:1022F000206012205CE0002A72D019B13E482060B4
:102300000A2055E03D48FAE70AB9012968D00220C1
:1023100021B10097787000209A7809E000967070DB
:10232000F9E700990B7813B14B8819440091401CD0
:102330008242F6D10098017879B3206037E062B329
:10234000072021B10096707000209A7809E000976C
:102350007870F9E700990B7813B14B881944009114
:10236000401C8242F6D1E5E7254800909878032882
:1023700001D0002008E001F0F7FD0BE000990A7899
:102380000AB111440091401C99788142F6D100981D
:10239000017811B1206000780AE021E01948007846
:1023A00000281BD01848009020600178C1B14088F7
:1023B000019005E001A9684600F02AF800280DD038
:1023C000A1880198814208D9104980B2A08009787B
:1023D000491E084201D1012028710120BDE8FC817D
:1023E0000020FBE728030020B16A0008B41C00208D
:1023F000D80200201C6B00082F6B00082E6B000811
:10240000326B0008B26A0008306B0008B36A00083B
:102410000020704770B51C481B4C0078A4F10804DC
:1024200010F01F000AD0184AA4F11403174D597870
:102430001279012806D0022824D109E01248163862
:1024400020601DE0F1B1987882421BD2002015E097
:1024500002F08F00020605D500F00F064FF480321F
:10246000B24001E00122824009B900070AD1986810
:10247000104207D0D868104000D001202880256085
:10248000012070BD002070BD280300207C1D0020AD
:1024900070B5264B024619461878498810F01F007F
:1024A000A3F11C0604D0012829D0022827D111E06D
:1024B000012924D132B1012000F068FAF08840F0FF
:1024C000020005E0002000F061FAF08820F0020030
:1024D000F08029E0187900F08F04200605D504F07B
:1024E0000F004FF48035854001E00125A54070784C
:1024F00028B1200703D0B068284200D009B10020DD
:1025000070BD2AB1204600F00EFAF06828430AE0B8
:102510003069284208D12046FEF7D4FD2046FFF757
:10252000BFFEF068A843F060012070BD28030020C2
:102530002DE9F05F5A480026017811F01F0F7DD178
:10254000574F80781C3FB1464FF0010A4FF4803B53
:1025500000287AD0534801783846C07809B9012854
:102560006CD008B1504C6CE0504C6AE060780228A6
:1025700005D0042845D0052845D007285CD1484817
:102580006179807881423AD1787020794949B87070
:102590000020474A098802E002F80090401C884267
:1025A000FAD30125B8460AFA05F0D8F8081008420F
:1025B00002D02846FEF7D9FDD8F808100BFA05F02E
:1025C000084203D045F08000FEF7CFFD6D1C102DB2
:1025D000E9D34FF00110C8E902090120C8F81090B2
:1025E000FEF788FDE0794006B8F8060002D540F015
:1025F000010001E020F00100A8F806001CE060885E
:102600001BE0E67818E0BEB9A07800F08F05280638
:1026100004D505F00F010BFA01F001E00AFA05F00C
:10262000B96801432046B960FEF758FD2846FEF719
:10263000B0FD284600F026F9207801E02BE004E008
:1026400004442078002891D120E04D4687F801907D
:1026500001245E46B9680AFA04F0084202D0204616
:10266000FEF783FDB96806FA04F0084203D044F08F
:102670008000FEF77AFD641C102CEBD34FF00110A4
:10268000C7E9020500203D61FEF734FD0448797872
:102690008078884202D00020BDE8F09F0120FBE74F
:1026A00028030020B16A0008D8020020B41C0020D2
:1026B000DA020020D00200202DE9F84F444800271C
:1026C0003E460078BA4600F01F00B94601287CD18A
:1026D0003F491C394878002874D0002000903D48BC
:1026E00002780846C0780AB901286ED08B4608B136
:1026F000394C63E0394C61E06078022805D0042849
:102700000AD005281AD0072856D161799BF8010014
:10271000814251D0608850E02D48A778E678017951
:102720004FF00009B94247D18078B04244D101202E
:1027300000902B4810F807A0C6553DE024490879C1
:10274000B84239D1A07800F08F085FEA086005D55B
:1027500008F00F004FF48035854002E0012505FAAE
:1027600008F58878B04215D1DBF8081020462943D7
:10277000CBF80810DBF80C10A943CBF80C10FEF7CF
:10278000ADFC4046FEF705FD404600F07BF849EA07
:10279000050911E056450FD119EA050F0CD1DBF8F8
:1027A00008104046A943CBF80810DBF80C10A943E9
:1027B000CBF80C10FEF7D9FC2078044420780028D0
:1027C0009AD10098BDE8F88FFFE70020FAE70000F3
:1027D00028030020B16A0008D8020020B41C0020A1
:1027E000DA020020234910B50820C1F88001BFF3A8
:1027F0004F8FBFF36F8F01200024810001F1A041B2
:1028000081F8C040401C1028F7D30D211A48FDF76D
:10281000D4FE1A491A4840228C60CC600C610C70BE
:102820004C70428000F160024260C8220270047263
:1028300000F1E002C46142614FF0A0400D2280F837
:10284000C0204FF055324A6150F8941F41F0020108
:1028500040F81419FF2101608160C160846105495D
:1028600010203B3181F80004BDE81040432000F007
:10287000F5B8000008E000E060210020DC02002044
:10288000001E0020F0B51D4B1D4D5FEA006C1A685C
:102890004FF000044FF00106A5F1600700F00F01B2
:1028A00011D506EB41008640EFF3108072B632433B
:1028B00080F310881A6007EB411005EB012280328B
:1028C000C4614261F0BD4FEA400C06FA0CF66FEAB3
:1028D000060CEFF3108672B602EA0C0286F310883B
:1028E0001A60064A123A125C07EB411005EB01210F
:1028F00042804160882101700472F0BDF002002026
:10290000601E00204FF0A04050F8841F21F02001ED
:1029100001607047002905D14FF0A04100F07F0011
:10292000C1F8980070470007800E00F1A040C03049
:10293000017841F00201017070470000082202494D
:102940000020FFF731BC00002803002002484FF4AC
:102950000071806801F023BDF401002000221146BF
:10296000802000F015B800000248034902780020DA
:10297000FFF71ABCB36A00087C1D00204FF0A0408E
:1029800050F8841F41F0200101607047704700003B
:1029900070B500F00F00022303EB8004134800EB36
:1029A000C40300F160055A80002305EB841502E0A2
:1029B000CE5CEE545B1C9342FAD30D4B61085B690D
:1029C00023FA01F5ED0701D0882500E0C82500F8BD
:1029D000345001248C40EFF3108072B60449143156
:1029E000634080F3108810460B6070BD001E00200D
:1029F000DC02002010B501210806FEF749F9154850
:102A000001686FF30F01016001684BF67F321143DB
:102A10000160016821F040510160016841F00051FE
:102A20000160001F016841F040010160016841F050
:102A3000200101600120FEF705FA01218020FEF748
:102A40000FF94FF0A04050F8941F41F001010160D0
:102A500010BD0000046C004000207047002809DB16
:102A600000F01F02012191404009800000F1E020A8
:102A7000C0F8001170470000EFF3088400F00F0168
:102A80000D2901D1EFF30984A18B04F120058905FB
:102A900000D52D1DC10600D4483500F0BDF9EFF377
:102AA000098000F0B9F9EFF3088000F0B5F9EFF311
:102AB000148000F0B1F9284600F0AEF9606900F02A
:102AC000ABF9A06900F0A8F9E06900F0A5F9124897
:102AD000006800F0A1F91048001F006800F09CF9A0
:102AE0000D48001D006800F097F90B481030006891
:102AF00000F092F908480830006800F08DF90648A7
:102B00000C30006800F088F9432204A1002000F096
:102B100009F8FEF7E7F9FEE72CED00E02866696C9E
:102B2000652900002DE9F04116460F46002818D10E
:102B3000EFF3108572B600231A461946184600F0C6
:102B40008BF9040003D13146384600F0E9F985F3EA
:102B50001088002C05D1EFF30380C00601D103F0EB
:102B6000BBF9BDE8F0817047002070477047000056
:102B700010B528220D490E48FDF7C3FC03F070FA8A
:102B80000C4803F067FA03F0E5F80B490B4A0C4BCD
:102B900008604FF40071B0FBF1F0116009490122A7
:102BA0001A60086009490848086010BD3C670008C1
:102BB000680F0020853300086403002040030020D4
:102BC0004403002048030020680D00204C0300202F
:102BD000044841788078814201D00120704700206C
:102BE000704700008C02002030B50546EFF31084DA
:102BF00072B600F006F8A968081A84F31088401E1F
:102C000030BDEFF3108372B6D0E900128A4201D3CF
:102C1000501A02E080681044401A83F3108870470D
:102C200070B50446EFF3108572B6D4E9000188420E
:102C300001D0012000E0002042220EA1FFF772FF28
:102C4000E16820680E5C401C2060A16888420CD3BB
:102C500002D14FF0010001E04FF000004FF04702B9
:102C600004A1FFF75FFF0020206085F31088304645
:102C700070BD00002866696C6529000070B50446C7
:102C8000EFF3108572B6C068626881546068401CBA
:102C90006060A16888420CD302D14FF0010001E0CE
:102CA0004FF000004FF0300209A1FFF73BFF00207A
:102CB0006060D4E90001884201D0012000E00020DA
:102CC000352203A1FFF72EFF85F3108870BD0000A9
:102CD0002866696C652900002DE9F04114460E460E
:102CE0000746FFF781FF844200D2204605460024B4
:102CF00004E0315D3846FFF7C1FF641CAC42F8D3F5
:102D00002846BDE8F08100F021BC00F01FBC0000A7
:102D10000248807AC0F300007047000000FC010800
:102D200002488079002800D00120704700FC01088B
:102D30000248C079002800D00120704700FC01083B
:102D40000248807AC0F340007047000000FC010890
:102D50000248407A002800D00120704700FC01089A
:102D60000248007A002800D00120704700FC0108CA
:102D70000248807AC0F380007047000000FC010820
:102D80002DE9F0418E212148FDF7F5FB204C214F24
:102D90008E2520681D4EB84210D1A5888E2D01D2F7
:102DA0002A4601E04FF08E0201D84FF08E051849F7
:102DB0001648FDF71FFB002086F847008E211448B7
:102DC000FDF7D9FB2760A58041223546F11DE01DA6
:102DD000FDF710FB35F8480F24F8480FA878A070CD
:102DE000E878E0708200094909484C314C30FDF721
:102DF00001FB95F8440084F8440095F8450084F8F8
:102E00004500BDE8F04100F0CBB800006D21002086
:102E100000BF0020646C766B074A92F84B101029B3
:102E200001D30020704702EB8101C86412F84B0FF8
:102E3000401CC0B21070704700BF002010B5054C98
:102E40004121E01DFDF797FB002024F8480FE070BA
:102E500010BD000000BF00202DE9F047184F81464B
:102E60001D4616468846F81DFDF74EFA441CB9F17A
:102E7000000002D04146FDF77EFB002006B1308005
:102E800005B12870F879002818D0444502D8F91DFA
:102E9000224604E0A4EB0800C1194246C91DB9F15D
:102EA000000F02D0B7F84800308016B14846FDF751
:102EB000A1FA15B197F84A0028700120BDE8F08703
:102EC00000BF0020014890F88C00704700BF002030
:102ED000054A92F84B1029B102F14C01016092F8B9
:102EE0004B0070470020704700BF002002488079E7
:102EF000002800D00120704700BF002002488079E0
:102F0000002800D0012070476D210020034890F870
:102F10008D00002800D001207047000000BF002075
:102F20002DE9F04188460746FDF7EEF9104D441CA7
:102F300041263146E81DFDF71EFB412C02D83946DB
:102F4000224602E0413CE11932462C46E81DFDF7DD
:102F500051FAA4F8488000F0A7F808B1012003E076
:102F600000F0A4F800B1022084F84A00BDE8F08126
:102F700000BF0020014981F88C00704700BF00208D
:102F800002498871024908707047000000BF0020A4
:102F900000C00020014981F88D00704700BF00206B
:102FA0007047704770477047704770477047704769
:102FB0002DE9F0410F4606464FF0FF340025DFF8BB
:102FC0003C8012E0705D082101F0DCFD84EA0064C1
:102FD00008204146002C02DA81EA440400E0640043
:102FE000401E10F0FF00F5D16D1CBD42EADB202130
:102FF000204601F0C7FDC043BDE8F081B71DC10404
:103000002DE9F0410E4617462021C04301F0BAFDDC
:1030100004460025DFF83C8012E0705D082101F0D5
:10302000B1FD84EA006408204146002C02DA81EAFE
:10303000440400E06400401E10F0FF00F5D16D1C58
:10304000BD42EADB2021204601F09CFDC043BDE8E3
:10305000F0810000B71DC10470B514460D46064648
:10306000B2F5806F07D240F2DD120AA10020FFF70F
:1030700059FD022070BD00F051FC08B1102070BD58
:103080002A462146304600F065FD0028F7D0202072
:1030900070BD00002866696C65290000C10600F05B
:1030A0000F0000D40930704701207047002070479E
:1030B00010B500231A4600F06BFA002800D001205A
:1030C00010BD10B502F07AFD012800D0002010BD1F
:1030D0002DE9F041164E144C144D3078012806D0DD
:1030E00040F2371213A10020FFF71CFD09E0B07871
:1030F000022748B140F23D120EA10020FFF712FD59
:1031000037700220BDE8F081204600F017F810B1BA
:1031100037702220F6E704F58064AC42F4D3012036
:10312000B0700020EEE7000000C0000800FC0108BD
:10313000600200202866696C652900002DE9F041D5
:103140002A4E04463078012805D0FF2228A100200D
:10315000FFF7E8FC19E04FF480684046B4FBF0F15B
:1031600008FB1141022511B140F2071208E0F17885
:1031700071B1D6E902121144A14209D04FF487720D
:103180001BA10020FFF7CEFC35700220BDE8F081C6
:103190001949B4F1006F01D38C4223D30121F1709E
:1031A000164FC6E902481648BC4201D3844201D3F7
:1031B00023200CE0FFF77AFF01004FF0260006D035
:1031C00039468C4203D142463846FFF745FF262850
:1031D00003D00028DAD03570D8E7204600F09EFBF7
:1031E0000028D3D035702120D0E7000060020020F5
:1031F0002866696C6529000000BC000800C0000852
:1032000000FC01084FF480607047000010B52828CA
:1032100004D2064951F82000002805D1F72204A164
:103220000020FFF77FFC04A010BD00005C660008D2
:103230002866696C65290000000000000146012035
:10324000282901D20148405C70470000B0010020ED
:103250002DE9F04789460446804600E0641C20784A
:10326000402802D00028F9D15CE06078622846D07E
:1032700012DC522853D008DC422840D0442847D0E2
:1032800048283FD04D2817D133E054283DD0552849
:1032900032D0562810D13EE0722840D006DC642897
:1032A00036D068282ED06D2806D122E074282CD084
:1032B000752821D076282ED01CA52046FDF724F8AD
:1032C00007462846FDF720F80646A019C11908EB65
:1032D0000902891E914224D2BA1EA11CFDF7CFF823
:1032E000324629462046FDF785F820780028B6D1D9
:1032F00018E000F02DFE10E000F032FE0DE000F0CE
:10330000CDFD0AE000F0FAFD07E000F025FE04E044
:1033100000F0F0FD01E000F02BFE0546CDE7054D85
:10332000CBE73C44A4EB0800BDE8F0874552524F80
:1033300052000000847500082DE9F043A3B08846D0
:1033400081461E461746802102A82A9DFDF735F9C1
:10335000002002AC03E02154401C7F2802D2295CEB
:103360000029F8D180212046FFF772FFCDE9004007
:1033700033463A464146484602F056FB23B0BDE884
:10338000F08370472DE9F0411E4615460C4607466E
:1033900002F00AFF2C4890F8201003290FD0022CCD
:1033A0000FD004B3012C0AD10168A94207D190F8CB
:1033B0002210A9B300214A1E016082608161BDE82C
:1033C000F0810068A842FAD1304602F0A9FC044618
:1033D000304602F0A7FC0646384601F0A9FD034638
:1033E0002246314617E0384601F0A2FD0328E6D018
:1033F000304602F093FC8007E1D4384601F098FD96
:103400000746304602F08CFC0446304602F08AFC47
:1034100001463B4622462846BDE8F04101F032BF56
:1034200028220A490848FDF76CF801F015FE084803
:103430008178012903D14178022900D18170BDE84A
:10344000F04101F011BE0000680F00203C67000849
:103450008C0200202DE9F0411D4E0446174696F8D7
:1034600022008846550260B92946404601F032FDE7
:10347000032802D0214601F0C9FE96F82200002858
:103480000FD07068A0420CD8F068A0420BD008D9C9
:103490003069401C00D134613069A04200D204463A
:1034A0003461BDE8F081F0692A461044F061E0190A
:1034B000F06096F8230020B1BDE8F041002001F053
:1034C0001BBF41462046BDE8F04101F053BE00005D
:1034D000680F0020F0B518A185B009680491027842
:1034E000002104AB5C5C944224D0491C0329F9D32D
:1034F00012A1002291E878006F46815C8DE8780087
:10350000A1F1610CBCF1190F14D9202901D20529B0
:1035100010D14FF0000C17F80CE08E450AD00CF1DA
:10352000010CBCF1100FF6D3521C0B2AE5D301207D
:1035300005B0F0BD0020FBE7E5002000222A2B2C7F
:103540002E2F3A3B3C3D3E3F5B5C5D7C70B50D4DA4
:1035500000202C7874B100212970A97809B100F0FD
:10356000C5FA022C05D06978032902D0002800D1C1
:10357000252070BD40F26B1203A10020FFF7D2FAA4
:10358000022070BD300200202866696C65290000A9
:1035900070B51C460546302901D3012000E000200B
:1035A000472212A1FFF7BEFA286A696A114E0CB9C8
:1035B00000223271104A91420AD11049884201D149
:1035C000022070BD0D49FC3988420CD1012070BD2C
:1035D000284602F0A3FA18B11CB90120307100E0AE
:1035E0000CB1032070BD002070BD00002866696C1E
:1035F000652900003002002070324D4D8F9E939B54
:103600002DE9F05F4FF00004DDF828B05FEA030A0F
:10361000904689460746254611D05FEA0B000ED03A
:103620000020CAF800000646CBF80000FFF73CFD7A
:1036300080B12948022F06D0032F04D032E0712236
:1036400043E0064618E0B8F1000FFAD08145F8D003
:103650001B2428E0FFF72AFD20B3012F02D0032FFF
:103660000CD01FE04FF00061B8F1000F03D0894586
:1036700001D01A2417E00E4618480FE018480069D8
:1036800080B10C3003E08168012909D01430016851
:103690000029F8D141680029F5D11248056802E0F7
:1036A0000668FAE71C24FFF743FB08B9012F03D093
:1036B00024B12046BDE8F09F1C24FAE725B1CAF8E2
:1036C0000060CBF80050F4E7B82207A10020FFF714
:1036D00029FA0220EEE7000000C000083867000861
:1036E000CC650008106700082866696C6529000031
:1036F00030B5154C00236178012904D0022904D08B
:1037000003291FD103E0114B17E0114B15E021797C
:10371000C1B110490969A9B10C3107E0844204D84C
:103720004C68844201D34B6806E014310C68002CCD
:10373000F4D14D68002DF1D123B11044984201D34A
:10374000012030BD002030BD3002002000BC000848
:1037500000FC0108CC65000810B50C4C207830B195
:10376000DA220BA10020FFF7DDF9022010BDFF22B5
:1037700030210948FCF7F7FE01202070002060701E
:10378000A060E0602061A070E07010BD30020020F9
:103790002866696C65290000100500202DE9F041BC
:1037A00016460F4605460024FFF780FC50B1032D56
:1037B00008D10648006928B131463846FFF7D4F9E8
:1037C00000B11D242046BDE8F0810000CC65000852
:1037D0002DE9FE4F06464D488946154601780129D8
:1037E00007D0EF224AA10020FFF79CF90220BDE894
:1037F000FE8FC1784FF0010A19B9C660066180F8E2
:1038000003A0804680780327002869D1D8F81010DB
:1038100042468E4201D1012000E000202944C8F830
:10382000101048B39068C0F13004AC4200D92C4667
:10383000394A494610442246FCF7DCFDD8F8080016
:103840002D1B2044A1442644C8F80800302839D351
:10385000444602D14FF0010001E04FF0000040F279
:1038600011122BA1FFF75EF9D4E9021201232A48B5
:10387000FFF78EFE607001E088F8017001A80090EB
:1038800002AB0122444698F80100D8F80C10FFF76B
:10389000B7FE08BBFFF75CFA28B11F496078A26841
:1038A000FFF77CFFC0B9A0784FF49A7280F0010056
:1038B00017A1FFF737F9019800F0D0F860B984F844
:1038C00002A002E098F8020098B144461249D4E9F7
:1038D000022000F03DF808B1277088E7A07840B1D9
:1038E0002A464946304600F033F810B188F8007097
:1038F0007DE72A4649463046FFF7FAFE0028ECD01D
:10390000022188F80010132071E700003002002027
:103910002866696C652900001005002010B5EFF3DA
:10392000108472B6FCF75CFF84F3108810BD01446C
:103930004FF40032A0F10060491E904205D2A1F17F
:103940000061914201D201207047002070470000C1
:103950002DE9F0473D4E054600247078174688460D
:10396000012807D07B223AA10020FFF7DBF80220D4
:10397000BDE8F087F0784FF0020A50B9284601F010
:10398000E5F9040002D086F801A05CE00120F070A7
:103990007561B068B5FBF0F100FB11516A1A7169ED
:1039A000B1FBF0F300FB1310081A824204D0284642
:1039B00000F0DAF80400E6D13069B5FBF0F100FB65
:1039C00011516A1A7169B1FBF0F300FB1310081A68
:1039D000824204D0284601F0B9F90400D3D1B1469F
:1039E0004E46D6E901010844A84207D8284600F00F
:1039F000BBF8040002D089F801A024E00FB3D6E997
:103A000003010844A84204D8284601F09FF90400A5
:103A1000F1D17068B168B146281A0E1AB74200D2C7
:103A20003E460D49324608444146FCF7E3FC36B1B8
:103A3000002089F802003544B044BF1BD0E70120C4
:103A4000F7E7C9F81450204692E70000440200202E
:103A50002866696C652900004005002070B51F4D7F
:103A60000446687808B1472226E024B3606810B3A2
:103A7000A06800B3E068F0B12069E0B16069D0B13E
:103A8000A069C0B1E069B0B1FF224FF48061144871
:103A9000FCF769FD0126AE700020E8706860A86040
:103AA000E8602861C5E9050420688047040008D162
:103AB000287838B110E04D220AA10020FFF732F833
:103AC000022070BDA86900698047040004D0A8697D
:103AD00040688047204670BD6E70FBE744020020BE
:103AE000400500202866696C6529000070B5154CFA
:103AF0000025607810B1012807D00AE0CC2212A17D
:103B00000020FFF70FF8022070BD002000F02CF815
:103B10000546A069406880470646FF224FF4806151
:103B20000B48FCF720FD0120A0700021E1706160CE
:103B3000A160E1602161616161700EB1304670BDCC
:103B4000284670BD440200202866696C6529000083
:103B50004005002010B5EFF3108472B6FDF767F84A
:103B600084F3108810BD000070B50E4E0546002489
:103B7000B07840B9B0690C498368D6E9010298472A
:103B800004460120B070FF220748B168FCF7EBFC47
:103B9000B068B5FBF0F100FB1150281A70602046A8
:103BA00070BD0000440200204005002000A07047C6
:103BB000303838000748006948B106480069B0F855
:103BC000A00120B103480069B0F8A0017047014886
:103BD0004088FBE7CC6500080022034611461046EA
:103BE0001847002070470020704700002DE9FC4175
:103BF00001210846FDF740F801210220FDF73CF8BD
:103C000001210420FDF738F801210820FDF734F8E0
:103C100001218803FDF748F85B4E02213046FCF78E
:103C2000C6FE0227ADF8007001248DF80240102571
:103C30008DF8035069463046FCF760FE022130469D
:103C4000FCF7B5FEADF8007069463046FCF756FE4D
:103C500001213046FCF7ABFEADF800406946304626
:103C6000FCF74CFE01213046FCF7A1FEADF8004008
:103C700069463046FCF742FE002205213046FCF73B
:103C800086FE20207061ADF8000069463046FCF7E2
:103C900035FE002207213046FCF779FE8020306196
:103CA000ADF8000069463046FCF728FE374804604E
:103CB000DFF8D880ADF80040A8F114086946404606
:103CC000FCF71CFE00220A214046FCF760FEA7021A
:103CD00039464046FCF76DFEADF800708DF8035094
:103CE00069464046FCF70AFE002204213046FCF7F4
:103CF0004EFE10213046FCF75CFEADF800508DF80A
:103D0000035069463046FCF7F9FDFCF77DFF0022C1
:103D10000D214046FCF73BFE00220C214046FCF7FB
:103D200036FE2003ADF800008DF802408DF80350F8
:103D300069464046FCF7E2FD6003ADF800006946C5
:103D40004046FCF7DBFD00F081F9FCF739FEFEF799
:103D5000F7FF0F49002518B10C70FCF73BFD02E09E
:103D60000D70FCF731FDFCF797FE0A480190401EEC
:103D70000190FCD1FCF782FEFCF726FD0648057099
:103D800006480570BDE8FC810000044014040440AE
:103D9000BC02002040420F00BE020020BD020020F5
:103DA000044A00284FF00101104601D0FCF7FFBD86
:103DB000FCF7FFBD00000440044A00284FF0010159
:103DC000104601D0FCF7F3BDFCF7F3BD0000044042
:103DD000044A00284FF00101104601D0FCF7E7BD6E
:103DE000FCF7E7BD000004402DE9F04385B08146B3
:103DF0000D481D4616468846DDE90C410DC802AF48
:103E000087E80D00B81C01F0E8FD0020CDE900476F
:103E10008DF812002B4632464146484601F0D4F850
:103E200005B0BDE8F08300003468000870B5174C99
:103E300000204BF6FC356060A0604FF00066E0604B
:103E400029463046FFF773FD20B129463046FFF77B
:103E5000AFF860600E4D0F4E29463046FFF767FD04
:103E600020B129463046FFF7A3F8A0600A4E4FF470
:103E7000806529463046FFF75AFD002804D02946C0
:103E80003046FFF795F8E06070BD0000D8010020D3
:103E9000FC3B010000C0000800FC0108004870471E
:103EA000E801002010B50C210948FFF740FD00286B
:103EB0000AD04FF00060074A016A914203D1406A7C
:103EC0000549884201D0002010BD012010BD00002E
:103ED00020000008939D939B70324D4D014840682F
:103EE00070470000D801002001488068704700003A
:103EF000D801002000487047D703002000487047D1
:103F00009803002010B50C210948FFF710FD002888
:103F10000AD00748074A2038016A914203D1406A13
:103F20000549884201D0002010BD012010BD0000CD
:103F300020C000088F9E939B70324D4D10B5FFF747
:103F4000E1FF002801D00148806A10BD00C00008D0
:103F500000487047A903002000487047B6030020BE
:103F6000004870478403002000487047E0030020A9
:103F700000487047EC01002070B5FFF757FF1A4862
:103F800000F09AFD00F092FE174814211C30FCF757
:103F900014FB154815491C30FCF720FA1249303142
:103FA000A1F11400FCF71AFA0F4800241C30FCF7AA
:103FB000ABF90D4AC1B20220783200EB410010701B
:103FC0000320507002200023A2F15C0508E02E5D62
:103FD0001654401CC0B21354401C641CC0B2E4B25E
:103FE0008C42F4D370BD000068030020E80100207B
:103FF00010B5124C207830B1622211A10020FEF7DA
:1040000091FD022010BD002211461046FCF7D5FCA0
:1040100008B11E2010BD00206070A070E070A0608C
:10402000E060207120616061A0614FF4806106480A
:10403000FCF7A1FA01202070002010BD60020020D2
:104040002866696C652900004009002030B501210F
:1040500087B00846FCF710FE01210802FCF724FE99
:104060000420ADF8180001208DF81A00174D002427
:104070008DF81B4006A92846FCF740FC0821ADF846
:10408000181006A92846FCF739FC6846FCF786FBA1
:104090007020CDE900400594049428150C4C029042
:1040A00069462046FCF734FB072301220221204603
:1040B000FCF748FB0723022203212046FCF742FBC2
:1040C00001212046FCF719FB07B030BD0000044079
:1040D000002401402DE9F047DFF8D0900446314F2D
:1040E00099F80000304D90468A46012808D040F2E9
:1040F00079122FA10020FEF715FD0220BDE8F08700
:10410000BC4201D3AC4201D32320F7E7FEF7CEFF38
:1041100078B32E1B301F4146404501D90A4600E0C6
:10412000321F5146D9F81800FEF76AFF0146C9F858
:1041300018002148844208D22049E01B0844424626
:104140005146FCF757F90020D8E704EB0800A842D5
:1041500025D10AEB06004D4610F8023C30F8042D3C
:10416000C07863F31F4242EA0060814202D02720F8
:10417000C4E714E0524641462046FFF7EBFC08B185
:104180002020BBE74FF480620C493846FEF764FFFD
:104190000446FFF74BFE012068702046AEE726205C
:1041A000ACE7000000C0000800FC0108600200202D
:1041B0002866696C6529000000C4000840090020D9
:1041C00000F016FDFFF712FDFEF7DAFDFEF7CBFC5F
:1041D00000F0F0FC88B90E4C206970B1C06801F0A5
:1041E0009DFC50B1FEF78AFE38B92069094AC168C2
:1041F0001160C06803C8FCF739F800F0C0F800226D
:104200001146054800F0D6F800F0BEF8FEE70000C1
:10421000CC65000808ED00E02D42000802490122AB
:104220000A70487070470000F40100200125FEF775
:1042300065FE10B1642000F09DF800F0B9F8434F1E
:10424000B8600020FFF7B8FD0020FFF7A9FD284661
:10425000FFF7BEFDFFF790FE01F038FB012001F0F3
:1042600055FE002001F030FB4FF0000887F8038076
:104270000120C7F80C80B87001460B244346424623
:10428000334800F09CF8032100F09EF84FF0FF390E
:1042900040F2032A4A460021504600F087F886B2D1
:1042A000B00501D5FDF7AEF8F0072FD05A2001F088
:1042B00045FEF878012806D1F86810B1401EF86074
:1042C00001D187F80380B878F0B101280ED0032817
:1042D00014D004281AD1F878C0B90CB1641E15D1D5
:1042E000002001F0F1FA87F802800FE00CB1641EA3
:1042F0000CD1012001F0E8FA032003E001F0DCFA20
:1043000020B10220B87001E0FCF7ECFDB007C1D588
:1043100038780028BED07878012808D0022806D046
:10432000012587F800802846FFF752FDB2E7012DEE
:1043300001D0012500E00025002DF4D00128F2D1A4
:1043400087F8008087F80180EDE70000F401002085
:1043500041510008FFF700BA10B5044640F20111C0
:10436000FCF709F900F030FC00202070BDE8104097
:10437000FFF7F2B910B500F0CBFE002010BD10B56C
:1043800000F096FE002010BD10B500F0B7FE002032
:1043900010BD00207047002070470020704710B506
:1043A0000C46084600F066FE204610BD00F06CBECC
:1043B0000120704710B500F09BFE012010BD10B524
:1043C00000F090FE012010BD10B5084600F06AFE16
:1043D000002010BD2DE9FF5F8B46044600EB0B0863
:1043E000109D8C484FF0000AC5F800A000791F46C8
:1043F00028B120783A2871D1864981F804A0854EE9
:10440000DFF81492F078002818D086F803A099F805
:10441000002009F104011846FBF7ECFF99F80000B1
:104420002968074408442860F068010CB9F80100C5
:104430000904014399F800000844F060CFE02078B7
:104440000A2829D00D28FCD03A281BD03178002921
:104450007CD0FEF723FE00F00F02707819F80030D0
:104460001A4309F80020401CC2B2727099F800008B
:104470008646401D82423AD3674A00210846137897
:104480005B1D10E025216448FCF775F886F800A054
:1044900086F801A086F802A0A0E012F800C0401C37
:1044A0006144C9B2C0B28342F7D809B104269AE088
:1044B000B07800281BD10120B070B9F8010049463E
:1044C00042BAA9F8012099F8030004285ED006DC5E
:1044D00070B101283ED002287CD13DE082E00A285C
:1044E00002D00D2876D103E0888840BAF08071E0D0
:1044F000F08838B1494B1B88984203D0484B1B8841
:10450000984224D1F068030C1B041343834204D067
:104510000120F0700226641C65E0894686F803A03D
:104520007246091D3846FBF765FF99F800002968B7
:10453000074408442860F068B9F801106FF30F00D1
:10454000084399F800100844F06043E039E0012086
:10455000307147E0012646E029680E98FF22411A93
:104560003846FCF700F82868F168091A0F980160CE
:104570000298A8EB0401ABEB0101016099F804106B
:1045800099F80500090341EA001015E029680E9822
:10459000FF22411A3846FBF7E6FF2868F168091A3E
:1045A0000F9801600298A8EB0401ABEB01010160D8
:1045B000B9F8040040BA0004F060022004B0BDE87D
:1045C000F09F7178252923D2FEF768FD72780001EB
:1045D00009F802003078D8B100203070641C4445DE
:1045E0007FF42DAF002629680E98FF22411A384625
:1045F000FBF7B9FF07482968C068411A0F980160A6
:104600000298A8EB0401ABEB010101603046D5E74D
:104610000120E2E77C020020400D002086020020FD
:10462000840200202DE9F05FDFF800810446DFF806
:10463000F89098F8000015468B46012805D0A22274
:104640003BA10020FEF76EFA3FE04FF48060B4FB20
:10465000F0F300FB1343014602260BB1AB222EE020
:104660000A46954204D3B5FBF0F302FB135008B1A0
:10467000B22224E0B4FBF1F002FB1040284488424F
:1046800001D9B9221BE098F8020078B998F8030024
:1046900050B1D8F80800844204D3D8F80C1008446C
:1046A000A04203D8C7220AE0C12208E098F804001B
:1046B00070B1D8E904010844A04209D0CF221CA15E
:1046C0000020FEF72FFA88F800600220BDE8F09F76
:1046D00019486719844202D2B7F1006F17D84FF01A
:1046E000010A88F804A02A4659462046C8E904452C
:1046F000FFF7F0FC262804D00028E7D088F80060F7
:10470000E4E75A4629462046FFF724FA18B188F80C
:1047100000602020DAE74F4503D3FFF787FB88F8D6
:1047200001A00020D2E7000000FC01086002002088
:104730002866696C6529000000BC00084FF48060A1
:104740007047000070B514460E46054620444FF4ED
:104750008061B1EB402F07D240F263220AA1002012
:10476000FEF7E0F9002070BD4FF400713046FBF712
:1047700002FF35B906480749006942013046FBF798
:1047800039FE600270BD00002866696C6529000072
:10479000A40200209414002010B50B464FF40074BE
:1047A00008B1002010BD224602491846FBF722FE40
:1047B000204610BDD41100202DE9F04F8A46410259
:1047C00087B000234FEA422B1D460693029130B179
:1047D000BAF1000F03D0002007B0BDE8F08F344CD1
:1047E0002078012841D0022841D0002631A0009035
:1047F00059465046029A01F03BF90746304931A02C
:10480000CDE900013B4659465046029A00F0DCFBD8
:10481000074461882DA0CDE900013B46594650462A
:10482000029A00F005FEC4194EB12AA0CDE9000697
:10483000234659465046029A00F0C6FB044406A897
:10484000FEF746FB060030D0069870B323A0009018
:10485000234659465046029A01F00AF9044403AF30
:104860004FF00A084FF4007919E01FA6BEE721A611
:10487000BCE723A003AB07C883E80700069850F8FD
:1048800025106D1CEDB203A801F0A7F8CDE9007862
:10489000234659465046029A01F0C6F80444B542F0
:1048A00003D204F10A004845E3D3204694E7000010
:1048B0009C0200204173736572740D0A00000000B1
:1048C000900F002046696C65000000004C696E6521
:1048D00000000000536F75726365000048657864DE
:1048E000756D70730D0A0000426F6F746C6F6164B8
:1048F000657200004170706C69636174696F6E006D
:1049000000000000000000000D0A000030B4134653
:104910000C464202204630BC590200F0C5BD0000E2
:104920002DE9FE4F044640028A464FEA422B0026FC
:10493000029001F0E3FA0546FEF768FC07462846B8
:10494000FEF77CFC05462CB1BAF1000F02D0002026
:10495000BDE8FE8F20A0CDE90007334659465046FA
:10496000029A00F031FB04461DA0009023465946F0
:104970005046029A01F07CF80026044401274FF0CB
:104980000208DFF8649019E04FB918A1CDE90018CA
:10499000234659465046029A01F046F80444E80777
:1049A0000AD059F826000090234659465046029AEC
:1049B00001F05EF8044400276D08761C0DB1052E49
:1049C000E2D30BA1CDE90018234659465046029A7E
:1049D00001F02AF82044BBE76572726F7200000094
:1049E000747970653A200000206800082C200000CF
:1049F0000D0A0000F8B5460255020F46002310B11B
:104A00000FB10020F8BD0D480090324629463846C7
:104A100001F02EF804460AA00090234632462946AB
:104A20003846FEF789FC044406A00090234632462F
:104A30002946384601F01CF82044F8BDB873000838
:104A40004052000022293B0D0A3C2F7363726970AB
:104A5000743E0D0A3C2F626F64793E0D0A3C2F684C
:104A6000746D6C3E0D0A00002DE9F041094C0646BC
:104A70000D462046FBF748FC074645B116B100201D
:104A8000BDE8F081024621462846FBF7B3FC3846D4
:104A9000F6E700004C73000810B50B464FF40074A5
:104AA00008B1002010BD224602491846FBF7A2FCBF
:104AB000204610BDD40F002004490B68091D0A6868
:104AC000091D09680360C0E901217047E0F7FF1F75
:104AD00010B5084654022146FBF74DFD204610BD97
:104AE00070B5244D4FF0FF346878A978884201D022
:104AF000012000E0002040F2F9121FA1FEF712F899
:104B00006878022803D0C0B101281AD022E01C48DE
:104B10004FF4FA7490F82000E0B101280AD002287E
:104B200018D0032816D040F20B2213A10020FDF765
:104B3000F9FF0FE044F620640CE0A878022808D0C2
:104B400008E0A878022801D018B103E040F6C414A8
:104B500000E00024601C05D140F21B2206A1FDF7F5
:104B6000E1FF0024A868A04201D9012070BD002007
:104B700070BD00008C0200202866696C6529000069
:104B8000680F002070B5202903D000231A460126A3
:104B90000CE090FAA0F070BDC40704D08D1A6D1E11
:104BA00006FA05F423434008521CD2B28A42F3D3DA
:104BB000184670BD10B5FFF716F818B9FFF711F8D1
:104BC000002800D0012010BD10B525210648FBF7B4
:104BD000D2FC06480021C160017041708170C17033
:104BE000C180017110BD0000400D00207C0200203A
:104BF00010B5FCF765F82248016821F01801016042
:104C0000016841F001010160416801F003010229DE
:104C1000FAD1C803FCF7A0F83120FCF771F800289E
:104C2000FAD01020FBF714FE0320FBF739FE00201A
:104C3000FCF788F80020FCF7AFF84FF48060FCF731
:104C4000A1F80120FCF7FEF84FF4C0110120FCF799
:104C5000B7F80120FCF7AAF83920FCF751F8002832
:104C6000FAD00220FCF7E4F8FCF764F80828FBD13E
:104C7000054904480860BDE81040FBF7A1BE0000EC
:104C80000060014000D8B805CC0200207CB5DDE909
:104C900006540CB103A400E003A4CDE9005400F0D5
:104CA00093F97CBD31000000300000002DE9F04791
:104CB00000242546FEF77EFF11212248FBF77DFCEC
:104CC000204800263038DFF8808040F86F6F474674
:104CD000466006721B4821211E30C8F81060FBF7A1
:104CE0004AFCFEF763FF018839828078B87408F1C6
:104CF0001000144FC670A7F13009781959F8241024
:104D000000F06BFE641C2844E4B2C5B2022CF4D35C
:104D10000D487E551430322101704170302282706E
:104D20003722C270017139214171064C86713F34BE
:104D30002046D8F8001000F050FEC0B22654BDE85E
:104D4000F087000098030020D80100202DE9F041F1
:104D5000364E0746B0694169384688470546B0690E
:104D6000816938468847044635B12CB14FF48068D4
:104D700045450AD8012009E040F235122CA1002057
:104D8000FDF7D0FE0220BDE8F08100204FF49D72B7
:104D900027A1FDF7C7FEB8FBF5F105FB118048B16F
:104DA000002040F23B1222A1FDF7BCFEAC4203D32F
:104DB000012002E00120F4E700204FF49E721CA1C4
:104DC000FDF7B0FEB4FBF5F005FB1040C0B10020CC
:104DD00040F23D1216A1FDF7A5FEB7FBF4F004FB6F
:104DE0001070381AC6E903047060444500D3444685
:104DF000B460B169096A29B1884704000AD101E0A9
:104E00000120E5E7307850B1B069C168F0688847A3
:104E1000040004D0B069406880472046B3E7FF2211
:104E20000548B168FBF79FFB0020ACE74402002077
:104E30002866696C652900004005002010B5094C02
:104E4000207840B100F05EF86068C1680648884785
:104E50000021217010BDC02204A10020FDF762FED8
:104E6000022010BD040200200C0400202866696C9A
:104E70006529000070B5134C0546207808B18522DD
:104E800002E0022D06D38B220FA10020FDF74AFE7F
:104E9000022070BDFFF78CFAA0604FF482710C48BD
:104EA000FBF78BFB0120207006480C3000EB05104F
:104EB00060604168064888470028EAD003212170D5
:104EC00070BD0000040200202866696C652900009E
:104ED0000C0400202DE9F041094D0E460746002440
:104EE00005EB0410314602683846904710B1204661
:104EF000BDE8F081641CE4B2022CF1D30320F7E793
:104F00001002002010B5FFF753FA0649896888425D
:104F100001D1012000E00020BDE81040622202A182
:104F2000FDF700BE040200202866696C65290000B8
:104F300010B500F1080103220C4607A0FBF703FAA5
:104F4000002806D00322214604A0FBF7FCF908B193
:104F5000032010BD012010BD42494E0048455800B5
:104F600070B5154D06460C462878012806D0A422B7
:104F700012A10020FDF7D6FD022070BDFFF7C2FF91
:104F800068682246314683680E48984704461328CD
:104F900006D0142C06D02CB103202870204670BDFA
:104FA0000220FAE72878012800D00020B22203A1CD
:104FB000FDF7B8FDF2E70000040200202866696CE6
:104FC000652900000C0400202DE9FC478246DDE93C
:104FD0000A0700901C4690468946504600F048FD5E
:104FE000054602260EA0CDE9000663194246494651
:104FF000504600F019FD05446319424649465046A3
:10500000009700F035FD054406A0CDE900066319C0
:1050100042464946504600F007FD2844BDE8FC875B
:105020003A2000000D0A000010B5FFF7C1F907494A
:105030004968884201D1012000E00020BDE810400D
:1050400040F2691202A1FDF76DBD00008C02002044
:105050002866696C6529000002480021C068FFF7D6
:1050600098B900008C0200200148C068FFF795B98C
:105070008C02002072B603494A6802434A6062B655
:1050800070470000F4020020054903464A681342B5
:10509000FCD0486872B64A6882434A6062B670477C
:1050A000F40200200149086170470000F40200206A
:1050B00009490020086048608860C860086148614C
:1050C0004FF0E021054A4A61054BF02283F8142D88
:1050D0008861072008617047F4020020FEA50E00D9
:1050E0000FE000E00149C86070470000F4020020B2
:1050F0000149486170470000F402002003484169FB
:10510000002901D00020084770470000F402002069
:105110000249886088680028FCD17047F4020020AA
:1051200002480078012800D000207047600200206B
:10513000884203D3904201D8012070470020704775
:1051400010B50B4C0221A068FFF729F96068032114
:10515000B0FBF1F201FB1201401C6060002905D197
:10516000A068BDE810400121FFF719B910BD00008B
:10517000F40100202DE9F041224D16460C4695F829
:10518000230038B1BDE8F0414FF430721E490020D1
:10519000FDF7C8BCF00522D000204FF431721A4947
:1051A000FDF7C0FC95F8210040F2C5221649FDF735
:1051B000B9FC31462046FFF7D3FE012704464FF0E5
:1051C000000813280DD0142C17D085F824806869A6
:1051D000304468612046BDE8F04100F08DB8012000
:1051E000DBE7FFF72BFE85F8218085F82370044666
:1051F00085F82470FDF7BAFCE9E7002485F82470EF
:10520000E5E70000680F00205050000870B51B4D06
:1052100006460C4695F8210088B1002040F2852210
:105220001749FDF77FFC601C00D0012040F2862268
:105230001349FDF777FC6868401C02D002E00120AA
:10524000ECE76C6095F82700032801D185F827600A
:105250006868A04203D195F82700B04201D003202E
:1052600008E03046FFF706FE20B945F80C4F012153
:105270006975A975BDE8704000F03EB8680F002060
:105280005050000830B4194C94F82050032D02D02F
:1052900025683DB107E030BC40F2352214A1002062
:1052A000FDF740BC2060A068401C00D1A16094F8CC
:1052B0002700032801D184F82730A069904205D93E
:1052C000E069904202D90AB103200CE0481C02D0E8
:1052D000A0688842F8D1032B03D094F827009842A5
:1052E000F2D10020A26130BC00F006B8680F0020A7
:1052F0002866696C652900002DE9F04704461328EB
:1053000003D0142C01D0012000E000204FF43A72A9
:1053100043A1FDF707FC444D95F8200003280CD06D
:10532000296891B1D5E9060282420ED368B1D5E968
:105330000102904209D1012008E0BDE8F0474FF496
:105340003B7237A10020FDF7EDBB002085F825005A
:1053500095F8269019B995F82710032901D0012155
:1053600000E00021884620B195F8241009B10126FB
:1053700000E0002695F8231011B108B1012000E0EB
:105380000020824628690027401C10D06868401C15
:1053900000D0012040F20A3221A1FDF7C3FB696869
:1053A0002869401A69694002814200D90127032017
:1053B00014B185F820001DE0B9F1000F09D00FB13C
:1053C0000624F6E7B8F1000FF3D0002EF1D1042443
:1053D000EFE7BAF1000FECD10EB1022003E0B8F113
:1053E000000F03D0012085F8200012E095F820007E
:1053F00003280BD195F8210030B1FFF71FFD0021E4
:1054000085F8211004B9044608480470B9F1000F6A
:1054100003D1BDE8F04700F05FBDBDE8F0870000B4
:105420002866696C65290000680F00208C02002046
:105430002DE9F04186B00F46DDE90C4180461D465E
:10544000164602A800F028FB02A900220A54CDE962
:1054500000412B46324639464046FFF7B5FD06B0BF
:10546000BDE8F08110B50D4C207830B100202070DF
:10547000FDF7F2FA40B11F2010BD832208A10020E1
:10548000FDF750FB022010BD607810B9FDF70CFE4F
:1054900008B1002010BD252010BD000060020020D2
:1054A0002866696C652900002DE9FF41074670A058
:1054B000009015460E460023384600F0D9FA0446FF
:1054C00072A0009023462A4631463846FDF734FF45
:1054D000044472A0009023462A4631463846FDF720
:1054E0002BFF044471A0009023462A4631463846DB
:1054F00000F0BEFA044475A0009023462A463146C7
:105500003846FDF719FF0444FEF7FCFCF8B176A01D
:105510002346D0E90010CDE9021075A000902A467C
:105520003146384600F0A4FA0444FEF707FD014670
:10553000062202A800F0DAFA082102A8CDE900014B
:1055400023462A463146384600F06EFA04446DA0E0
:10555000009023462A463146384600F089FA044432
:10556000FEF7A0FC58B1FEF7B9FC74A1CDE900101C
:1055700023462A4631463846FEF736FC0444FEF7F9
:10558000B3FC72A1CDE9001023462A4631463846C5
:10559000FEF72AFC7149044471A049682346CDE90D
:1055A00000012A4631463846FFF742FF0444FDF722
:1055B000B7FB6FA1CDE9001023462A463146384695
:1055C000FFF764FB0444FDF7B3FB6CA1CDE90010C9
:1055D00023462A4631463846FFF758FB0444FDF778
:1055E000BFFB6BA1CDE9001023462A463146384661
:1055F000FFF74CFB0444FDF7ABFB6AA1CDE90010BB
:1056000023462A4631463846FFF740FB0444FDF75F
:105610007DFC6CA1CDE9001023462A463146384670
:10562000FFF734FB0444FDF7A3FB20B1FDF770FB4B
:1056300018B168A002E06EA000E074A000902346BC
:105640002A463146384600F013FA0444FDF778FB49
:1056500008B175A000E078A0009023462A463146A4
:10566000384600F005FA04B02044BDE8F08100009F
:1056700023204D4D33322D4C494E4B204D494E4940
:10568000204669726D776172650D0A00556E697109
:1056900075652049443A2040550D0A004849432089
:1056A00049443A2040440D0A000000004D4D333279
:1056B0002D4C494E4B204D6F64653A20426F6F74FC
:1056C0006C6F616465720D0A00000000426F6F74B8
:1056D0006C6F616465722056657273696F6E3A20F3
:1056E00040560D0A000000000000000000000D0AF6
:1056F000496E746572666163652056657273696F81
:105700006E3A2000476974205348413A2035663587
:105710003532390D0A4C6F63616C204D6F64733AFA
:1057200020310D0A55534220496E746572666163DB
:1057300065733A204D53440D0A000000426F6F74A8
:105740006C6F61646572204352430000496E74655A
:105750007266616365204352430000009C02002092
:1057600052656D6F756E7420636F756E7400000006
:105770004175746F20526573657400004175746FD4
:105780006D6174696F6E20616C6C6F776564000089
:105790004F766572666C6F772064657465637469B3
:1057A0006F6E0000496E636F6D70617469626C6545
:1057B00020696D61676520646574656374696F6EE7
:1057C00000000000506167652065726173696E6753
:1057D0000000000054617267657420506F77657235
:1057E000206F75747075743A2035560D0A000000EC
:1057F00054617267657420506F776572206F75749D
:105800007075743A204F46460D0A00005461726765
:10581000657420506F776572206F75747075743A77
:1058200020332E33560D0A0042656570204D6F649B
:10583000653A204F4E0D0A0042656570204D6F6439
:10584000653A204F46460D0A0000000030B510A111
:1058500087B0D1E900230D48097A00250260436032
:1058600001720E48094C1822457009340CA1684693
:10587000FAF747FE172269462046FAF7BBFDA570E6
:1058800007B0BDE8304000F02FB80000B41C002085
:105890000902200001010080FA000000D802002067
:1058A00009040000020806500407058202400000B7
:1058B000070502024000000002484078002800D09E
:1058C000012070470C030020FBF715BC054910B5FB
:1058D0000020C870FFF7BAFFFCF764FCBDE8104079
:1058E000FBF752BE0C03002010B5FEF761FD074C1C
:1058F00060600020FEF74FFDE060FDF739F9002001
:1059000060700349A070A060086010BD8C02002088
:105910003403002070B514460D460646FFF784FB9D
:10592000074B1868002809D00120FEF777FC2246B3
:1059300029463046BDE8704000F05ABB70BD0000FB
:1059400034030020704700002DE9F04115460E4653
:105950000746FFF769FB1048006800281AD00F4976
:105960000F4C0020886094F82000032812D00120FA
:10597000FEF754FC2A463146384600F0CFFC94F836
:105980002000032806D02A4631463846BDE8F041BB
:10599000FDF760BDBDE8F081340300208C020020DB
:1059A000680F002006484FF0011201780548C180B9
:1059B000002101704170C0E90221016170470000BF
:1059C000B06A00080C03002010B5EFF3108472B623
:1059D000FDF734FA84F3108810BD70B50D46044607
:1059E000090E00F013F80646A019C5F3074100F0B0
:1059F0000DF80644A019C5F3072100F007F8064486
:105A0000E9B2A01900F002F8304470BD054A02EB7B
:105A1000111301F00F011B780370515C41700220DB
:105A200070470000FC6600082DE9F0411446DDE9EE
:105A300006E55FEA000C18D05F19A74215D3214490
:105A4000994212D3002006462A46A34202D2E01A07
:105A5000121A00E01E1B8F4201D9791A521A0EEB5E
:105A600000010CEB0600FAF7C5FC2846BDE8F08102
:105A70002DE9FC418046089C1D4616460F462046EF
:105A8000FAF742FCCDE900402B4632463946404603
:105A9000FFF7CAFFBDE8FC81F0B5064600200246CC
:105AA0000B460A2504E0B3FBF5F3401C42F100026B
:105AB000002BF8D150EA020301D10120002200237B
:105AC0001F460EE0B1FBF5F405FB1414B1FBF5F134
