:020000040800F2
:10000000D0200020CD190008AF09000843100008D7
:10001000371200089F1200082B150008000000008E
:10002000000000000000000000000000B3170008FE
:10003000D3180008000000003F190008270E000830
:100040004B19000877190008D5190008D7190008BE
:10005000D9190008DB190008DD190008DF190008AC
:10006000E1190008E3190008E5190008E71900087C
:10007000E9190008EB190008ED190008EF1900084C
:10008000F1190008F3190008F5190008F71900081C
:1000900000000000F919000800000000FB1900082A
:1000A000FD190008FF190008011A0008031A0008CA
:1000B000051A0008071A0008091A00080B1A000898
:1000C000000000000D1A0008000000000F1A0008D0
:1000D000111A00082F0E0008131A0008151A00083C
:1000E000171A0008191A00081B1A00081D1A000820
:1000F0001F1A0008211A0008231A0008251A0008F0
:1001000000000000271A0008291A00082B1A00080E
:100110002D1A00082F1A0008311A0008331A000897
:10012000351A0008371A0008391A00083B1A000867
:100130003D1A00083F1A00080000000000000000FF
:10014000411A00080000000000000000431A0008E7
:10015000000000000000000000000000451A000838
:10016000000000000000000000000000000000008F
:10017000000000000000000000000000000000007F
:100180000000000000000000471A0008491A00089B
:10019000034608461146C268521E11F1010FC260A3
:1001A00002D000680022184770472DE9F04788B058
:1001B000054600914FF0FF36186801903446002044
:1001C000039002920FF2C4470FF2B8486FF0004953
:1001D00002E00298401C02900298007800F05AFA5F
:1001E000B0B10398401C0390012200980021A84759
:1001F000824600F04FFA0028F3D10398401E1AF10E
:10020000010F0390E5D0009800225146A847E0E78F
:10021000DDF808A09AF80000010004D1002CB8BF56
:1002200000242046B3E0252805D10AF10100029000
:10023000002005901BE00398401C039001220098C9
:100240000021A8479AF800108842C2D002466946A9
:100250002846FFF79DFFE1E70599494505D001EBE9
:10026000810302EB430130390591401C0290029852
:100270000278A2F130010A29EED3069601784046B1
:1002800000F012FA20B10298401C0290401E007843
:100290008DF81C009DF81C00682801BF02990A789F
:1002A000682A622006D06C2802BF029908786C2860
:1002B00004D171208DF81C00481C0290029801782E
:1002C000384600F0F1F9A8B90398401C03900122C8
:1002D00000980021A847824600F0DCF90028F3D1FD
:1002E0000398401E1AF1010F039003D000980022DA
:1002F0005146A84700208DF81D0002980078252857
:1003000012D0582832D0632835D0642818BF692805
:100310002CD06F2818BF702828D073281BD07528C0
:1003200018BF782822D012E00398401C03900122C5
:1003300000980021A84725281FD00399491E10F1D5
:10034000010F039105D0014600980022A847002024
:1003500008E0304606E001226946284600F01AF817
:1003600001280ADA002C7FF55CAF10E069462846C8
:1003700000F068F8F4E70022EEE7002C9DF81D007D
:1003800048BF002400283FF424AF641C21E708B0D4
:10039000BDE8F0872DE9F8430D46804668690027DF
:1003A0000128164604DA002E14BF6FF00040012029
:1003B00028616868686050F8044B686007E004F8DA
:1003C000019B012068770227A869401EA861E9689F
:1003D0002869491C401E00282861E9601BD4286850
:1003E00001220021C047814619F1010F08D0012EDA
:1003F00002DB00F04FF918B9A8690028DFD1012706
:100400004A4629464046FFF7C3FE0EB1022F11D0DF
:10041000022F03D112E04FF0FF39F1E7F80702D4C1
:1004200019F1010F03D14FF0FF30BDE8F283002036
:10043000BDE8F283A86910B1002020700120BDE85A
:10044000F28300002DE9F0430C4689B080466069D4
:100450000128ACBF401E0F480028E946206113D494
:10046000E068401CE060012220680021C047074688
:100470002B2F18BF2D2F17D18DF800700DF101090A
:100480002069401E206107D5E068401CE0604FF005
:10049000FF3709E0FEFFFF7FE068401CE0600122BB
:1004A00020680021C0470746A0680078002564281E
:1004B00014BF75280A260DD0692808BF002609D068
:1004C0006F2808BF082605D070281ABF40F020000A
:1004D00078281026302F3CD1E16820690125491C7D
:1004E000401E00282061E16005D42068012200211F
:1004F000C047074601E04FF0FF3747F02000C0B289
:10050000782823D1002E18BF102E2BD1E168206946
:100510001026491C401E00282061E16006D4206896
:1005200001220021C047074600251BE04FF0FF379E
:100530000025E068401EE060002D5CD1E9450ABF5F
:1005400017F1010F00204FF0FF3098E056B9082650
:1005500008E006BB0A261EE0206801220021C047F1
:1005600007460125302F0BD12069411EE06821612B
:10057000401C0029E060EFD54FF0FF37012500E077
:100580004DB1302009F8010B05E02068012200215F
:10059000C0470746012517F1010FCAD0F9B26129FA
:1005A000A8BF573909DA4129A8BF373905DAA1F1BF
:1005B00030020A2A34BF3039FF21C9B2F0B2814279
:1005C00011D20DF11F00814538BF09F8017B206968
:1005D000411EE0682161401C0029E060D5D54FF044
:1005E000FF370125A5E7E068401EE0600022206893
:1005F0003946C047A0E7002089F80000A0680078CD
:10060000642818BF692808D10023324600216846B3
:1006100000F055F8012161770AE032460021684672
:1006200000F042F901216177A168097870291FD093
:10063000217F622907D068290CD06C291CBF74293E
:100640007A290ED014E06168616051F8042B616072
:10065000107013E06168616051F8042B61601080D4
:100660000CE06168616051F8042B6160106005E086
:100670006168616051F8042B61601060012009B06D
:10068000BDE8F083686C747A4C00000063436E5BD5
:100690000000000010B50446012000F02FF92046AC
:1006A000BDE8104000F036B90278C9B28A421AB1EA
:1006B0001CBF10F8012FF9E718BF002070472DE983
:1006C000F84380460E0091461D4608BF6E464746D9
:1006D00000E07F1C3878FFF7DDFF0028F9D138787B
:1006E0002D2816BF2B2817F8014B2B242B464A46E2
:1006F0003146384600F036F831688F4208BFC6F8F8
:1007000000803168884514D120B92D2C16D1B0F164
:10071000004F15D900F008F9222101600DB1012028
:1007200028602D2C14BF6FF000404FF00040BDE852
:10073000F2832B2CE9D1B0F1004FEBD2BDE8F2836C
:100740004042BDE8F28303681AB95A1E02600846A7
:100750007047197811B94FF0FF307047591C01608C
:10076000187870472DE9F04F85B004461E000D46FD
:1007700090461CBF00203060A14601E009F101094C
:1007800099F80000FFF786FF0028F7D199F80000DC
:100790002D2816BF2B2819F8017B2B27B8F1000F45
:1007A00055D4B8F1010F52D0B8F1250F4FDAB8F196
:1007B000010F0DDBB8F1100F04BF99F800003028CD
:1007C00002BF99F8010040F02000782814D10EE013
:1007D00099F80000302818BF4FF00A080CD199F89A
:1007E000010040F02000782804D14FF0100809F1F2
:1007F000020901E04FF00808CDF8109001E009F17E
:10080000010999F800003028F9D00FF2A00B4FF041
:10081000000ACDF80C908DF808B00AE09DF8081099
:10082000CDF804A0401AC0B2009008FB0A0A09F1F2
:10083000010999F8000000F07DF80146424658464B
:1008400000F082F80028E9D10498484503D105B1A9
:100850002C60002025E00FF27C01039811F80810AD
:10086000A9EB0000401A14D4012808DA0098BAEB6A
:10087000000004D30199B0FBF8F0884209D000F0E1
:1008800053F8222101600EB1012030604FF0FF3A91
:1008900003E02D2F08BFCAF1000A0DB1C5F8009082
:1008A000504605B0BDE8F08F00235BE730313233AE
:1008B0003435363738396162636465666768696AFA
:1008C0006B6C6D6E6F707172737475767778797A00
:1008D0000000000000002115110E0D0C0B0B0A0A80
:1008E0000909090909080808080808080707070787
:1008F00007070707070707070700000010B50446AA
:10090000DFF80C0000F04CF850F8240010BD000097
:1009100060000020A0F10901052901D3202801D1A0
:100920000120704700207047014800F039B80000EE
:100930005400002010B504460120FFF7DFFF2046D9
:10094000BDE8104000F02DB8C9B2830706D0521E92
:1009500022D310F8013B9942F7D11FE0083A13D394
:1009600002F1040241EA012141EA014150F8043B4D
:10097000121F21BF4B40A3F1013C2CEA030C1CF0D9
:10098000803FF3D0C9B2001F083210F8013B521E5D
:1009900028BF91EA030FF8D818BF0120401E704706
:1009A0007047A0F141011A2938BF20307047FEE797
:1009B00040B2002805D44901DFF8D82240B21154D2
:1009C00007E04901B44A40B210F00F00104400F8AB
:1009D000041C704780B5411EB1F1807F01D3012016
:1009E0000EE0401EAD49086007215FF0FF30FFF7C1
:1009F000DFFF0020AA4908600720AA4908600020FC
:100A000002BDA94800684FF6F07108404CF2302151
:100A100088420BD1A548006830F08050A349086097
:100A2000A248006850F08050A0490860A0480068C3
:100A3000A049401A26D0A049401A1FD09F49401A09
:100A400016D04FF48151401A14D0363818D041F6E0
:100A5000CA71401A10D0801F0ED09949401A13D085
:100A6000801E13D09749401A12D0463812D013E096
:100A7000042012E0012010E002200EE003200CE030
:100A800008200AE0092008E0062006E0072004E02C
:100A9000052002E00A2000E00020704770B58A4C73
:100AA0008A4BC0F30315022D1ED110F00F0F01D198
:100AB000874C00E0844C10F4704F0BD110F4702F71
:100AC00008D010F47024B4F5803F01D1814C13E0BC
:100AD000814C11E0C0F303356D1C6C43C0F303255A
:100AE0006D1CB4FBF5F407E0C0F30315032D03D12F
:100AF00049F6404442F21073784D2D6835F01805E0
:100B0000764E3560754D2D6855F00105734E356094
:100B1000734D2D6815F00305022DF9D10514052D2F
:100B200080F283806F4D2D6855F010056D4E356055
:100B30006C4D2D68ED08ED006A4E3560694D2D68ED
:100B400055EA2045674E356010F00F0F6ED1664DA7
:100B50002D6855F00105644E3560634D2D68AD0775
:100B6000FBD5624D2D686D086D00604E3560604D9F
:100B7000AC420BD34D4D2D6855F080554B4E356032
:100B80005C4D2D6855F440455A4E3560C0F3031551
:100B9000022D1FD1554D2D68574E3540534E3560AF
:100BA000524D2D68060116F4702635434F4E3560C0
:100BB0004E4D2D68060216F4702635434B4E3560B7
:100BC000494D2D6855F08075474E3560464D2D686E
:100BD000AD01FBD5494D2D68484E3560474D2D6818
:100BE000464E3560454D2D68444E3560434D2D6869
:100BF000C0F301163543414E3560404D2D68C5F3B5
:100C00008105C0F30316B542F7D1C9B2002933D02C
:100C10001000002801D03A480260B4FBF3F04FF412
:100C20007A714843FFF7D6FE2CE0FEE710F00F057F
:100C3000012D10D12C4D2D6855F480352A4E35608C
:100C4000294D2D68AD03FBD5284D2D6855F00105C4
:100C5000264E35608BE710F00F05022D0BD1294D84
:100C60002D6855F00105274E35601F4D2D68AD07E5
:100C70003FF57DAFF9E7FEE70A480068400840000D
:100C8000084908605FF000601F490860FFF7B9FE7F
:100C900070BD000000E400E018ED00E014E000E0AA
:100CA00018E000E010E000E000ED00E0301002404D
:100CB00080700040D15043CCE00F0100C00F120003
:100CC000AEDF31005A20120000127A0040420F00BD
:100CD000001BB700006CDC0200A24A040060014067
:100CE0000460014000200240001002404810024011
:100CF00001D8B80500700040FFF880FF04100240E2
:100D0000384100203810024008ED00E010B54FF4E3
:100D1000805100229F4C200000F060F900209E4985
:100D2000086000209C4948604FF480509A498860D0
:100D300098489949C86010BD974800689649496825
:100D4000884201D1012000E00020C0B270479248E3
:100D50004068401C90498968884202D38E4989685E
:100D6000401A8D490968814201D1012000E000202C
:100D7000C0B2704710B50400FFF7E9FF002802D0A9
:100D8000864800F05FF98448C06883494968445444
:100D900081484068401C804948607F4840687E49DF
:100DA0008968884206D37C4840687B498968401A34
:100DB0007949486010BD80B5FFF7BEFF002802D01A
:100DC000774800F03FF97448C06873490968405C8F
:100DD00071490968491C704A11606F4909686E4A77
:100DE0009268914206D36C4909686B4A9268891AE5
:100DF000694A1160C0B202BD10B584B004006846F3
:100E000000F066F900946946664800F02DF91FBDB0
:100E100080B5FFF77BFF5FF4E13000F004FA624831
:100E200000F010F901BD012060490870704780B5DD
:100E300002215C4800F074F900280CD002215948C6
:100E400000F077F95A4800685A4908605948006824
:100E5000C0B2FFF78FFF0121524800F061F900286E
:100E60005FD0FFF769FF002856D1FFF7A4FF514973
:100E700008605148006840F6FF71884202D30020A4
:100E80004D4908604B4800687B2802D100204A4940
:100E90000860484800684949474A126888544648EB
:100EA0000068401C44490860424800687D282BD1F6
:100EB00041480068002827D0002040493E4A126877
:100EC00088543C48007800F0FF01364800F023F9D0
:100ED0003B4A3C49394800F0AFF9002803D00120D3
:100EE0003949087002E00020374908702E4933481C
:100EF00000F0B4F9002803D101203449087010E053
:100F00000020324908700CE02A48007800F0FF0108
:100F1000244800F000F904E000220121214800F0FB
:100F2000ECF801BD80B5002201212948FFF7B6FD8C
:100F300000F0DEF91BE0002201211A4800F0DDF884
:100F400021480078002812D022480068C007FBD54D
:100F50001B480068FFF750FF322000F01DFA002800
:100F6000FAD01D4800F06EF80020174908701748A5
:100F70000078002804D0002014490870FFF748FFCB
:100F8000FFF7DAFE0028D6D101220121054800F042
:100F9000B4F8D5E7D02000202041002094190008A3
:100FA0008419000800380140C41900083F4100209E
:100FB000043801403041002034410020D03000206E
:100FC00010000020A01900083E410020CC000020A5
:100FD0002180020008380140AC19000862F30F229A
:100FE00062F31F42401810F0030308D0C91A1FD340
:100FF000DB0748BF00F8012D28BF20F8022D1300A1
:1010000030B414461546103928BF20E93C00FAD800
:10101000490728BF20E90C0048BF40F8042D89008B
:1010200028BF20F8022D48BF00F8012D30BC7047C2
:10103000C91818BF00F8012DCB0728BF00F8012DF3
:101040007047FEE70EB400B582B003A900910246D6
:101050006B460121034878440A3000F0CBF906BC06
:101060005DF810FBFD08000038B504000D000020FD
:10107000E06930F0300029790843E061E0698008D8
:101080008000A9790843E061A06930F0180029893F
:101090000843A061A06930F00400A97A0843A06168
:1010A0000A48844202D300F091FA01E000F081FA8C
:1010B0002968B0FBF1F1090921622968B0FBF1F060
:1010C00010F00F00606231BD000000000000014020
:1010D0004FF416510160302101710021417100214E
:1010E0008171182101810021817270478269520843
:1010F0005200C9B2114381617047D2B2002A04D0B4
:10110000026989B21143016104E0026989B232EADD
:1011100001010161704789B201F0FF010160704770
:10112000C06889B2084201D0012000E00020C0B2AE
:10113000704789B24161704710B504002E480068BD
:10114000C007FBD514F0FF012C48FFF7E4FF200097
:1011500010BDE0B54FF4827000F0E4F85FF4E130C8
:10116000009030208DF8040000208DF8050000204C
:101170008DF806001820ADF8080000208DF80A0050
:1011800069461E48FFF770FF012202211B48FFF746
:10119000B4FF01211948FFF7A9FF07BD80B54FF43F
:1011A000007000F0BFF84FF40070ADF800000120AF
:1011B0008DF8020018208DF803006946104800F0F1
:1011C0008EFA072209210E4800F0DEFA4FF4806003
:1011D000ADF8000001208DF8020048208DF80300D2
:1011E0006946074800F07BFA07220A21044800F00C
:1011F000CBFA01BD00000000083801400038014072
:101200000000044080B525208DF8000001208DF8F5
:10121000010001208DF8020001208DF803006846CE
:1012200000F0C8FA01BD80B5FFF7B8FFFFF791FFE6
:10123000FFF7E8FF01BDFEE70DB400B582B004A8DA
:1012400000900A466B4603A9034878440A30FEF72B
:10125000ACFF06BC5DF810FBEFF4FFFF820707D080
:1012600010F8012B11F8013BBAB19A42F6D014E004
:1012700002680B689A42A2F1013301BF934313F055
:10128000803F50F8042F51F8043FF3D010F8012BA1
:1012900011F8013B0AB19A42F8D0D01A7047FEE724
:1012A00040B2002804D44901184A40B2115407E062
:1012B0004901174A40B210F00F00104400F8041C16
:1012C000704780B5411EB1F1807F01D301200EE04F
:1012D000401E1049086007215FF0FF30FFF7E0FF74
:1012E00000200D49086007200C490860002002BD5D
:1012F00080B50B48FFF7E5FF002800D0FEE700218E
:101300005FF0FF30FFF7CCFF01BD000000E400E01C
:1013100018ED00E014E000E018E000E010E000E06C
:101320004019010080B500B2011210F01F00C9B2CF
:10133000062930DAC9B2002906D10121012212FAA8
:1013400000F000F0A0F926E0C9B2012906D1012180
:10135000012212FA00F000F082F91CE0C9B2022961
:1013600006D10121012212FA00F000F03CF912E04E
:10137000C9B2032906D10121012212FA00F000F0BE
:1013800046F908E0C9B2042905D10121012212FA67
:1013900000F000F050F901BD0E490988002903D181
:1013A0000C490880002070470B4800780028F9D0CD
:1013B00000200949087007480088002804D0054823
:1013C0000088401E03490880024800880028E9D1AF
:1013D0000120E8E73C4100203F41002070B5044671
:1013E0001E000846154604D015F8011BA047761EBE
:1013F000FAD170BD2DE9F04683B082468946144685
:101400001F4607E00123224649465046FFF7E6FF04
:101410008146641C2078010003D1002003B0BDE8A0
:10142000F0862528EED16078A41C2528014618D026
:1014300058285CD063280ED0642818BF692814D0BF
:101440006F2854D0702858D073285DD0752818BFE5
:1014500078284CD0DEE73868386050F8041B3860D4
:10146000C9B24846D0478146D4E73868386050F85A
:10147000045B3860002D03D52D214846D0478146B6
:1014800064206F2808BF082205D040F02001782989
:1014900014BF0A2210220B216428AC4603D1002D70
:1014A00048BFCCF1000CBCFBF2F502FB15CC0CF1F3
:1014B00030065FFA86FC4B1EBCF13A0FA4BFA0F1C8
:1014C0005106B4440DF803C019465FEA050C01D07B
:1014D0000129E8DA4846D1F10B090DEB0105C2D02C
:1014E00015F8011BD047B9F10109F9D1BBE73968FB
:1014F000396051F8045B3960C3E73868386050F8E8
:10150000045B38607820BCE73868386050F8045BCA
:101510003860284600F086F906004846A3D015F842
:10152000011BD047761EFAD19DE7FEE7DFF8800168
:10153000006810F00C00042806D0082807D00C28FA
:1015400027D149F6404026E0DFF8700123E0DFF8BC
:1015500064010068C0070AD5DFF8580100688007F9
:1015600002D5DFF85C0104E0DFF8500101E0DFF8AC
:101570004C01DFF840110968C1F30641491CDFF84E
:1015800034211268C2F30222521C4843B0FBF2F02D
:1015900001E0DFF82801704780B5FFF7C7FFDFF8EB
:1015A0002411DFF814211268C2F30312895CC840C9
:1015B00002BD80B5FFF7F0FFDFF80811DFF8F82073
:1015C0001268C2F30222895CC84002BD80B5FFF7F1
:1015D000E3FFDFF8F010DFF8E0201268C2F3C22268
:1015E000895CC84002BDC9B2002907D0DFF8D81015
:1015F00009680843DFF8D010086007E0DFF8C8107A
:10160000096831EA0000DFF8C01008607047C9B20D
:10161000002907D0DFF8B41009680843DFF8AC10E0
:10162000086007E0DFF8A410096831EA0000DFF87D
:101630009C1008607047C9B2002907D0DFF89010ED
:1016400009680843DFF88810086007E0DFF87C10BD
:10165000096831EA0000DFF8741008607047C9B209
:10166000002907D0DFF86C1009680843DFF8641020
:10167000086007E0DFF85C10096831EA0000DFF875
:10168000541008607047C9B2002907D0DFF848102D
:1016900009680843DFF84010086007E0DFF83810F9
:1016A000096831EA0000DFF8301008607047000078
:1016B00004100240481002400410024000127A0058
:1016C00000093D00000000202810024024100240C4
:1016D000201002402C100240301002407047F8B534
:1016E00004000D002748844202D1FFF7F7FFFFE70F
:1016F000E87810F00F00E978C90601D5A978084309
:10170000210000230FE0DBB29A002E8801279F40C2
:101710003E4207D00E680F279740BE4310FA02F2F0
:1017200032430A605B1CDBB2082BECDB211D2A88EC
:1017300092B2130A9BB2002611E0F6B2B2001F006B
:10174000F740FF070AD50F685FF00F0C1CFA02FC88
:1017500037EA0C0710FA02F23A430A60761CF6B236
:10176000082EEADBE878282804D160692988084334
:10177000606106E0E878482803D120692988084399
:101780002061F1BD0008044010B411F00703DBB282
:101790009B00C9B2082901DA203000E0243001683A
:1017A0000F249C40A143D2B29A401143016010BC67
:1017B0007047FEE710B4C17800291ED015490968AA
:1017C000C1F3022191F007014278D1F104039A405C
:1017D00083780F240C4114EA0301114309010E4AD6
:1017E0000378D1540121027812F01F0291400B4A74
:1017F0000078401142F8201009E00121027812F02F
:101800001F029140064A0078401142F8201010BC97
:10181000704700000CED00E000E400E000E100E0B3
:1018200080E100E000F10103810704D010F8011B02
:1018300089B18107FAD10268B2F10131914311F007
:10184000803F04BF50F8042FF6E710F8011B11B1D8
:1018500010F8011BFBE7C01A704719E050F8041B91
:10186000CB0744BFA9F101035918121F0023042A12
:1018700041F8043BF9D25FEA827C0B4604D54FF075
:10188000000CA1F800C09B1CD10744BF00211970B7
:1018900050F8042B002AE1D1704730B50168426846
:1018A0008468014401EB5203D20748BF4C4499427B
:1018B00001D10C3030BD11F9012B11F8015B002A68
:1018C00004F8015B02D5521CF9D1F0E7521EF4D5A1
:1018D000EDE7FEE710B5074979441831064C7C4422
:1018E000163404E00A68081D114488470146A142E5
:1018F000F8D110BD08000000240000005FFFFFFFCA
:1019000070200000D0200020000000008FFFFFFFAB
:101910003A010000720000000000002000F00BF807
:10192000002801D0FFF7D6FF0020AFF30080FFF7BB
:10193000F9FA00F002F80120704700F001B8FEE764
:101940000746384600F002F8FBE7FEE780B5AFF344
:101950000080024A11001820ABBEFBE726000200FF
:1019600038B504460D46284600F006F8A84218BFD0
:101970000024204632BDFEE70149FFF7DDBB00BF72
:1019800014000020517565756520656D7074790AC5
:101990000000000051756575652066756C6C0A0065
:1019A0007B626175643A25647D0000007B63686139
:1019B0006E67657D00000000AFF30080AFF300802C
:1019C000FFF7ACFF7B696E69747D000080B5FFF79F
:1019D000F3FFFEE7FEE7FEE7FEE7FEE7FEE7FEE7D2
:1019E000FEE7FEE7FEE7FEE7FEE7FEE7FEE7FEE7CF
:1019F000FEE7FEE7FEE7FEE7FEE7FEE7FEE7FEE7BF
:101A0000FEE7FEE7FEE7FEE7FEE7FEE7FEE7FEE7AE
:101A1000FEE7FEE7FEE7FEE7FEE7FEE7FEE7FEE79E
:101A2000FEE7FEE7FEE7FEE7FEE7FEE7FEE7FEE78E
:101A3000FEE7FEE7FEE7FEE7FEE7FEE7FEE7FEE77E
:101A4000FEE7FEE7FEE7FEE7FEE7FC002F010203EC
:101A500004010203040607080900C2010002040190
:101A600001D040002020410020D0400020D0400084
:101A700020D040002051000020380000208100E7E5
:031A800000000162
:04000005080019B91D
:00000001FF
