:040000050800C1919D
:020000040800F2
:10C00000D8580020C9C30008D1C30008CFD8000801
:10C01000D5C30008D7C30008D9C300083AFBFAAF5C
:10C020008F9E939B70324D4DB9830300DDC2000893
:10C03000DDC300082C7C010865C30008B5C30008F7
:10C04000E3C30008E3C30008E3C30008E3C3000838
:10C05000E3C30008E3C30008E3C30008E3C3000828
:10C06000E3C30008E3C30008E3C30008E3C3000818
:10C07000E3C30008E3C30008E3C30008E3C3000808
:10C08000E3C30008E3C30008E3C30008E3C30008F8
:10C0900000000000E3C3000800000000E3C3000844
:10C0A000E3C30008E3C30008E3C30008E3C30008D8
:10C0B000E3C30008E3C30008E3C30008E3C30008C8
:10C0C00000000000E3C3000800000000E3C3000814
:10C0D000E3C30008B5E70008E3C30008E3C30008B2
:10C0E000E3C30008E3C30008E3C30008E3C3000898
:10C0F000E3C30008E3C30008E3C30008E3C3000888
:10C1000000000000E3C30008E3C30008E3C3000825
:10C11000E3C30008E3C30008E3C30008E3C3000867
:10C12000E3C30008E3C30008E3C30008E3C3000857
:10C13000E3C30008E3C300080000000000000000A3
:10C14000E3C30008000000000000000071DA0008EE
:10C15000000000000000000000000000E3C3000831
:10C1600000000000000000000000000000000000CF
:10C1700000000000000000000000000000000000BF
:10C180000000000000000000E3C30008E3C3000853
:10C1900000F002F800F05AF80AA090E8000C82447F
:10C1A0008344AAF10107DA4501D100F04FF8AFF25C
:10C1B000090EBAE80F0013F0010F18BFFB1A43F085
:10C1C0000103184770D2000090D200000A444FF0DB
:10C1D000000C10F8013B13F0070408BF10F8014BE6
:10C1E0001D1108BF10F8015B641E05D010F8016B2B
:10C1F000641E01F8016BF9D113F0080F1EBF10F88F
:10C20000014BAD1C0C1B09D16D1E58BF01F801CBB1
:10C21000FAD505E014F8016B01F8016B6D1EF9D534
:10C220009142D6D370470000002300240025002649
:10C23000103A28BF78C1FBD8520728BF30C148BF89
:10C240000B6070471FB51FBD10B510BD00F0CCFAD4
:10C25000114603B404F06CFF03BCFFF7F3FF06F0D4
:10C2600065FE00F0E6FA03B4FFF7EEFF03BC00F052
:10C27000E9FA000080F309887047EFF309807047FE
:10C28000684680F3098804480078C00714BF02207C
:10C29000032080F31488704754860108DFF818C023
:10C2A000EFF305831B0618BF6047EFF31483DB072A
:10C2B00008BF604700DF7047713E0108DFF818C013
:10C2C000EFF305831B0618BF6047EFF31483DB070A
:10C2D00008BF604700DF70477D400108EFF3098029
:10C2E000816911F8021C39BB90E80F10E047EFF3A9
:10C2F000098C194B93E80600914218D059B10CB43F
:10C300004FF0010381F821302CE9F00FC1F824C06F
:10C3100008F048F90CBC1A60D2F824C0BCE8F00F51
:10C3200092F821308CF309881BB192F82000CCF8E8
:10C3300000006FF0020E704710B5084A1268914273
:10C3400009D8074C54F8214090E80F10A047EFF3AC
:10C35000098C8CE80F0010BDF004002054C80008C0
:10C3600054C8000808F00AF8114B93E806009142FF
:10C370001BD00CB44FF0000381F82130EFF3098C8F
:10C380002CE9F00FC1F824C008F00CF90CBC1A60BD
:10C39000D2F824C0BCE8F00F8CF3098892F8213061
:10C3A0001BB192F82030CCF800306FF0020E7047CD
:10C3B000F004002008F0B8F9D6E7000007F046F8CE
:10C3C00008F0B2F9D0E70000094880470948004763
:10C3D000FEE7FEE7FEE7FEE7FEE7FEE7FEE7FEE735
:10C3E000FEE7FEE704480549054A064B7047000092
:10C3F000EDE5000891C10008D8520020D85800206F
:10C40000D8540020D85400200048704774520020AF
:10C4100040EA010310B59B070FD1042A0DD310C8C1
:10C4200008C9121F9C42F8D020BA19BA884201D913
:10C43000012010BD4FF0FF3010BD1AB1D30703D05B
:10C44000521C07E0002010BD10F8013B11F8014B11
:10C450001B1B07D110F8013B11F8014B1B1B01D12D
:10C46000921EF1D1184610BD10B5431C02E010F821
:10C47000011B71B18107FAD14FF0013202C88C1A49
:10C480008C4314EAC211F9D0C01A0A0603D0C01EA8
:10C4900010BDC01A10BD0A0401D0801E10BD0902D3
:10C4A000FCD0401E10BD40EA010370B59B072ED1A1
:10C4B0004FF00136042A2AD308C810C99D1B9D439A
:10C4C000121F15EAC61517D0D8B2E1B2401A50EAC9
:10C4D000056110D198B2A1B2401A50EA05410AD1C3
:10C4E00023F07F4024F07F41401A50EA052102D119
:10C4F000180EA0EB146070BDA342DBD018BA21BAAD
:10C50000884201D9012070BD4FF0FF3070BD0AB9DB
:10C51000002070BD10F8013B11F8014B63B1A3423C
:10C520000AD1521E08D010F8013B11F8014B1BB183
:10C53000A34201D1521EEDD1181B70BD421E12F84C
:10C54000013F002BFBD111F8013B002B02F8013B0E
:10C55000F9D17047032A40F2308010F0030C00F04C
:10C56000158011F8013BBCF1020F624498BF11F82D
:10C5700001CB00F8013B38BF11F8013BA2F10402E6
:10C5800098BF00F801CB38BF00F8013B11F003035E
:10C5900000F06780083AC0F0088051F8043B083A80
:10C5A00051F804CBA0E80810F5E7121D5CBF51F864
:10C5B000043B40F8043BAFF30080D20724BF11F8DE
:10C5C000013B11F801CB48BF11F8012B24BF00F843
:10C5D000013B00F801CB48BF00F8012B7047431A1C
:10C5E00028BF9A427FF6B6AF032A1044114440F2A6
:10C5F000268010F0030F1EBF11F8013D521E00F8F7
:10C60000013D10F0030F7FF4F6AF11F0030300F0CB
:10C61000C180083AC0F00B8051F8043D083A51F847
:10C6200004CD40F8043D40F804CDFFF7F3BF121DE0
:10C630005CBF51F8043D40F8043DAFF30080D207E1
:10C6400024BF11F8013D11F801CD48BF11F8012CAC
:10C6500024BF00F8013D00F801CD48BF00F8012CCF
:10C66000704710B5203AC0F00B80B1E81850203A5E
:10C67000A0E81850B1E81850A0E81850BFF4F5AF82
:10C680005FEA027C24BFB1E81850A0E8185044BF0C
:10C6900018C918C0BDE810405FEA827C24BF51F879
:10C6A000043B40F8043B08BF7047D20728BF31F86D
:10C6B000023B48BF11F8012B28BF20F8023B48BFBE
:10C6C00000F8012B704702F0FF0343EA032242EA1D
:10C6D000024200F002B84FF000020429C0F01280BC
:10C6E00010F0030C00F01B80CCF1040CBCF1020F25
:10C6F00018BF00F8012BA8BF20F8022BA1EB0C01FA
:10C7000000F00DB85FEAC17C24BF00F8012B00F8EF
:10C71000012B48BF00F8012B70474FF0000200B515
:10C72000134694469646203922BFA0E80C50A0E854
:10C730000C50B1F12001BFF4F7AF090728BFA0E802
:10C740000C5048BF0CC05DF804EB890028BF40F8CE
:10C75000042B08BF704748BF20F8022B11F0804F10
:10C7600018BF00F8012B7047704770477047431A95
:10C7700028BF9A427FF675AF104410F0030F1144A2
:10C780001EBF11F8013D521E00F8013D10F0030FCD
:10C790007FF4F6AF103AC0F00A8010B531E91850B6
:10C7A000103A20E91850BFF4F9AFBDE81040530724
:10C7B00024BF31E9081020E9081044BF51F8043DB6
:10C7C00040F8043D12F0030F08BF7047D20728BF9E
:10C7D00031F8023D48BF11F8012C28BF20F8023D76
:10C7E00048BF00F8012C70477546FFF70DFEAE46B6
:10C7F00005006946534620F00700854618B020B56D
:10C80000FFF7F0FDBDE820404FF000064FF00007B5
:10C810004FF000084FF0000B21F00701AC46ACE8E8
:10C82000C009ACE8C009ACE8C009ACE8C0098D4655
:10C83000704710B50446AFF300802046BDE81040B5
:10C84000FFF711BD01491820ABBEFEE7260002002C
:10C8500070470000000000000029416802D041F04C
:10C86000010101E021F001014160704740690129A7
:10C8700002D0C0F340007047C0F3000070470000D2
:10C88000426844F2F0339A434260D1E900321A43DD
:10C8900043681A4342608268054B1A40826082688E
:10C8A0004B691A430B6989680B431A4382607047CE
:10C8B0008FF1F9FF30B40F2403F00F0308290BD9CF
:10C8C000456F01F00F02083A9440A5434567446F55
:10C8D00093401C43446707E0026F8C40A243026709
:10C8E000026F8B401A430267C36801228A40934358
:10C8F000C360C3681343C360480401D4080403D56C
:10C9000030BC012000F014B830BC704700298168A9
:10C9100002D041F4807101E021F4807181607047A0
:10C9200000210160416081600173016141617047D4
:10C9300005490028086802D040F00C0001E020F012
:10C940000C000860704700000424014000210148E9
:10C9500001F0A4BE000800400121014801F09EBE84
:10C960000008004010B5104CE088411CE180002810
:10C9700015D00020E08004F0CBFDA07080B1E078FD
:10C9800070B1C0F105012079C840C00702D0FFF79F
:10C99000E3FF01E0FFF7DAFFE078401EE07010BD32
:10C9A000BDE81040FFF7D2BFE00200202DE9F041C2
:10C9B00004780E46012564B1012C0BD000241748E1
:10C9C000174905700520087034704FF00110BDE85C
:10C9D000F08101241348144F05702020786105214F
:10C9E000384606F0B7FE802038610721384606F049
:10C9F000B1FE01220621384606F052FE0B480560C2
:10CA00000421384606F0A6FE1020386107480122AE
:10CA10001146103806F044FED1E70000E402002081
:10CA2000E30200202C060020000004401004044013
:10CA30002DE9F04102787F2A03D0BDE8F04100F0F3
:10CA40008DB801F8012B447801F8014B861C0D4686
:10CA50004FF0021708E02946304600F07FF80744FF
:10CA600006EB104680B20544641EF4D23846BDE899
:10CA7000F081000070B500240B462546092849D0F6
:10CA80000ADC314A092811695BD2DFE800F05A1547
:10CA90005A1F232A2F3539004021FC2851D004DCAD
:10CAA000F0283DD0F1284CD13DE0FD2849D0FE28AA
:10CAB00045D0FF2845D13EE024A00B240168196031
:10CAC00041685960008918819D723AE01C4606F061
:10CAD00043F822E0062422461F491846FFF73AFD94
:10CAE0002FE01846A1B1D1F8A41103E0184679B19E
:10CAF000D1F8A81141B90BE01846D2F8BC10F9E7FB
:10CB00001846D2F8C010F5E707F098F9044618E087
:10CB1000002416E00C4606F027F801462046F3E70D
:10CB2000312018700CE01970422058700F20987056
:10CB3000DD70042405E019705D70022401E01970B5
:10CB40000124204670BD00002C7C01084D696E64F4
:10CB50004D6F74696F6E0000F07C01082DE9F84F8D
:10CB60000278A2F180031F2B03D800F02FF9BDE853
:10CB7000F88FA2F1A0035E2B02D800F0BFF9F6E710
:10CB80000A704C1C10F801CB00250226DFF8189221
:10CB9000FF21864B864ADFF81CA24FF0010B4FF0B5
:10CBA0000117BCF11E0F79D2DFE80CF00F17262A0F
:10CBB000A3ACC7FAE33E4DFAFAFAFAFA535768798A
:10CBC000879DA0FAFAFAFAFAFA830078611CFFF757
:10CBD00051FF207000F10210C9E7027822B1012A4A
:10CBE0002FD021701846C9E04078C007484601D0D0
:10CBF000466126E0066124E02146FFF7D7FEBDE04E
:10CC00001570002205214E46484606F049FD0022D7
:10CC10000721304606F044FD00220621304606F08A
:10CC20003FFD25705846A9E001886348634A0068C3
:10CC3000B0FBF2F00322801CB0FBF2F04843401E30
:10CC4000FDD12570CEE75E495E4808F077FE65703D
:10CC50000FE0214600F062FC90E086780388C078FF
:10CC600066F31F43584E53EA006005D0906001F010
:10CC70009FFC2570304681E02170FBE710F8016BC6
:10CC80000EB94FF480760146304601F063FCF61D84
:10CC90002570F008000400F101106FE080E00078DA
:10CCA00000F00301491C1177C0F380005077257014
:10CCB0001DE0214600F094F960E021700122144645
:10CCC00010F8013B0AE010F8011B11F03F0100D100
:10CCD0004021C91DC9080A440844521C5B1EF2D2F7
:10CCE00044EA02404AE000782170D3E721703846D8
:10CCF00044E001781174B0F801109182B0F803009B
:10CD0000D0824BE012782146012A13D00646401CFF
:10CD100010F8012B42B110F8013B9C0701D5DB064E
:10CD200000D5001D521EF6D1801B0D7000044D7001
:10CD3000801C23E000F08EF920E0064610782146A2
:10CD4000012809D00D704D70A5700321F07880077F
:10CD500007D541F4802011E0304600F047FB014642
:10CD6000F4E7B6F801004FF4802202EB804008435C
:10CD700004E01278012A04D02170504600F101101D
:10CD8000F5E6C278B0F80110007962F31F4141EA7C
:10CD9000006000906946002001F0FEF82570ECE785
:10CDA00004F8011C3846E2E60000044001000200DD
:10CDB0002C060020010005000803002040420F005F
:10CDC0000400FA050CED00E0010004002DE9FC4729
:10CDD000027801F8012B0D464FF0011410F8011BE9
:10CDE00000226700803906464FF0010804F101096E
:10CDF0000E2975D2DFE801F007141F2E3C747474FD
:10CE000047535D62667705F0A7FE0646FFF72CFBE9
:10CE1000C4B22C70681C22463146FFF79BFB23E00E
:10CE20000724684601F022FF224669462846FFF79C
:10CE300091FB304C54E0684601F018FF30680090D8
:10CE4000684601F033FF002001F0A6FF85F800805E
:10CE5000294C45E03E21681C09F0E0F9040002D0AD
:10CE6000012006F079F82C7004F58034A41C37E01A
:10CE70003778701C394609F04DFA012006F06CF83D
:10CE800085F8008028E085F80080307820B10128FE
:10CE900002D02A703C4623E006F0EEF9FAE785F866
:10CEA000008004F025FB10B9022008F05BFF4C461F
:10CEB00016E0307807F0D6FE2870EBE707F0A0FE0A
:10CEC0002870F4E716F8017B012006F055F8394682
:10CED000304607F069FF287004EB074404F10114A1
:10CEE0002046BDE8FC872A70307800B1012005F0AB
:10CEF0009DFBCFE70900010002000500FF2008703C
:10CF00004FF001107047000010B50121084600F0F5
:10CF100091FE0121022000F08DFE0121042000F08D
:10CF200089FE0121082000F085FE0121880300F020
:10CF300099FE294C2020606100220521204600F046
:10CF4000B2FC0521204606F005FC8020206100226D
:10CF50000721204600F0A7FC0721204606F0FAFB37
:10CF600000220621204600F09EFC012206212046D8
:10CF700006F096FB1020206100220421204600F0DC
:10CF800092FC0421204606F0E5FB144C002201210E
:10CF9000204600F088FC01221146204606F080FB66
:10CFA0000E4A01211432116000221146204600F081
:10CFB0007AFC0021204606F0CDFB084821151030F0
:10CFC000016000220A21204600F06DFC2046BDE8E9
:10CFD00010400A2106F0BEBB0000044000040440DB
:10CFE0002DE9F05F002201F8012B012510F8018BDB
:10CFF0008A46A9460446AB4623E014F8017B17F0A5
:10D000003F0000D14020C01DC6083806584601D553
:10D010000F4901E00E49091F086052462146384673
:10D0200000F056FFB8F1000F03D10949091FC1F8FC
:10D0300000B0380602D5B244B14401E0344435446E
:10D040006D1CB8F10108D8D249EA0540BDE8F09F4F
:10D05000140404402DE9F04F87B0054605900020E8
:10D06000DFF880A3CDE901018C1C8AF80000039051
:10D070006978AD1C07465FEA010871D015F8016BAD
:10D08000B1076ED5F7B3DFF860B306F011000128E1
:10D09000BBF8149007D0574669460E2000F07CFF7D
:10D0A00002280ED013E06946304600F075FF0228D2
:10D0B0000ED1B9F1010903D39AF800100029F2D07A
:10D0C00040E1B9F1010902D339780029E4D0002701
:10D0D0000128F5D1009904F8011B0099090A04F808
:10D0E000011B0099090C04F8021B0099090E04F8B1
:10D0F000011C3FB131060ED5DBF80C1004F8011B02
:10D100000A0A00E007E004F8012B0A0C04F8022BDD
:10D11000090E04F8011CF10652D5A97835F8030B65
:10D1200061F31F4015F8011B40EA01600490AE480E
:10D13000B0F816B0F00715D0AB48B0F81490002145
:10D14000304600F029FF022802D00128B8D109E0BA
:10D15000B9F10109B4D39AF800100029EFD0F1E039
:10D1600011E187E0A048B0F814906946304600F01D
:10D1700013FF022802D0012816D107E0B9F10109F6
:10D1800012D39AF800100029EFD00DE09649009ACA
:10D1900089691140049A914206D0BBF1010B03D377
:10D1A0009AF800100029DDD08F49009A8969114052
:10D1B000049A914201D040F01000012817D157E0A5
:10D1C000DFF824B2F107BBF8149022D007BB00218E
:10D1D000304600F0E1FE022802D0012807D107E026
:10D1E000B9F1010903D39AF800100029EFD0A9E0A2
:10D1F00031060CD5DBF80C1004F8011B0A0A04F800
:10D20000012B0A0C04F8022B090E04F8011C01275B
:10D210002EE06946304600F0BFFE022802D0012809
:10D2200007D107E0B9F1010903D39AF800100029EA
:10D23000EFD087E031060CD5DBF80C1004F8011BA9
:10D240000A0A04F8012B0A0C04F8022B090E04F850
:10D25000011C009904F8011B0099090A04F8011B3C
:10D260000099090C04F8021B0099090E04F8011C2E
:10D27000002159E01FB35C48B0F8149069460E20B5
:10D2800000F08AFE022802D001285BD107E0B9F144
:10D29000010957D39AF800100029EFD052E0009806
:10D2A00004F8010B0098000A04F8010B0098000C28
:10D2B00004F8020B0098000E04F8010C0027A9786E
:10D2C00035F8030B61F31F4015F8011B40EA0160BC
:10D2D0000090B10603D544498861012025E0DFF8BC
:10D2E00008B1BBF814906946304600F055FE02289C
:10D2F00002D0012826D107E0B9F1010922D39AF81A
:10D3000000100029EFD01DE031060CD5DBF80C1021
:10D3100004F8011B0A0A04F8012B0A0C04F8022B7A
:10D32000090E04F8011C012103910199491C019186
:10D330009AF8001031B9A8F101015FEA01087FF401
:10D340009DAE0CE0B8F1000F09D015F8011B8A075B
:10D3500001D5C90600D52D1DA8F10108F2E7012865
:10D3600032D10FB320485746868A69460E2000F016
:10D3700013FE022802D0012826D105E0761E23D311
:10D3800039780029F1D01FE0009904F8011B0099B9
:10D39000090A04F8011B0099090C04F8021B009902
:10D3A000090E04F8011C0FE0039969B10E485746B5
:10D3B000868A00210E2000F0EFFD022804D1761E9F
:10D3C00002D339780029F4D0DDE9011211700299F5
:10D3D00048700298211A059807B0281A41EA0040BF
:10D3E000BDE8F08F000000202C0600202DE9F84F4A
:10D3F0000026DFF82081054630468A46CF1C88F893
:10D400000060B5F80140ED1C002C77D015F8019BA9
:10D41000DFF804B15FEA89715FD55FEAC97139D07D
:10D42000BBF814500021484600F0B6FD022802D097
:10D43000012863D12EE06D1E60D398F800100029FA
:10D44000F0D05BE024B95FEAC97001D04FF00E095B
:10D45000BBF814506946484600F09EFD022802D0F1
:10D4600001284BD106E06D1E48D398F80010002922
:10D47000F0D043E0009907F8011B0099090A07F86A
:10D48000011B0099090C07F8021B0099090E07F807
:10D49000011C761C641ED5D230E0A97835F8030B48
:10D4A00061F31F4015F8011B40EA016000901A4823
:10D4B000B0F814806946484600F06EFD022802D09C
:10D4C00001281BD107E0B8F1010817D39BF8001021
:10D4D0000029EFD012E0761C00E0C346641EDCD2C7
:10D4E0000D485D46848A00210E2000F055FD02287B
:10D4F00004D1641E02D329780029F4D08AF8006090
:10D50000320A8AF801208AF80200A7EB0A00BDE877
:10D51000F88F0000000000202C0600202DE9F047C5
:10D520008A460578447802794188407962F31F4140
:10D5300041EA0066324FE00706D0E9074FF02000CD
:10D5400001D0386100E07861A00706D5A9074FF047
:10D55000800001D5386100E07861200607D5E80930
:10D56000C1074FF0100001D0386100E078614FF042
:10D5700000096EB32348864200D9064601F074F8CC
:10D580008046E00704D0F868C0F34010A84219D1E3
:10D59000A00705D5B868C0F38010B0EB550F11D1C6
:10D5A000600702D5B9EB950F0CD1A00602D5B9EBF7
:10D5B000551F07D120060BD5F86800F01000B0EB1E
:10D5C000D51F05D001F050F8A0EB0800B042D8D329
:10D5D000F868B968C0F34010C1F3801140EA410017
:10D5E0000949096801F0020140EAC100F968002117
:10D5F00040EAC1108AF800000448BDE8F087000046
:10D6000000000440C0C62D000804044001000600CC
:10D61000094910B500220A70084888600A7464231A
:10D620008B82CA8201238A610B774A7700F0C0FFA0
:10D63000BDE81040FFF768BC2C06002040420F00F8
:10D640002DE9F04100F580540546D4F880001E46CF
:10D650000F46002823D0402A00DD4022401E44F817
:10D66000800FA06805EB8010FEF774FFA06805EB43
:10D6700080113846FFF7DCF9A16805EB410101F59F
:10D6800080510880A06805EB80103060207A401C33
:10D6900000F03F00A0606068401C60600120BDE8B1
:10D6A000F08110B500F58053D3F88440CCB1641EEE
:10D6B000C3F8844053F88C4F00EB84140C6053F88B
:10D6C0000C1900EB410000F5805000881060187BB9
:10D6D000401C00F03F00D8601868401C1860012012
:10D6E00010BD002010BD002200F584504021826052
:10D6F000C260C0E90012704710B5044600F066F839
:10D70000204600F005F800F027F8002010BD0000CA
:10D7100006490A6942F002020A614861086940F05C
:10D720004000086140F6FF7000F05CB80020024045
:10D730000848C168C90701D001207047C16849077E
:10D7400001D502207047C068C00601D5032070478C
:10D7500004207047002002400248016941F0800126
:10D76000016170470020024004490A6822F010025B
:10D770000A600A6802430A60704700000020024005
:10D78000044A136943F00103136101800F2000F084
:10D7900029B800000020024030B50C46054689B289
:10D7A000FFF7EEFF042805D1210CA81CBDE830408E
:10D7B000FFF7E6BF30BD000003490A6822F0070208
:10D7C00002430A60704700000020024003480249FB
:10D7D00041600349416070472301674500200240D2
:10D7E000AB89EFCD00B50246FFF7A2FFFF21521E25
:10D7F000491EFDD1012801D1002AF5D10449002399
:10D800000B613423CB60002A00D1052000BD00004D
:10D81000002002402DE9F043CA7802F00F03D2063F
:10D8200001D58A781343002201274FF00F0C94068C
:10D83000240E0E8807FA02F52E4207D006680CFA6D
:10D8400004F5AE4303FA04F426430660521CD2B238
:10D85000082AECD30A88051D4FEA12280022B9468F
:10D860009406240E09FA02F616EA080F07D02E686D
:10D870000CFA04F7BE4303FA04F426432E60521C4C
:10D88000D2B2082AECD3CA78282A07D0482A03D172
:10D89000026909880A430261BDE8F0834269098888
:10D8A0000A434261F8E74B0710B5DB0E082901D2A5
:10D8B000203000E024300F249C4001689A40A143AE
:10D8C0001143016010BD416170470161704703F071
:10D8D00085FB00207047000030B587B0012104208F
:10D8E00000F0B4F94FF4D07005905F200024ADF83B
:10D8F0001000174DADF818408DF812408DF81A4001
:10D9000004A9284600F01CFF684600F00FFF7021B4
:10D910008DF8001001208DF80100D02001908DF8C5
:10D9200008406946284600F0CDFE0821284600F050
:10D93000F7FE0121284600F0BBFE0121284600F039
:10D94000A3FE00F007F8FFF701F807B030BD0000B4
:10D950000008004038B50121022000F06BF90C4DA1
:10D96000022208212846FFF79EFFAC1521462846D3
:10D97000FFF7A9FFADF8004001218DF80210182132
:10D980008DF8031069462846FFF744FF38BD0000B4
:10D99000000404401CB507F0ABFC00281BD09E20FF
:10D9A0008DF80000E7208DF801006946102000F096
:10D9B000D1FD07F09DFC00280DD000208DF800005F
:10D9C0006946082000F0C6FD01A9002007F024FCEC
:10D9D000012800D000201CBD10B5054C02212046B6
:10D9E000FFF773FF2046BDE810400121FFF76DBF30
:10D9F0000000044010B5054C02212046FFF763FFEC
:10DA00002046BDE810400121FFF75DBF0000044043
:10DA100070B5C27801780123EAB1144A12684478DB
:10DA2000D243C2F30222C2F10405AC4085780F262E
:10DA3000D64035402C4301F1E021220181F8002439
:10DA4000007800F01F018B404009800000F1E020C9
:10DA5000C0F8003170BD01F01F008340480980000C
:10DA600000F1E020C0F8803170BD00000CED00E056
:10DA70002DE9F00F4FF0A0470023D7F88000DFF822
:10DA8000DC80844601074CD5354C4FF0190A04F56B
:10DA9000D8694FF0080BD7F89000C0B20209C0F364
:10DAA000C001C0F3800552EA01061CD1960006EBC6
:10DAB0004101294414F83150C5F38305012D12D1D9
:10DAC00004EBC1056E8876B9244E1436B25C6A80C8
:10DAD00014F83120520601D5882200E0C82204F84B
:10DAE000312040F00100EFF3108272B6D8F8081030
:10DAF00009F80100491CB1FBFAF50AFB151082F385
:10DB00001088C8F80800C7F880B01BB9D7F894008F
:10DB1000800601D5012300E00023D7F8800001072B
:10DB2000B9D44CEA000CEFF3108172B60B4C0C34F4
:10DB3000226842EA0C0281F3108822600BB10121B5
:10DB400000E0002198F80020114388F80010C7F881
:10DB50008000BDE8F00F03F0ABB90000C004002066
:10DB60000024002010B5064C4FF480512046FFF7EA
:10DB7000AAFE2046BDE810404FF40051FFF7A5BEB5
:10DB80000004044010B5064C4FF400512046FFF746
:10DB90009AFE2046BDE810404FF48051FFF795BE35
:10DBA0000004044010B5064C4FF480512046FFF7A6
:10DBB0008AFE2046BDE810404FF40051FFF783BEB7
:10DBC0000004044010B503F0B3FC50B103F088FC2E
:10DBD00018B1BDE81040FFF7D5BFBDE81040FFF712
:10DBE000C1BFBDE81040FFF7DDBF70B515460C465C
:10DBF0000646FFF7EBFD0AE030462968FFF7CCFD4B
:10DC0000042801D0012070BD241F2D1D361D002CBD
:10DC1000F2D1FFF7A1FD002070BD0000044A0029E9
:10DC2000516A01D0014300E0814351627047000016
:10DC300000100240044A0029916A01D0014300E02B
:10DC4000814391627047000000100240044A00299D
:10DC5000116B01D0014300E0814311637047000064
:10DC600000100240044A0029D16A01D0014300E0BB
:10DC70008143D16270470000001002400C480168E7
:10DC800041F001010160416821F003014160016838
:10DC9000084A11400160816C074A114081640168A3
:10DCA00021F4802101600021416081607047000003
:10DCB00000100240FFFFF6FEFFF880FF01220B4933
:10DCC000B2EB501F01D1096806E00223B3EB501FED
:10DCD00001D1496B00E0896B00F01F0082401142C6
:10DCE00001D0012070470020704700000010024062
:10DCF00000B500F035F804494968044AC1F303113E
:10DD0000515CC84000BD000000100240F802002035
:10DD100000B5FFF7EDFF04494968044AC1F3022149
:10DD2000515CC84000BD000000100240F802002015
:10DD300000B5FFF7DDFF04494968044AC1F3C22179
:10DD4000515CC84000BD000000100240F8020020F5
:10DD50000248406800F00C007047000000100240CC
:10DD6000124A506800F00C011148042905D0114BEB
:10DD7000082906D00C2901D01846704749F64040C2
:10DD80007047916CC90704D0916C890702D50A4885
:10DD900000E01846916CC1F30643916C5B1CC1F323
:10DDA00002215843491CB0FBF1F0704700100240BB
:10DDB000001BB70000127A00808D5B0003494A689F
:10DDC00022F0F00202434A60704700000010024057
:10DDD00009490A6822F4A0220A60B0F5803F06D003
:10DDE000B0F5802F07D1086840F4802008600868EB
:10DDF00040F48030086070470010024003494A68D0
:10DE000022F4E06202434A607047000000100240C2
:10DE100003494A6822F4605242EAC00048607047F1
:10DE20000010024003490A6822F0807242EA006052
:10DE3000086070470010024030B589B00D460446B6
:10DE4000202209A16846FEF70CFC0F4A906C20F0D6
:10DE5000030020439064684600EB55404178007809
:10DE600000F014F809B030BD0703050107010901EE
:10DE70000B010D010F01110113011501170119010A
:10DE80001B011D011F01000000100240000440EAB8
:10DE900001210348826C034B1A401143816470478F
:10DEA00000100240FFF880FF03494A6822F0030295
:10DEB00002434A60704700000010024003494A686C
:10DEC00022F4400242EA805048607047001002404D
:10DED0002DE9F00110F03F0308BF402310F0800F40
:10DEE000DFF8ACC02B4D4FF020042AD0002B04BF2C
:10DEF000BDE8F001704700270826696810E0401E61
:10DF0000FDD1DCF80800CCF81040C0F380180846BA
:10DF1000401EFDD178085B1E40EAC817761E05D06A
:10DF2000002B1CBFCCF814400846E8D1CCF81440B4
:10DF300027FA06F002F8010B002BDCD1BDE8F00156
:10DF40007047002B1CBF80276A681CD011F8015B4A
:10DF5000082613E0E80714BFCCF81070CCF8147052
:10DF6000CCF814401046401EFDD1CCF810401046AD
:10DF7000401EFDD16D085B1E761E02D0002BE9D13C
:10DF800001E0002BE2D1CCF81440BDE8F00170476D
:10DF9000000004402C060020034A52780AB100F029
:10DFA00005B800F019B900002C0600202DE9F00F8B
:10DFB000824C4FF08008C4F81080202565612561EF
:10DFC000C20714BFC4F81080C4F8148065612561CD
:10DFD00043085FEAC37C14BFC4F81080C4F81480FF
:10DFE00065612561820803445FEAC27C14BFC4F8FE
:10DFF0001080C4F81480656125611344C2085FEA8B
:10E00000C27C14BFC4F81080C4F814806561256117
:10E010001A44D20714BFC4F81080C4F81480656194
:10E020002561C4F8148065612561C4F810806561BC
:10E030002561634A4FF00109C2F80090DFF884A11E
:10E040009AF81C30B3F1000C03D0656125615B1EAA
:10E05000FBD16561A2682561C2F380126561A36886
:10E060002561C3F3801342EA43036561A268256119
:10E07000C2F3801243EA8202DFF84CB1012A0DD0CC
:10E08000022A18BF042A70D01CF1210003D0656158
:10E090002561401EFBD1CBF8009088E010F0020F04
:10E0A0003ED000273E4620236561D4F808C0256194
:10E0B000CCF3801C7F08664447EACC775B1EF3D123
:10E0C0006561A368256186EA931313F0010F18BFF9
:10E0D0000822002918BF0F609AF81C1019B1656159
:10E0E0002561491EFBD1CBF8009000BF10F0800FD6
:10E0F0000AD0364836490068B0FBF1F03549496826
:10E10000B1FBF0F0CAF80C009AF81000002818BF14
:10E11000C4F814804BD065612561401EFBD146E0F8
:10E12000BCF1000F04D065612561BCF1010CFAD18E
:10E13000CBF8009009684FF0000C2023CE0714BFE5
:10E14000C4F81080C4F81480656125618C444908C6
:10E150005B1EF3D15FEACC7114BFC4F81080C4F821
:10E16000148065612561C1E7FFE79AF81D30002B37
:10E170001CBF10F0020F212103D065612561491EEB
:10E18000FBD1BCF1000F04D065612561BCF1010C2D
:10E19000FAD1CBF8009053B110F0020F04BFC4F8CD
:10E1A0001480212003D165612561401EFBD1C4F894
:10E1B00010806561BDE8F00F104670470000044014
:10E1C000140404402C06002010040440080300201E
:10E1D00040420F00001000E02DE9F04FD64C4FF008
:10E1E00080084FF0000CC4F8108020276761DFF82A
:10E1F0004CE3DEF804301A465B1EFDD1276113465E
:10E200005B1EFDD1C30714BFC4F81080C4F814808E
:10E21000676113465B1EFDD1276113465B1EFDD16E
:10E220000CEB00054FEA500C5FEACC7314BFC4F846
:10E230001080C4F81480676113465B1EFDD127610E
:10E2400013465B1EFDD165444FEA900C5FEACC7328
:10E2500014BFC4F81080C4F81480676113465B1EB5
:10E26000FDD1276113465B1EFDD165444FEAD00CFA
:10E270005FEACC7314BFC4F81080C4F814806761DF
:10E2800013465B1EFDD1276113465B1EFDD105EBD6
:10E290000C03DB0714BFC4F81080C4F81480676156
:10E2A00013465B1EFDD1276113465B1EFDD1C4F8EA
:10E2B0001480676113465B1EFDD1276113465B1E08
:10E2C000FDD1C4F81080676113465B1EFDD1276144
:10E2D00013465B1EFDD19A4B4FF0010BC3F800B003
:10E2E0009EF81CC05FEA0C050AD0676113465B1EEE
:10E2F000FDD1276113465B1EFDD1BCF1010CF4D1A9
:10E30000676113465B1EFDD1A3682761C3F38013C9
:10E310004FEA020CBCF1010CFCD167614FEA020C20
:10E32000BCF1010CFCD1D4F808C02761CCF38016F5
:10E330004FEA020CBCF1010CFCD143EA460C6761C8
:10E3400013465B1EFDD1A3682761C3F380161346F5
:10E350005B1EFDD14CEA860CBCF1010F16D0BCF15E
:10E36000020F18BFBCF1040F7CD015F1210109D0B8
:10E3700067611046401EFDD127611046401EFDD149
:10E38000491EF5D16F48C0F800B0CEE010F0020F82
:10E3900043D04FF000094E462025676113465B1EAF
:10E3A000FDD1A3682761C3F380139246BAF1010A35
:10E3B000FCD14FEA59091E4449EAC3796D1EECD1DC
:10E3C0002346676115466D1EFDD1D3F808A03D4672
:10E3D000CAF3801A1F61521EFDD186EA0A0212F0AA
:10E3E000010F18BF4FF0080C002918BFC1F80090AA
:10E3F0009EF81C60002E18BFDEF8049009D05D6105
:10E400004A46521EFDD11D614946491EFDD1761E68
:10E41000F5D14C49C1F800B033E04DB16761134606
:10E420005B1EFDD1276113465B1EFDD16D1EF5D12C
:10E43000444BC3F800B000250B682026D90714BF51
:10E44000C4F81080C4F8148067611146491EFDD1DC
:10E4500027611146491EFDD11D445B08761EEDD192
:10E46000E90700E02FE014BFC4F81080C4F814805E
:10E470003B46254667611146491EFDD12B61521E60
:10E48000FDD110F0800F0AD02F4830490068B0FB52
:10E49000F1F02F494968B1FBF0F0CEF80C009EF87E
:10E4A0001020002A1CBFC4F81480DEF804103CD0F1
:10E4B00067610846401EFDD127610846401EFDD118
:10E4C000521EF5D131E09EF81D60002E1CBF10F0E9
:10E4D000020F212309D067611146491EFDD1276132
:10E4E0001146491EFDD15B1EF5D14DB16761114644
:10E4F000491EFDD127611146491EFDD16D1EF5D182
:10E500001049C1F800B086B110F0020F04BFC4F882
:10E510001480212109D167611046401EFDD1276179
:10E520001046401EFDD1491EF5D1C4F81080676128
:10E530006046BDE8F08F0000000004402C0600207B
:10E5400014040440100404400803002040420F005B
:10E55000001000E0F0B4DFF850C0451E4FF0200678
:10E560001ED312488027426811F8013B5FF008046F
:10E5700013F0010F14BFCCF81070CCF81470CCF865
:10E5800014601046401EFDD1CCF810601046401EAD
:10E59000FDD15B08641E6D1E02D3002CE8D1E3E7B9
:10E5A000CCF81460F0BC7047000004402C0600203A
:10E5B0000C490D4A0968B0EB910F02D3012050704D
:10E5C0000DE000EB5101491EB1FBF0F00023537048
:10E5D000022803D90321B0FBF1F000E001205060D4
:10E5E00070470000080300202C06002010490F4847
:10E5F00008601048016841F00101016041680E4A5D
:10E600001140416001680D4A11400160016821F428
:10E6100080210160416821F4430141600168084A9A
:10E62000114001604FF41F0181607047001BB7006B
:10E6300008030020001002400CC0FFF8FFFFF6FEA8
:10E64000FFFF8F00BFF34F8F05480168054A01F4B3
:10E65000E06111430160BFF34F8F00BFFDE7000091
:10E660000CED00E00400FA05044805490068B0FB21
:10E67000F1F004494968B1FBF0F07047080300204D
:10E6800040420F00001000E00029016802D041F074
:10E69000800101E021F080010160704700290168DC
:10E6A00002D041F0010101E021F001010160704759
:10E6B0000029416C02D041F4004101E021F4004105
:10E6C00041647047C2690B7822F070021A43C2613C
:10E6D0000A7A4B781A43036A23F4407343EA02220E
:10E6E00002624A68C2630C4A904202D00B4A9042CE
:10E6F00011D14A7A8B781A43036A23F4406343EAC0
:10E70000022202624A8989890A43416821F4405100
:10E7100041EA021141607047002C01400034014081
:10E72000C26922F008020A43C261704700210170E9
:10E7300041708170416001724172418181817047F5
:10E7400030B502680B8922F440721A430260144A01
:10E75000144B90420DD0B0F1804F0AD0124CA04221
:10E7600007D0124CA04204D0114CA04201D09842D4
:10E7700005D104688D7824F070042C430460904225
:10E7800001D0984205D1026B8B7A22F0FF021A4326
:10E7900002634A68C262098881620121416130BD19
:10E7A000002C0140003401400004004000080040FB
:10E7B000000C004070B516480468A00714D5144832
:10E7C00008380068C5B2134802F0A2FD152804D924
:10E7D0002946104802F000FE06E005D14FF0150270
:10E7E0000DA10C4802F04BFEE00709D0104802F0E2
:10E7F0009CFD074C0C3C20B10D4802F0B1FD20609F
:10E8000070BD2046BDE870400022012100F018B81C
:10E810000C380140881D00203C4D4D33324C696E50
:10E820006B3A204F766572666C6F773E0A00000087
:10E83000781B0020826922F001020A43826170473E
:10E84000002A026901D00A4300E08A43026170474E
:10E8500070B50446C0690D46097920F030000843C0
:10E86000E061E069A97920F044000843E061E069D3
:10E87000297A20F003000843E061A069698920F04B
:10E8800018000843A061A069297B20F00400084318
:10E89000A0610A48844202D1FFF74AFA01E0FFF77B
:10E8A00037FA2968B0FBF1F1090921622968B0FB48
:10E8B000F1F000F00F00606270BD00000038014010
:10E8C0001CB5002001906A4601A90848FEF7E9FE40
:10E8D00040B10748DDE90021007840F0800002F0F7
:10E8E00009FB1CBD0349012008701CBD2831002014
:10E8F000088401085405002038B5164D164C2888A8
:10E900006188421A15486168007801F097FE6168D5
:10E9100080B201446160618801448AB262802988C2
:10E920008A4206D20F4B0E491B7831F813108142F0
:10E930000FD96B460C490D48FEF782FE002528B121
:10E94000207818B10020FFF7BBFF257065800648CE
:10E95000606038BD0E840108540500200984010858
:10E960000A8401089F050020E221002028310020B0
:10E9700010B50446400702D50020FFF7BDFF200771
:10E9800004D5BDE810400020FFF79ABF10BD00205D
:10E99000704700000348D0E90410081A02490988AA
:10E9A000081A70475C050020FE83010870B50B4D06
:10E9B0000C460346D5E90C0188420BD9401A844223
:10E9C00000DD044622461846FDF7C4FD686B20446E
:10E9D000686300E00024204670BD00005C05002054
:10E9E000002070472DE9F041194F0C460646D7E943
:10E9F0000401401A17490988081A002802DC00207F
:10EA0000BDE8F081844200DD0446D7E90602002516
:10EA100090420FD3104B021919448A420AD30D1A9F
:10EA200098462A463146FDF795FD2E44641B404624
:10EA3000C7F8188034B122463146FDF78BFDB8691E
:10EA40002044B8613969601901443961D8E7000090
:10EA50005C050020FE8301086221002010B5054CF2
:10EA60006068002805D10120606000F005F80020F2
:10EA7000606010BD5C0500202DE9F047244CA068C3
:10EA800000283ED0D4E90401421AE0684FF00006A5
:10EA900052EA000137D021461E4FC969DFF878805D
:10EAA000DFF878901E4D7AB1A069814205D338888D
:10EAB0008B182844834200D3421A99F8003038F862
:10EAC0001300904200DA02461648E660007840F0F3
:10EAD000800002F00FFAE1690144E16162690244D9
:10EAE00062613B882B448B4200D1E56121699142F0
:10EAF0000BD199F8002038F81210814205D101207D
:10EB0000E060BDE8F087A660FBE7E660F9E700009B
:10EB10005C050020FE830108028401089F05002097
:10EB200062210020FC83010810B50B4C206A18B14B
:10EB3000A06A401CA06210BD01202062606200F04B
:10EB40000DF8002060622062D4E90C018842F2D006
:10EB5000401AFFF745FF10BD5C05002010B5134CAF
:10EB60001348164B216B0A1A12481B780088821A28
:10EB7000114830F8130082420EDB1148007801F092
:10EB80005DFD216B08442063A06A00280CD0616AF7
:10EB9000002909D1401E06E00120E062606A0028D9
:10EBA00002D0A06A401CA06210BD00005C050020DD
:10EBB000A221002000840108028401089F05002092
:10EBC000FD83010810B50446400702D52046FFF733
:10EBD000ABFF200704D52046BDE81040FFF73EBF3D
:10EBE00010BD7047002070470020704710B50B48DB
:10EBF00000F03CF8002810D0084A0948116801705C
:10EC00000B0A43700B0C8370090EC17011790171EE
:10EC10005179417191798171012010BD94050020D5
:10EC2000602000200E4810B5002141608160C16065
:10EC30000C4A0161C0E90512C0E9072141620A4A94
:10EC40008162C0E90B124263018038304FF41652E2
:10EC50000260017141710821817100F015F810BD49
:10EC60005C05002062210020A221002005490A68DD
:10EC700002600A7982714A794271897901710120B1
:10EC8000704700002406002010B507F077FA04F062
:10EC90007BF9012010BD10B507F0C8FA012010BDA6
:10ECA00010B507F035FB012010BD000006490268D1
:10ECB0000A6082790A7142794A710079887100206C
:10ECC000C871084607F0C4BA2406002010B51048E1
:10ECD0000024104944608460C4600461C0E90541B7
:10ECE000C0E9071444620C498462C0E90B414163E6
:10ECF0000480FFF7D0FF06484FF41651383001600A
:10ED00000471447108218171FFF7D0FF10BD00002C
:10ED10005C05002062210020A221002010B5FFF731
:10ED2000D5FF10BD70B51948007800282DD0184CBB
:10ED300000250126206A50B9D4E90C01884206D189
:10ED40001449884203D02163E56225626163A06AA9
:10ED500070B1206A60B9E06A50B92662FFF7FEFE22
:10ED60002562D4E90C01884202D0401AFFF738FE30
:10ED7000D4E90101084308D1D4E90401884204D050
:10ED80006660A660FFF778FE656070BD9D05002097
:10ED90005C050020A221002070B505460D480068E2
:10EDA000C1698847A0B90C4C35B104F083FA2060E2
:10EDB000002006F0D7FF0BE004F07CFA2168401A2F
:10EDC000B0F5967F01D3012000E0002004F0E4F8C4
:10EDD000012070BDC87D010820060020002070477A
:10EDE00000207047024910B50880FFF759FF10BD99
:10EDF0005C0500200A4810B58278018862F31F4143
:10EE0000C27841EA026207490A6002790A714279CE
:10EE10004A71807988710846FFF748FF10BD0000ED
:10EE200060200020940500200107890E01F1A04117
:10EE3000C0310A7822F002020A7001F0C7BF000058
:10EE4000014680788988020601D4024A115401F0F3
:10EE5000BDBF0000D4040020704700F0D3BA4FF0CB
:10EE6000A041002851F8940F02D040F0010001E0C9
:10EE700020F001000860704710B50B4C0B48A288C9
:10EE80000078824200D902461AB907490020143995
:10EE900008718020216802F02DF82168014421606A
:10EEA000A188081AA08010BDB0050020E3830108E6
:10EEB00010B5064C0020A288216801F0BFFB216834
:10EEC00001442160A188081AA08010BDB00500206F
:10EED0007047010608D50007800E00F1A040C03041
:10EEE000017821F0050106E0800000F1A040C0306B
:10EEF000017821F0090101707047010608D500076B
:10EF0000800E00F1A040C030017841F0050106E01C
:10EF1000800000F1A040C030017841F0090101708B
:10EF2000704700002DE9F0476E4F0446A7F1080531
:10EF300080074FF00009A5F1140622D501F0B0FFBB
:10EF40003878C009FFF7C4FFF888A8803878C0F384
:10EF5000411121B101295AD002296FD165E0797898
:10EF6000DFF884810C2969D2DFE801F0060C681310
:10EF7000681827682B31384601F0F0FC1FE0FFF7D6
:10EF80007BFF67E0002005E001F09AFFD8F8000061
:10EF900039E0012001F020FDC0B3F5E710F01F0FAC
:10EFA0004CD1B878012140F08000307000F07F0033
:10EFB00001F063FF01F084FF4CE001F0D7FB28B3C0
:10EFC000DDE710F01F0F39D146481B3812E001F081
:10EFD00053FDD8B101F074FF444813E000F01F0066
:10EFE00001282BD1707888B13879B178884225D240
:10EFF0003F4908442860C2E701F002FE30B101F049
:10F000005FFF3C48006828B3804723E016E010F01B
:10F010001F0013D0012811D100F0FEF8D0B900F084
:10F0200051F9B8B900F0A8F807E010F01F0F05D1AA
:10F0300000F076F970B900F0B7F958B938780006E1
:10F0400003D4F88808B1002000E0802001F01EFF02
:10F05000A5F80490600721D5387800061CD4A8884C
:10F06000E0B1FFF725FFA888C0B93878C0F3411197
:10F0700061B101290AD110F01F0007D0012805D184
:10F0800000F062F850B900F037F838B9802001F08C
:10F09000FDFEA5F8049001E001F018FF200712D54D
:10F0A0003878000606D5A888317908430BD0FFF7D9
:10F0B000E3FE08E03078010605D500F07F003070EF
:10F0C000002101F0DAFE600602D50020FFF7ACFE59
:10F0D000200604D5BDE8F0478020FFF7A5BEBDE8B7
:10F0E000F0870000B80500206C84010864840108E2
:10F0F000AF0400206884010810B51049104A08794F
:10F100001278904203D00F4A1278904214D1487876
:10F1100020B1022805D020280ED10AE0FFF75EFEBC
:10F1200002E04888FFF75CFE30B101F0C9FE012023
:10F1300010BDFFF75FFEF7E7002010BDB805002007
:10F14000140300201503002010B50948094A01796D
:10F150001278914209D14078092806D100F05CFB71
:10F1600018B101F0ADFE012010BD002010BD00005F
:10F17000B80500201803002070B52249224A0879FA
:10F180001278904203D0214A1278904237D11D481C
:10F1900049781F4C1F4D408804291FD007DC79B1E6
:10F1A00001290FD002290BD0032928D111E02029F1
:10F1B00006D0212919D022291AD023291FD11AE0DB
:10F1C0002C6010E0FFF710FD05E02C60FFF754FE07
:10F1D00009E0FFF707FD0028F7D110E0FFF7D7FBA4
:10F1E0000BE001F06DFE012070BDFFF7FFFCF2E7C0
:10F1F000FFF7F8FD01E0FFF7CFFD0028F1D1002077
:10F2000070BD0000B8050020140300201503002085
:10F2100060200020B00500202DE9F041224E234956
:10F220003079097888423CD17078214C214D224FA9
:10F230000C2836D2DFE800F03506212C353535357F
:10F240003516243100F004FA58B3F078012802D0C2
:10F25000032803D003E01948206000E02560FFF791
:10F260000BFE12E0F078022802D0032803D00CE055
:10F270001348206009E0256007E000F0D1F909E0BB
:10F2800000F0A4FA0BE001F01BFE0120BDE8F081C4
:10F2900000F0D4F928B12760E1E700F0B3FA0028C4
:10F2A000F1D10020F2E70000B8050020180300208B
:10F2B000B0050020BC04002060200020A120002018
:10F2C000E220002010B51248124A017912789142CA
:10F2D0001BD142784188C088FE2A09D0FF2A14D168
:10F2E00099B990B901F0FAF878B101F0E9FD0AE0B6
:10F2F00059B9012809D100F009FE30B10749064883
:10F300000860FFF7B9FD012010BD002010BD00000E
:10F31000B80500201903002060200020B00500205F
:10F3200070B51B4D1B4900266878097888422CD19E
:10F33000A888022829D1184CAA7812B3002003E02B
:10F34000217801B10C44401C411C8A42F8D8207835
:10F35000B0B103F0C7FB0146E01CFDF7EFF80F4A20
:10F36000012614602078E98881420BD90C499080ED
:10F370000978491E084206D10A490120087002E0B6
:10F38000002602E09180FFF777FD304670BD000057
:10F39000B80500200684010870040020B005002094
:10F3A000E3830108A005002010B5104A104900248D
:10F3B00050780978884217D19088072814D10E4BCD
:10F3C0000C48012418600189D2888A4209D90B4867
:10F3D00099800078401E014204D10949012008703B
:10F3E00000E09A80FFF748FD204610BDB8050020D8
:10F3F0000784010820030020B0050020E3830108F2
:10F40000A0050020074800214170C16001614161F1
:10F41000418081808161C161C1800181016241813E
:10F4200070470000C00500202DE9F047494EB08824
:10F4300071884A4FDFF820817D1C0024884216D352
:10F44000B069A0B97461B480012339787A1C184678
:10F4500007F0BAF97080708848B1776198F80000B9
:10F46000012801D8756102E07088401C70807088A6
:10F470004FF00109B0BBF06808B1F46032E03169C7
:10F4800081B398F8000001280DD83C70B4800223A5
:10F490007A1C0021012007F097F97080708800B174
:10F4A000756134611EE03D78C846202D00D30025EB
:10F4B00008FA05F0084218D0681CC1B23970B4804F
:10F4C00002237A1C012007F07FF97080708818B140
:10F4D00077617088401C7080306908FA05F820EA6E
:10F4E00008003061708830B902E06D1CEDB2DCE7D5
:10F4F000B069002829D07088B188DFF86880401A88
:10F5000085B2174F98F8000037F81000A84200D2D3
:10F5100005461548007828B140F080002A467169F8
:10F5200001F0E8FC7069114928447061B0882844F2
:10F5300080B2B0800988884209D298F8000037F874
:10F540001000A84203D1C6F81890BDE8F087B46156
:10F55000FBE70000C0050020EE830108A02000208A
:10F56000EA8301089F050020E4830108F083010875
:10F57000F8B51C4C1C4D1D4F2089002618B9E561BB
:10F580003888E0802681E0882189421A1848E1699C
:10F59000007801F053F80004E169000C0144E161D6
:10F5A000218901448BB2238109D039888B4206D24C
:10F5B000114A1049127831F81210814210D90F48BF
:10F5C000017801200129009003D80021064A022079
:10F5D00003E029786A1C02205B1E07F089F9268166
:10F5E000F8BD0000C0050020E1200020F2830108E2
:10F5F000E5830108EA8301089F050020EF830108E5
:10F6000010B50446000702D52046FFF70DFF60073E
:10F6100004D52046BDE81040FFF7AABF10BD00008A
:10F62000034804498078085C03490870012070474A
:10F63000B8050020BA0400206020002010B507F0B3
:10F64000C1F802490870012010BD000060200020B0
:10F650000B4910B5C8780022012804D0022804D034
:10F66000032806D103E0074A02E0002010BD064A45
:10F67000521C8978002307F0A7F8012010BD000074
:10F68000B8050020A0200020BB0400202DE9FC5F6D
:10F690004548007800287DD0444D04230026297871
:10F6A000B146481C28704248007800EB4002934065
:10F6B0005B1E0192994202DB85F8009001263D4ACB
:10F6C00000241188FF2901D2491C11803A4931F8E0
:10F6D0001000384900900988884200D10124394936
:10F6E0000020DFF8D8804FF0010BDFF8D4A091F8AC
:10F6F00000E045E0002276B11AF800105346FF29D9
:10F7000001D2491C195418F8001021B11AF8003020
:10F710008B4200D30122019918F8007002238B401C
:10F7200007FA03F1009B994202DA0FB1012300E0CE
:10F7300000233CB133B1D5F810C00BFA00F141EA17
:10F740000C0129612049095C8F420ED01AF8007023
:10F750008F4208D3D5F810C00BFA00F747EA0C0720
:10F760002F6185F8009008F800103AB123B92A6992
:10F770000BFA00F1114329610AF80090401CC0B255
:10F780007045B7D314B10B49A1F80090286900283F
:10F7900008D000E006E06888002803D1BDE8FC5FDF
:10F7A000FFF742BEBDE8FC9F9D050020C00500207C
:10F7B0009F050020B6040020E6830108B90400205C
:10F7C000B8040020EE830108BA0400200948094962
:10F7D0008078C97810B1084A815409E0084A0020AD
:10F7E000064B127802E01954401CC0B29042FAD382
:10F7F00001207047B8050020B9040020BA04002099
:10F80000EE830108034810B5807807F06FF80120F7
:10F8100010BD0000B80500200C4908B5C8780022CA
:10F82000012804D0022804D0032806D103E00020D8
:10F8300008BD074A00E0074A521C00230093CB880A
:10F84000897807F055F8012008BD0000B8050020B0
:10F85000E1200020BB0400202DE9F05FEFF31080D1
:10F8600072B6554D4FF00009EC68C5F80C9095F84C
:10F8700000A085F8009080F31088E00707D001F021
:10F8800055FA07F0E9F84D48006800B18047E006F6
:10F8900005D501F025FB4A48006800B18047A00665
:10F8A00005D501F0DAFA4748006800B180476007E3
:10F8B00003D54548006800B180474FF0A048022CAE
:10F8C00008D14248016811B1D8F888008847FF2163
:10F8D000C8F88810200764D53D4E3E4FAB46EFF385
:10F8E000108272B65B46D3E90110814254D10120E7
:10F8F00053E0EFF3108472B637481922405C491C7C
:10F90000B1FBF2F502FB151184F31088596004096C
:10F91000C0F3C002C0F3800109D109EB420C8C4452
:10F9200016F83CC0CCF3830CBCF10D0F0AD0A50037
:10F9300005EB4202551816F83510C1F38301012971
:10F9400013D01CE0186920F002001861307E20F00E
:10F9500080003076307C20F0800030748BF801908D
:10F9600039680029BBD0022014E01CB900F0010066
:10F970008BF8010057F8241009B10420884716F8C5
:10F980003500C0F383000928A9D157F824100029B5
:10F99000A5D008208847A2E7002082F3108800281D
:10F9A000A7D0BAF1000F05D0404650F8941F21F0BF
:10F9B00020010160BDE8F09FC00400201084010810
:10F9C00014840108188401081C840108208401089B
:10F9D0000024002024840108C02A002010B5154806
:10F9E0004024047001F0B8FA432001F0E9FA12480B
:10F9F0004FF0A042C0F30720C2F89C000E48C0F3AD
:10FA00000740C2F8B0000C48000EC2F8B400FF2056
:10FA1000C2F880000948006800B10420084909685C
:10FA200001B10221084340F0190042F8840F14612B
:10FA300010BD0000D4040020002400201C84010814
:10FA40002084010870B500F005F900281CD00F488B
:10FA500002220F4D027042700E4C03202A63287060
:10FA6000A068022803D9A4F11F008260A2600A489E
:10FA70000649007840F0800001F03CFAA068296B4C
:10FA8000401AA0600120207370BD000022210020D8
:10FA9000E4050020D7410020F4830108114910B586
:10FAA0000878022808D0032810D0042812D005288E
:10FAB00001D10020087010BD0B48C07B282801D060
:10FAC000A828F8D1BDE8104000F064BABDE81040A5
:10FAD00000F03CBD0548007840F0800000F04EFD8D
:10FAE000F4E70000E4050020B8410020F483010899
:10FAF000204A10B5117869B301290ED01E48052996
:10FB000000781BD007292BD000F038FD1B490220BC
:10FB10000873BDE8104000F019BD18481F38C07BBD
:10FB20002A2803D02F2805D0AA2822D1BDE81040CA
:10FB300000F004BBBDE8104000F096BA01218140FE
:10FB40000F480068014201D0012000E0002040F28F
:10FB50003F4200E009E0BDE810400AA101F0E9BA27
:10FB600000201070106B1F2803D1BDE8104000F07A
:10FB7000D5B810BDE4050020F5830108D741002069
:10FB8000A80500202E2E5C2E2E5C2E2E5C736F7529
:10FB90007263655C7573625C6D73635C75736264DC
:10FBA0005F6D73632E630000104910B54868C8602C
:10FBB00008B1012010BD0E4800F11F0482687AB11F
:10FBC000007B000604D50B48007840F0800005E07B
:10FBD000A068096B884203D00748007800F0CEFC8B
:10FBE0000120207300F0B2FC002010BDE4050020CD
:10FBF000B8410020F4830108F5830108104800791A
:10FC000000F08F01080605D501F00F004FF4803297
:10FC1000824001E001228A400A48007840F08000DA
:10FC200088420CD108490968114208D00749084A9E
:10FC30000968914203D10D22044901F05BB9704774
:10FC4000B8050020F4830108A8050020D741002052
:10FC50005553425370B50A48022400F11F058168CC
:10FC600031B1007B000608D40648007800F086FC1D
:10FC70002C7300F06BFC002070BD012070BD0000F3
:10FC8000B8410020F583010810B50E480E4C80687D
:10FC9000216B884202D82063032000E004202070FA
:10FCA0000A480B49226B007840F0800001F022F9ED
:10FCB0000448226B1F308168891A8160002101731A
:10FCC00010BD0000B8410020E4050020F4830108C5
:10FCD00022210020064810B502880748054900780F
:10FCE00000F0ACFC05490863BDE81040FFF700BF19
:10FCF000FA83010822210020F5830108E405002091
:10FD000010B50446400702D50020FFF7E3FF2007A7
:10FD100003D5BDE81040FFF7C1BE10BD2DE9F04787
:10FD2000734E326B1F2A01D2134600E01F230020BE
:10FD3000704D714902E00C5C2C54401C9842FAD37F
:10FD4000DFF8BC910127DFF8B4A199F800001F2A61
:10FD500040F080007ED129686A4A91427AD1654C90
:10FD600069681F346160A968A160697B19B9A97BC2
:10FD700009B1102901D927738AE0E97B4FF0020805
:10FD80002A293ED022DC1A294FD00FDC0429F2D0D8
:10FD900006DCE9B30329EED1BDE8F04700F05CBB17
:10FDA0001229E8D1BDE8F04700F0B8B8232944D0C3
:10FDB00007DC1B2935D01E29DDD1BDE8F04700F056
:10FDC000DBB825293DD02829D5D148E09E2940D04F
:10FDD0000FDC5529CFD004DC2F2954D03529CAD1C6
:10FDE00003E05A2925D09129C5D1BDE8F04700F09C
:10FDF000F5BBA12929D0A3295DD0A8292FD0AA29F4
:10FE0000B9D100F075FA002805D0287B000600E083
:10FE100003E04BD43770BDE8F087BDE8F04700F051
:10FE2000E5BBBDE8F04700F0BFBBBDE8F04700F020
:10FE300037BABDE8F04700F007BABDE8F04700F078
:10FE4000D5BABDE8F04700F0A9BABDE8F047FFF722
:10FE5000F9BD00E032E0BDE8F04700F051BB00F032
:10FE600047FA0028D7D0287B000605D586F8008001
:10FE7000BDE8F04700F08EB89AF8000000F07EFB75
:10FE800084F80C8004E0287C800705D400202073CF
:10FE9000BDE8F04700F05ABB00F02AFA0028BAD0BB
:10FEA000287B000602D437703762B4E799F8000067
:10FEB00040F08000E2E700F061FB5CE74C4600F0B8
:10FEC0005DFB2078104C00F00F014FF4803088402B
:10FED00021685546084320609AF8000000F04EFB68
:10FEE000287887402068074306202760307092E713
:10FEF000E4050020B841002022210020F5830108FC
:10FF0000F483010855534243AC0500200249002008
:10FF100008700120704700006020002010B5FFF736
:10FF200099FE002820D0114B0020802118705970B4
:10FF300002219970D97020241C7158719871D87160
:10FF40000B48016808200A7812B11A54491C00E0D5
:10FF50001C54401CC0B22428F5D306492420086351
:10FF6000BDE81040FFF790BE10BD00002221002028
:10FF70006C040020E40500200548C07CC10704484B
:10FF800000F11F0000D00121017300F0DFBA000072
:10FF9000B84100202DE9F0412E4D2F4F0026A969D0
:10FFA000686ADFF8B88088420AD33878002440F0C5
:10FFB000800000F0E3FA88F80C6000F0C7FA08E06F
:10FFC00028492748097830F81140E86A844200D36C
:10FFD0000446FFF7E9FD00B90024A86A48B374B1EC
:10FFE000A96AE86922460144387840F0800000F0B0
:10FFF00081FFA86A2044A862E86A001BE862D5E98C
:020000040801F1
:100000000410AA6A4143914203D1AE62696A08446E
:100010006862D8F808104046091BC8F80810002C80
:1000200005D0E96A002902D1032129700673BDE8D1
:10003000F081002CE3D0E96A28690144491EB1FB34
:10004000F0F26869824200D90246E969686A06F0FE
:10005000BBFCC5E7E4050020F4830108D74100207C
:10006000F68301089F0500202DE9F0412F4C002563
:100070002F4EA169606A884207D32E482563007815
:1000800000F07CFA357300F061FAFFF78DFD20B1C6
:10009000206B08B3A06A10B10FE0256320E0E16A8D
:1000A00020690144491EB1FBF0F26069824200D927
:1000B0000246E169606A06F087FC00201E49A36AD7
:1000C000226B0BE0D4F81CC01F181CF8077011F845
:1000D00000C0674501D0256202E0401C9042F1D388
:1000E000A16A206B0A18A262E16A0B1AE362D4E9E2
:1000F00004714F43974203D1A562626A1144616261
:10010000B168091AB16000280DD013B12078052814
:1001100009D1206A28B100203073BDE8F04100F019
:1001200015BA0120F8E7BDE8F0810000E4050020E1
:10013000D7410020F5830108222100202DE9F0415C
:10014000344D0026344FA969686A884207D3334882
:100150002E63007800F012FA3E7300F0F7F9FFF713
:1001600023FD00B92E63296BA86A084429698842D7
:1001700006D9BDE8F041FE2229A1002000F0D9BF38
:100180000020304905E0AB6AEC690A5C0344401C7E
:10019000E2542A6B9042F6D3A86A11000844A86280
:1001A000EA6AA2EB0102EA6222D092B988B1296917
:1001B0000844401EB0FBF1F46869844200D904464B
:1001C0002246E969686A06F019FCAE62686A204452
:1001D0000DE0D5E9041202FB01F3834208D1E9697D
:1001E000686A06F00BFCAE626969686A0844686276
:1001F000B968286B091AB960002809D0E86A10B1FB
:100200002878052804D13E73BDE8F04100F09EB97E
:10021000BDE8F081E4050020D7410020F583010806
:100220002E2E5C2E2E5C2E2E5C736F757263655CB9
:100230007573625C6D73635C757362645F6D736329
:100240002E6300002221002010B5FFF703FD0028D7
:100250001FD0FFF7A9FC00281BD00E480021062262
:1002600001700D4B427081701A7AD201C270017117
:1002700041718171C1710949082018638A68082A8F
:1002800003D9A1F11F0290608860BDE81040FFF71C
:10029000FBBC10BD22210020E4050020D741002036
:1002A00010B5FFF7D7FC00281BD0FFF77DFC002816
:1002B00017D00C480321002201700B4942700B7AC1
:1002C000DB018370C2700420086308498A68042A2D
:1002D00003D9A1F11F0290608860BDE81040FFF7CC
:1002E000D3BC10BD22210020E4050020D74100200E
:1002F00070B5264C264DB4F81100E17C40BA0004DC
:1003000040EA0121207D01430020C5E90910E07B7E
:100310002F280AD004DC28280BD02A2819D104E081
:10032000A8280DD0AA2814D106E0FFF73DFC00282C
:1003300029D0E08A41BA0CE0FFF736FC002822D031
:10034000B4F81500E17D40BA000440EA0121207EA6
:10035000014328690D4E4143E962A06801251F361B
:1003600068B1884210D0207B000604D50948007887
:1003700040F0800001E00848007800F0FFF8357395
:1003800000F0E4F8002070BD012070BDB8410020ED
:10039000E4050020F4830108F583010810B5FFF798
:1003A00059FC00281CD0FFF7FFFB002818D00D4A8D
:1003B0000D489169491E0B0E03700B0C43700B0A1C
:1003C0008370C17011690B0E03710B0C43710B0A22
:1003D0008371C17108201063BDE81040FFF754BC61
:1003E00010BD0000E40500202221002010B5FFF719
:1003F00031FC002829D0FFF7D7FB002825D013486F
:100400000021134A0170417081700821C170916907
:100410000B0E03710B0C43710B0A8371C171022126
:10042000017211690B0C43720B0A8372C172094984
:100430000C2010638A680C2A03D9A1F11F02906076
:100440008860BDE81040FFF71FBC10BD22210020CE
:10045000E4050020D741002010B5FFF7FBFB002882
:1004600035D01B4870211B4B017000214170DC68A6
:100470005A6832EA040406D00624847028240473DF
:100480004173DA6008E0DAB1134A127BE2B1052267
:100490008270202202734173C170017141718171B8
:1004A0000A22C271017241728172C1728173C17379
:1004B0000174417412201863BDE81040FFF7E4BBDB
:1004C000022282703A22E5E781700173E3E710BDF2
:1004D00022210020E4050020D7410020044900200B
:1004E000086004490860044907200870012070472B
:1004F000AC050020D7410020E4050020FFF7EEBF47
:1005000010B5FFF7A7FB002817D00C4820220021C8
:10051000027041700A4CC1770320226320700948A1
:100520000649007840F0800000F0E4FC0648226BA9
:100530008168891A81600121017310BD2221002088
:10054000E4050020F4830108D7410020084910B5D4
:100550000648086007480D22007840F0800000F04F
:10056000C9FC05490520087010BD000055534253D1
:10057000D7410020F4830108E405002010B50446AB
:1005800000F084FC200605D504F00F014FF4803004
:10059000884001E00120A04002490A681043086039
:1005A00010BD0000A80500200A4810B5817C00F1AC
:1005B0001F0429B101202073BDE81040FFF7C6BF1A
:1005C000C07C054900F00100486006F015FA0020E3
:1005D000F1E70000B8410020E405002002490020B6
:1005E0000873FFF7B3BF0000D74100200F4810B5D4
:1005F000816800F11F0469B1007B000604D50C4836
:10060000007840F0800001E00A480078FFF7B6FF6C
:10061000012004E0FFF7C8FA002805D0002020736D
:10062000BDE81040FFF792BF10BD0000B8410020A8
:10063000F4830108F5830108704700002DE9F05F9D
:1006400005004FEA0570DFF8E0804FEA906408EBA0
:10065000C40B0F46BBF80210DFF8D09092464FF063
:1006600000061AD1A9F11000407878B16008012184
:100670008140EFF3108072B6D9F800304B4080F320
:1006800010880020C9F80030BDE8F09F18F8340049
:10069000C0F383000D2800D101268A4506D240F21E
:1006A000E91223A1002000F044FD51461E4A00201B
:1006B000C03202EB841202E0135C3B54401C8842BF
:1006C000FAD31A484346001D425DABF80220A0F160
:1006D00014056208286918F8348020FA02FC0CF02E
:1006E000010CC8F38018C4450CD1FF8806B17FB156
:1006F00001279740EFF3108672B6784086F3108892
:10070000C9F800002869D040C00707D0C82006E01B
:10071000EFF3108672B620F00100EFE7882003F8AF
:1007200034000846B0E7000000240020D004002078
:100730002E2E5C2E2E5C2E2E5C736F757263655CA4
:100740006869635F68616C5C6D6D33325C6D6D33DD
:100750003266333237305C757362645F6D6D33328D
:1007600046333237302E6300FFF748BA2DE9FC419B
:100770004E4BA3F11C051878A3F1080410F01F00DC
:1007800002D001286DD179E04949D878494E0A78DC
:100790004649494F1C390628C97810D006DC012883
:1007A00009D0022814D003287ED141E007282AD09E
:1007B0000F2879D156E04148206012205CE0002AE1
:1007C00072D019B13E4820600A2055E03D48FAE752
:1007D0000AB9012968D0022021B100977870002061
:1007E0009A7809E000967070F9E700990B7813B1D8
:1007F0004B8819440091401C8242F6D10098017840
:1008000079B3206037E062B3072021B100967070A1
:1008100000209A7809E000977870F9E700990B7842
:1008200013B14B8819440091401C8242F6D1E5E790
:10083000254800909878032801D0002008E002F0B5
:100840008FF90BE000990A780AB111440091401C1D
:1008500099788142F6D10098017811B12060007832
:100860000AE021E01948007800281BD018480090C1
:1008700020600178C1B14088019005E001A9684677
:1008800000F02AF800280DD0A1880198814208D9EB
:10089000104980B2A0800978491E084201D1012088
:1008A00028710120BDE8FC810020FBE7B80500208D
:1008B000E1830108981F0020170300209484010899
:1008C000A7840108A6840108E2840108E2830108E4
:1008D000A8840108E383010830B5164A164B154C6D
:1008E000D278164D24791B78212A02D0222A1ED1D3
:1008F00014E09C421BD1124A1378124A12780BB9A9
:10090000012A14D042B1104A026010460F4A1288E0
:1009100010442860092007E00D4AF5E79C4206D103
:100920000C4828600C4800880860012030BD002079
:1009300030BD0000B805002018030020B0050020DD
:10094000E18301089F050020170300201E030020FB
:10095000981F0020708401089284010870B51C481B
:100960001B4C0078A4F1080410F01F000AD0184AAC
:10097000A4F11403174D59781279012806D00228E2
:1009800024D109E01248163820601DE0F1B19878B2
:1009900082421BD2002015E002F08F00020605D52E
:1009A00000F00F064FF48032B24001E00122824095
:1009B00009B900070AD19868104207D0D8681040DA
:1009C00000D0012028802560012070BD002070BD6E
:1009D000B80500206020002070B5264B024619465D
:1009E0001878498810F01F00A3F11C0604D00128D4
:1009F00029D0022827D111E0012924D132B10120C8
:100A000000F076FAF08840F0020005E0002000F0E7
:100A10006FFAF08820F00200F08029E0187900F0E9
:100A20008F04200605D504F00F004FF48035854073
:100A300001E00125A540707828B1200703D0B068F7
:100A4000284200D009B1002070BD2AB1204600F034
:100A50001DFAF06828430AE03069284208D1204690
:100A6000FEF7E2F92046FFF77FFEF068A843F0604A
:100A7000012070BDB80500202DE9F05F5A4800261E
:100A8000017811F01F0F7DD1574F80781C3FB14680
:100A90004FF0010A4FF4803B00287AD05348017888
:100AA0003846C07809B901286CD008B1504C6CE0C8
:100AB000504C6AE06078022805D0042845D005280B
:100AC00045D007285CD148486179807881423AD185
:100AD000787020794949B8700020474A098802E0B7
:100AE00002F80090401C8842FAD30125B8460AFA61
:100AF00005F0D8F80810084202D02846FEF7E9F9B8
:100B0000D8F808100BFA05F0084203D045F0800031
:100B1000FEF7DFF96D1C102DE9D34FF00110C8E985
:100B200002090120C8F81090FEF796F9E079400616
:100B3000B8F8060002D540F0010001E020F0010005
:100B4000A8F806001CE060881BE0E67818E0BEB953
:100B5000A07800F08F05280604D505F00F010BFAE8
:100B600001F001E00AFA05F0B96801432046B960D6
:100B7000FEF766F92846FEF7C0F9284600F026F988
:100B8000207801E02BE004E004442078002891D193
:100B900020E04D4687F8019001245E46B9680AFAC4
:100BA00004F0084202D02046FEF793F9B96806FA2D
:100BB00004F0084203D044F08000FEF78AF9641C78
:100BC000102CEBD34FF00110C7E9020500203D6166
:100BD000FEF742F9044879788078884202D00020F4
:100BE000BDE8F09F0120FBE7B8050020E183010884
:100BF00017030020981F0020AF0400201C030020D2
:100C00002DE9F84F444800273E460078BA4600F0E8
:100C10001F00B94601287CD13F491C39487800287B
:100C200074D0002000903D4802780846C0780AB988
:100C300001286ED08B4608B1394C63E0394C61E035
:100C40006078022805D004280AD005281AD0072881
:100C500056D161799BF80100814251D0608850E003
:100C60002D48A778E67801794FF00009B94247D1BD
:100C70008078B04244D1012000902B4810F807A0A2
:100C8000C6553DE024490879B84239D1A07800F032
:100C90008F085FEA086005D508F00F004FF4803533
:100CA000854002E0012505FA08F58878B04215D1A3
:100CB000DBF8081020462943CBF80810DBF80C10AD
:100CC000A943CBF80C10FEF7BBF84046FEF715F928
:100CD000404600F07BF849EA050911E056450FD17E
:100CE00019EA050F0CD1DBF808104046A943CBF8F0
:100CF0000810DBF80C10A943CBF80C10FEF7E9F84C
:100D000020780444207800289AD10098BDE8F88F14
:100D1000FFE70020FAE70000B8050020E1830108A2
:100D200017030020981F0020AF040020234910B5AE
:100D30000820C1F88001BFF34F8FBFF36F8F0120F0
:100D40000024810001F1A04181F8C040401C10281E
:100D5000F7D319211A48FBF7E0FC1A491A48402238
:100D60004C608C60CC600C704C70428000F1C00212
:100D70004260C8220270047200F5A072C461426130
:100D80004FF0A0400D2280F8C0204FF055320A618C
:100D900050F8941F41F0020140F81419FF2101603E
:100DA0008160C1608461054910203B3181F80004F5
:100DB000BDE81040432000F003B9000008E000E067
:100DC000C02A0020C004002000240020F0B51D4BE4
:100DD0001D4D5FEA006C1A684FF000044FF00106E9
:100DE000A5F1C00700F00F0111D506EB41008640C8
:100DF000EFF3108072B6324380F310881A6007EB6D
:100E0000411005EB01228032C4614261F0BD4FEA1E
:100E1000400C06FA0CF66FEA060CEFF3108672B679
:100E200002EA0C0286F310881A60064A121D125C50
:100E300007EB411005EB01214280416088210170E0
:100E40000472F0BDD0040020C024002010B5FDF7CE
:100E500065FFBDE81040FFF751BB4FF0A04050F8D0
:100E6000841F21F020010160704710B5FEF70EFCD1
:100E7000FDF758FF00F0D7F910BD002905D14FF05C
:100E8000A04100F07F00C1F8980070470007800E75
:100E900000F1A040C030017841F0020101707047BC
:100EA000082202490020FFF7C9BB0000B805002056
:100EB00002484FF40071006902F024BA4800002093
:100EC00000221146802000F015B8000002480349B6
:100ED00002780020FFF7B2BBE38301086020002006
:100EE0004FF0A04050F8841F41F02001016070478E
:100EF0007047000070B500F00F00022303EB800480
:100F0000134800EBC40300F1C0055A80002305EB31
:100F1000841502E0CE5CEE545B1C9342FAD30D4B79
:100F200061081B6923FA01F5ED0701D0882500E06F
:100F3000C82500F8345001248C40EFF3108072B6BD
:100F400004491031634080F3108810460B6070BD77
:100F500000240020C004002010B501210806FCF781
:100F600075FE154801686FF30F01016001684BF6CB
:100F70007F3211430160016821F040510160016836
:100F800041F000510160001F016841F04001016023
:100F9000016841F0200101600120FCF78FFF012171
:100FA0008020FCF73BFE4FF0A04050F8941F41F02A
:100FB0000101016010BD0000046C0040002070477A
:100FC000002809DB00F01F02012191404009800048
:100FD00000F1E020C0F8001170470000EFF3088432
:100FE00000F00F010D2901D1EFF30984A18B04F169
:100FF0002005890500D52D1DC10600D4483500F017
:10100000EBFAEFF3098000F0E7FAEFF3088000F065
:10101000E3FAEFF3148000F0DFFA284600F0DCFA80
:10102000606900F0D9FAA06900F0D6FAE06900F032
:10103000D3FA1248006800F0CFFA1048001F006889
:1010400000F0CAFA0D48001D006800F0C5FA0B4810
:101050001030006800F0C0FA08480830006800F05E
:10106000BBFA06480C30006800F0B6FA432204A12F
:10107000002000F05EF8FDF7E5FAFEE72CED00E059
:101080002E2E5C2E2E5C2E2E5C736F757263655C4B
:101090006461706C696E6B5C486172644661756C0A
:1010A000745F48616E646C65722E630010B5002A2F
:1010B00006DA22F00042D21D22F00703102203E0DC
:1010C000D21C22F003030C2213B19C188C4201D9CC
:1010D000012010BD024401448360C0E90021C91A07
:1010E000D018884202D810600246F9E7002010604C
:1010F00010BD000010B5044603F0B0FB002805D079
:101100004FF6FF71DFF808C0206800DF10BD000057
:101110001543010810B5044603F0A0FB002803D0D6
:10112000DFF808C0206800DF10BD0000654201083C
:1011300070472DE9F04116460F46002818D1EFF30D
:10114000108572B600231A461946184600F064FA54
:10115000040003D13146384600F0B0FA85F3108818
:10116000002C05D1EFF30380C00601D105F072FF1A
:10117000BDE8F0812DE9F041DFF89480012140467F
:10118000FBF774FBE8B32248203000682049C0F325
:101190000B00243109681F4DC1F30B042988084452
:1011A00000EB800006F06EFC1B4F394606F088FB12
:1011B00006F048FC86B22E806888204400EB800050
:1011C00006F060FC394606F07BFB06F03BFC84B27F
:1011D0006C8040F6E440464340F6FF75B6FBF5F000
:1011E00000EB400006F04EFC0A4E0A3E306140F62D
:1011F000E4404443B4FBF5F000EB400006F042FC51
:1012000070614046BDE8F0410121FBF77FBB000063
:1012100000240140EA02002000002041704770478E
:1012200000207047704770477047704710B52822FC
:101230000D490E48FBF715FA05F0CEFF0C4805F0F6
:10124000C5FF05F0F7FD0B490B4A0C4B08604FF446
:101250000071B0FBF1F01160094901221A600860C9
:1012600009490848086010BD087E01084C1200209A
:10127000151D010818060020F4050020F8050020BF
:10128000FC0500204C1000200006002008B50028B6
:10129000009001D0401EFAE708BD00B591B0FDF7FF
:1012A00079FB402801D9402000E060B181B2684656
:1012B00004F0B4FF010006D06846FDF793FB10B1BF
:1012C000012001F049FE05F037F80146402801D918
:1012D000402100E059B16846FDF768FB38B181B2A2
:1012E000684605F017F810B1012001F035FE01F055
:1012F0004BFE11B000BD0000044841788078814267
:1013000001D0012070470020704700000401002038
:1013100030B50546EFF3108472B600F006F8A96800
:10132000081A84F31088401E30BDEFF3108372B6A4
:10133000D0E900128A4201D3501A02E080681044BA
:10134000401A83F310887047EFF3108372B6C0E938
:1013500002210021016083F3108841607047000082
:1013600070B50446EFF3108572B6D4E900018842E7
:1013700001D0012000E0002042220EA1FFF7D9FE9B
:10138000E16820680E5C401C2060A16888420CD394
:1013900002D14FF0010001E04FF000004FF0470292
:1013A00004A1FFF7C6FE0020206085F310883046B8
:1013B00070BD00002E2E5C2E2E5C2E2E5C736F7581
:1013C0007263655C6461706C696E6B5C63697263A7
:1013D0005F6275662E63000070B50446EFF31085FA
:1013E00072B6C068626881546068401C6060A16821
:1013F00088420CD302D14FF0010001E04FF0000011
:101400004FF0300209A1FFF794FE00206060D4E99C
:101410000001884201D0012000E00020352203A114
:10142000FFF787FE85F3108870BD00002E2E5C2E1E
:101430002E5C2E2E5C736F757263655C6461706CDC
:10144000696E6B5C636972635F6275662E63000030
:101450002DE9F04114460E460746FFF766FF844229
:1014600000D220460546002404E03846FFF778FF06
:101470003055641CAC42F8D32846BDE8F0812DE914
:10148000F04114460E460746FFF742FF844200D261
:1014900020460546002404E0315D3846FFF79CFFF6
:1014A000641CAC42F8D32846BDE8F08110B5084969
:1014B0004FF400742246A1F11000FFF745FF2246C9
:1014C0000449BDE81040A1F11000FFF73DBF000046
:1014D000881B0020981D002000F00ABD00F008BD08
:1014E0000248807AC0F300007047000000FC010849
:1014F00002488079002800D0012070471A3100206E
:101500000248C079002800D0012070471A3100201D
:101510000248807AC0F340007047000000FC0108D8
:101520000248407A002800D0012070471A3100207C
:101530000248807A40F38000401C704700FC01089C
:101540002DE9F0418E212148FBF7C5F8204C214FB1
:101550008E2520681D4EB84210D1A5888E2D01D24F
:101560002A4601E04FF08E0201D84FF08E0518494F
:101570001648FAF7EFFF002086F847008E2114483E
:10158000FBF7A9F82760A58041223546F11DE01D33
:10159000FAF7E0FF35F8480F24F8480FA878A07054
:1015A000E878E0708200094909484C314C30FAF77C
:1015B000D1FF95F8440084F8440095F8450084F87C
:1015C0004500BDE8F04100F0B9B800008C300020C3
:1015D00000BF0020646C766B074A92F84B1010290C
:1015E00001D30020704702EB8101C86412F84B0F51
:1015F000401CC0B21070704700BF002010B5054CF1
:101600004121E01DFBF767F8002024F8480FE07047
:1016100010BD000000BF00202DE9F047184F8146A3
:101620001D4616468846F81DFAF71EFF441CB9F100
:10163000000002D04146FBF74EF8002006B1308092
:1016400005B12870F879002818D0444502D8F91D52
:10165000224604E0A4EB0800C1194246C91DB9F1B5
:10166000000F02D0B7F84800308016B14846FAF7AC
:1016700071FF15B197F84A0028700120BDE8F08786
:1016800000BF0020014890F88C00704700BF002088
:10169000054A92F84B1029B102F14C01016092F811
:1016A0004B0070470020704700BF0020024880793F
:1016B000002800D00120704700BF00202DE9F04134
:1016C00088460746FAF7D0FE104D441C41263146A5
:1016D000E81DFBF700F8412C02D83946224602E00B
:1016E000413CE11932462C46E81DFAF733FFA4F8D5
:1016F000488000F047F908B1012003E000F044F908
:1017000000B1022084F84A00BDE8F08100BF00204B
:10171000014981F88C00704700BF002002498871A0
:10172000024908707047000000BF002000C0002080
:10173000014981F88D00704700BF002070B500227C
:1017400011461046FCF7C5F81948184C016821608D
:101750004168616001892181807AA0720B2115485E
:1017600000F05AFE144E134D60B12868B04209D102
:10177000A8880B2801D2AA8800E00B220D490B484B
:10178000FAF7E8FE0B202660A0800146094800F029
:1017900043FE28B12868B04202D1A8880B2804D2A1
:1017A000BDE87040014802F007B870BD1A31002052
:1017B0006C86010800FC0108646C766B084A10B561
:1017C000917A10B141F0010001E021F00100907226
:1017D000012000F035F8BDE81040014801F0ECBFF1
:1017E0001A31002002498871084601F0E5BF000067
:1017F0001A3100200249C871084601F0DDBF00001F
:101800001A310020054A917A10B141F0020001E03E
:1018100021F002009072014801F0CEBF1A31002081
:1018200002494872084601F0C7BF00001A31002083
:1018300002490872084601F0BFBF00001A310020BB
:10184000054A917A28B121F004009072024801F013
:10185000B3BF41F00400F8E71A3100202DE9F04150
:101860000F4606464FF0FF340025DFF83C8012E0BB
:10187000705D082102F0B6FA84EA0064082041464F
:10188000002C02DA81EA440400E06400401E10F0FB
:10189000FF00F5D16D1CBD42EADB2021204602F09D
:1018A000A1FAC043BDE8F081B71DC1042DE9F041A4
:1018B0000E4617462021C04302F094FA0446002544
:1018C000DFF83C8012E0705D082102F08BFA84EAB8
:1018D000006408204146002C02DA81EA440400E05A
:1018E0006400401E10F0FF00F5D16D1CBD42EADB24
:1018F0002021204602F076FAC043BDE8F0810000C6
:10190000B71DC10470B514460D460646B2F5806F8A
:1019100007D240F2DD120AA10020FFF70AFC0220E4
:1019200070BD00F03BFD08B1102070BD2A46214675
:10193000304600F0CFFE0028F7D0202070BD000018
:101940002E2E5C2E2E5C2E2E5C736F757263655C82
:101950006461706C696E6B5C647261672D6E2D647E
:10196000726F705C6961705F666C6173685F696EED
:1019700074662E6300000000C10600F00F0000D462
:1019800009307047002070470120704770B5114D35
:1019900011482C69844209DB2146104806F0D0F832
:1019A0000F4905F08DFF06F04DF828810D4884425F
:1019B00001DD012000E000202870697820EA0102A2
:1019C00008B109B90120687012B1052003F022F8AE
:1019D000002070BDE002002000404E4500409C45C4
:1019E000000020410000E14410B500231A4600F039
:1019F000B7FA002800D0012010BD10B505F038F965
:101A0000012800D0002010BD2DE9F041154E144DE5
:101A10004FF000643078012806D040F2371212A14E
:101A20000020FFF786FB09E0B078022748B140F2BA
:101A30003D120DA10020FFF77CFB37700220BDE8AE
:101A4000F081204600F02CF810B137702220F6E724
:101A500004F58064AC42F4D30120B0700020EEE7BE
:101A600000BC0008D80000202E2E5C2E2E5C2E2EEE
:101A70005C736F757263655C6461706C696E6B5CDE
:101A8000647261672D6E2D64726F705C6961705F46
:101A9000666C6173685F696E74662E630000000097
:101AA00070B5204E04463078012805D0FF221EA1D3
:101AB0000020FFF73EFB18E04FF48060B4FBF0F12C
:101AC00000FB1141022511B140F2071208E0F17844
