:020000040800F2
:1000000000E00120590200084D0200084D020008DE
:100010004D0200084D0200084D02000800000000DB
:100020000000000000000000000000004D02000879
:100030004D020008000000004D0200084D020008BB
:100040004D0200084D0200084D0200084D02000854
:100050004D0200084D0200084D0200084D02000844
:100060004D0200084D0200084D0200084D02000834
:100070004D0200084D0200084D0200084D02000824
:100080004D0200084D0200084D0200084D02000814
:10009000000000004D020008000000004D020008B2
:1000A0004D0200084D0200084D0200084D020008F4
:1000B0004D0200084D0200084D0200084D020008E4
:1000C000000000004D020008000000004D02000882
:1000D0004D0200084D0200084D0200084D020008C4
:1000E0004D0200084D0200084D0200084D020008B4
:1000F0004D0200084D0200084D0200084D020008A4
:10010000000000004D0200084D0200084D020008EA
:100110004D0200084D0200084D0200084D02000883
:100120004D0200084D0200084D0200084D02000873
:100130004D0200084D020008000000000000000011
:100140004D02000800000000000000004D02000801
:100150000000000000000000000000004D02000848
:10016000000000000000000000000000000000008F
:10017000000000000000000000000000000000007F
:1001800000000000000000004D0200084D020008C1
:1001900010B5054C237833B9044B13B10448AFF3C1
:1001A00000800123237010BD5005002000000000D6
:1001B0001061000808B5034B1BB103490348AFF3B6
:1001C000008008BD000000005405002010610008F8
:1001D000A3F5803A704700BF174B002B08BF134BA5
:1001E0009D46FFF7F5FF00218B460F461348144A42
:1001F000121A04F0BFFF0E4B002B00D098470D4B96
:10020000002B00D098470020002104000D000D486D
:10021000002802D00C4805F06DF804F083FF2000A0
:10022000290001F019FB04F06DFF00BF0000080079
:100230000000000000000000000000005005002049
:1002400045070020F55200080153000880B400AFB4
:10025000FEE780B400AFFEE7B0B500AF0C4D0D4C2B
:1002600005E02A46551C23465C1C12781A700A4B7E
:100270009C42F6D3094C03E023465C1C00221A7012
:10028000074B9C42F8D304F0ABFC01F0E5FAFEE723
:100290001C610008000000204405002050050020DB
:1002A0004507002080B58AB002AF78600B467B809E
:1002B00013463B807B681B68FB617B68DB68BB6126
:1002C0007B685B687B617B689B683B617B88FB81AB
:1002D000B7F90E3000933B697A69B969F86900F0A3
:1002E0000EF803461A463B881946104600F05AFE9F
:1002F00003463B803B8818462037BD4680BD80B50D
:1003000086B000AFF860B9607A603B600023FB8282
:100310003B8C6FEA03536FEA1353BB82B7F920306B
:100320001A467968F86800F08AF9B7F920307A68D7
:10033000B968F86800F048F9B7F914301A46B96896
:10034000F86800F0EEF803461A46FB8A1946104694
:1003500000F028FE0346FB823B687A68B968F868BB
:1003600000F0A8F9B7F914301A46B968F86800F037
:10037000D8F803461A46FB8A1946104600F012FECA
:100380000346FB823B687A68B968F86800F0D8F9E0
:10039000B7F914301A46B968F86800F0C2F8034695
:1003A0001A46FB8A1946104600F0FCFD0346FB8204
:1003B0003B687A68B968F86800F026FAB7F9143033
:1003C0001A46B968F86800F0ACF803461A46FB8A8A
:1003D0001946104600F0E6FD0346FB823B8C5B426B
:1003E0009BB21BB21A467968F86800F028F9B7F991
:1003F000163018461837BD4680BD80B48DB000AFAA
:10040000F860B9607A603B6000233B620123FB62C5
:100410000023BB6200237B627B68002B0AD101238F
:100420007B6007E0BB6A0133BB62BB6A03FB03F37B
:10043000DB007B627A6AFB689A42F3D3BB6A013BBA
:100440003B62BB68013B23F003030433FB613B6A5F
:1004500003FB03F35B00FA691344BB610023BB6237
:100460003FE000237B6235E0FB6A7A6802FB03F31E
:100470005A429BB292B258BF53427B607B689AB299
:10048000FB6A9BB213449BB2FB82BB6A3A6A03FBD2
:1004900002F27B6A13445B00BA691344FA8A1A8039
:1004A000FB6A9AB2FB8A13449BB2FB82FB8ADBB2E3
:1004B000FB82BB6A3A6A03FB02F27B6A13445B006D
:1004C000FA691344FA8A1A80FB6A0133FB627B6A79
:1004D00001337B627A6A3B6A9A42C5D3BB6A0133B5
:1004E000BB62BA6A3B6A9A42BBD33B68FA695A60FC
:1004F0003B68BA699A603B6A03FB03F35B00BA6925
:100500001344013B23F0030304331A463B68DA60CB
:100510003A6A3B681A603B6A18463437BD4680BC6D
:10052000704780B48BB000AFF860B9601346FB80B1
:1005300000237B6200233B6200233B610023FB839B
:100540000023BB6135E000237B612BE0BB69FA68C7
:1005500003FB02F27B6913449B00BA6813441B68D7
:100560003B617A6A3B6913447B62B7F906307A6A69
:100570009A4206DDFB8B0A339BB2FB8300237B622E
:100580000BE03A693B6A9A42CCBF01230023DBB2FD
:100590009AB2FB8B13449BB2FB833B693B627B6942
:1005A00001337B617A69FB689A42CFD3BB6901331F
:1005B000BB61BA69FB689A42C5D3B7F91E301846C9
:1005C0002C37BD4680BC704780B487B000AFF86060
:1005D000B9607A607B8000237B6126E000233B6169
:1005E0001CE07B69FA6803FB02F23B6913445B0081
:1005F0007A681344B3F900301846B7F902207B69D2
:10060000F96803FB01F13B690B449B00B9680B449B
:1006100000FB02F21A603B6901333B613A69FB68F7
:100620009A42DED37B6901337B617A69FB689A4227
:10063000D4D300BF00BF1C37BD4680BC704780B418
:1006400087B000AFF860B9601346FB8000237B6180
:1006500026E000233B611CE07B69FA6803FB02F2A1
:100660003B6913445B00BA681344B3F900309AB293
:10067000FB88134499B27B69FA6803FB02F23B6979
:1006800013445B00BA6813440AB21A803B69013311
:100690003B613A69FB689A42DED37B6901337B6137
:1006A0007A69FB689A42D4D300BF00BF1C37BD46AD
:1006B00080BC704780B487B000AFF860B9607A60E2
:1006C0003B6000237B6131E07B699B00BA68134487
:1006D00000221A6000233B6121E07B699B00BA681D
:1006E000134419687B69FA6803FB02F23B691344FF
:1006F0005B007A681344B3F9003018463B695B002D
:100700003A681344B3F9003003FB00F27B699B00A5
:10071000B86803440A441A603B6901333B613A6993
:10072000FB689A42D9D37B6901337B617A69FB68A4
:100730009A42C9D300BF00BF1C37BD4680BC70477A
:1007400080B489B000AFF860B9607A603B60002384
:10075000FB614FE00023BB6145E0FB69FA6803FBE6
:1007600002F2BB6913449B00BA68134400221A606A
:1007700000237B6130E0FB69FA6803FB02F2BB698E
:1007800013449B00BA6813441968FB69FA6803FBB9
:1007900002F27B6913445B007A681344B3F90030BA
:1007A00018467B69FA6803FB02F2BB6913445B00DD
:1007B0003A681344B3F9003003FB00F2FB69F868B0
:1007C00003FB00F0BB6903449B00B86803440A4480
:1007D0001A607B6901337B617A69FB689A42CAD3EC
:1007E000BB690133BB61BA69FB689A42B5D3FB6947
:1007F0000133FB61FA69FB689A42ABD300BF00BFCB
:100800002437BD4680BC704780B489B000AFF86023
:10081000B9607A603B600023FB615CE00023BB6150
:1008200052E0FB69FA6803FB02F2BB6913449B00C8
:10083000BA68134400221A6000237B613DE0FB6923
:10084000FA6803FB02F27B6913445B007A68134485
:10085000B3F9003019467B69FA6803FB02F2BB6901
:1008600013445B003A681344B3F9003001FB03F30F
:100870003B61FB69FA6803FB02F2BB6913449B000E
:10088000BA6813441B6819463B699B1003F00F03B9
:100890003A69521102F07F0202FB03F31944FB692B
:1008A000FA6803FB02F2BB6913449B00BA68134465
:1008B0000A461A607B6901337B617A69FB689A4258
:1008C000BDD3BB690133BB61BA69FB689A42A8D347
:1008D000FB690133FB61FA69FB689A429ED300BF52
:1008E00000BF2437BD4680BC7047000080B598B07B
:1008F00000AFF860B96011461A460B46FB801346FC
:10090000BB80BB687B610023FB6515E0FB6D9B0032
:1009100060333B44002243F8482CFB6D9B0060335E
:100920003B4453F8482CFB6D9B0060333B4443F839
:10093000282CFB6D0133FB65FB6D072BE6D917E017
:1009400007F1180207F114031146184600F062F986
:10095000034687F85A3097F85A20930060333B4497
:1009600053F8283C591C930060333B4443F8281C3F
:100970007B691B78002BE3D1BB687B6110E07B694E
:100980001B782C2B07D07B691978FB88DAB27B693E
:100990004A40D2B21A707A69B7F9683013447B6161
:1009A000BA68FB681A447B699A42E8D8BB687B61E5
:1009B00017E007F1180207F114031146184600F07A
:1009C00029F9034687F85B3097F85B209300603382
:1009D0003B4453F8283C591C930060333B4443F894
:1009E000281C7B691B78002BE3D1BB687B6110E07E
:1009F0007B691B782C2B07D07B691978BB88DAB20E
:100A00007B694A40D2B21A707A69B7F968301344E8
:100A10007B61BA68FB681A447B699A42E8D8002374
:100A2000FB6520E0FB6D9B0060333B4453F8283CA2
:100A3000B7F86C201146184600F096FA0346A7F85E
:100A40006C30FB6D9B0060333B4453F8483CB7F877
:100A50006C201146184600F087FA0346A7F86C3060
:100A6000FB6D0133FB65FB6D072BDBD9B7F86C30F1
:100A700018466037BD4680BD80B489B000AFF860CD
:100A80000B467A607B810023FB610023BB6100235E
:100A90003B61FB68013BFB600023BB6179E0BB6904
:100AA000002B1FD000237B610CE03A697B691A445C
:100AB000F9697B690B4479680B4412781A707B6979
:100AC00001337B617A69BB699A42EED3FA697B692B
:100AD00013447A6813442C221A70BA69FB691344D0
:100AE0000133FB61B7F90A309BB201339BB27B81C2
:100AF0007B8903F00703072B4AD801A252F823F0A1
:100B0000210B0008210B0008210B00083D0B0008F9
:100B10003D0B0008590B0008590B0008750B000825
:100B2000B7F90A30DB101BB29BB203F00303284A6B
:100B300052F823303B610423BB612AE0B7F90A3045
:100B4000DB101BB29BB203F00303224A52F823309E
:100B50003B610823BB611CE0B7F90A30DB101BB214
:100B60009BB203F003031C4A52F823303B61082375
:100B7000BB610EE0B7F90A30DB101BB29BB203F089
:100B80000303164A52F823303B610823BB6100E09F
:100B900000BFFA69BB6913440133FA689A423FF611
:100BA0007EAFFB680133FB6007E07A68FB691344A2
:100BB00000221A70FB690133FB61FA69FB689A42F3
:100BC000F3D300BF00BF2437BD4680BC704700BFD1
:100BD0000400002014000020240000203400002025
:100BE00080B485B000AF0346FB71FB792F2B8CBF1F
:100BF00001230023DAB2FB79392B94BF01230023B0
:100C0000DBB21340DBB2FB73FB7B18461437BD46E7
:100C100080BC704780B584B000AF786039607B6875
:100C20001B68FB600023FB72E5E0FB681B78BB726E
:100C3000BB7A2C2B03D1FB680133FB60E3E0FB7A2A
:100C4000072B00F2CE8001A252F823F06D0C0008B1
:100C5000E30D0008B90C00086B0D0008FD0C00083E
:100C6000310D0008970D0008C50D0008BB7A184625
:100C7000FFF7B6FF0346002B02D00423FB7215E0FA
:100C8000BB7A2B2B02D0BB7A2D2B02D10223FB7215
:100C90000CE0BB7A2E2B02D10523FB7206E0012368
:100CA000FB723B6804331A6801321A603B681B68A8
:100CB0005A1C3B681A609BE0BB7A1846FFF790FF0E
:100CC0000346002B07D00423FB723B6808331A68E5
:100CD00001321A608CE0BB7A2E2B07D10523FB7200
:100CE0003B6808331A6801321A6081E00123FB7205
:100CF0003B6808331A6801321A6079E0BB7A2E2B00
:100D000007D10523FB723B6810331A6801321A6061
:100D100069E0BB7A1846FFF763FF0346002B62D1F8
:100D20000123FB723B6810331A6801321A605AE0E3
:100D3000BB7A452B02D0BB7A652B07D10323FB720C
:100D40003B6814331A6801321A604EE0BB7A1846C9
:100D5000FFF746FF0346002B47D10123FB723B6898
:100D600014331A6801321A603FE0BB7A2B2B02D091
:100D7000BB7A2D2B07D10623FB723B680C331A6814
:100D800001321A6034E00123FB723B680C331A68AD
:100D900001321A602CE0BB7A1846FFF721FF0346A8
:100DA000002B07D00723FB723B6818331A68013207
:100DB0001A601DE00123FB723B6818331A68013288
:100DC0001A6015E0BB7A1846FFF70AFF0346002BAE
:100DD0000DD10123FB723B6804331A6801321A609B
:100DE00005E000BF04E000BF02E000BF00E000BF7C
:100DF000FB680133FB60FB681B78002B03D0FB7A98
:100E0000012B7FF412AF7B68FA681A60FB7A1846F0
:100E10001037BD4680BD00BF80B485B000AF78609C
:100E20007B68013B042B21D801A252F823F000BFBC
:100E3000450E00084D0E0008550E00085D0E000816
:100E4000650E00080E4B1B68FB6012E00D4B1B6823
:100E5000FB600EE00C4B1B68FB600AE00B4B1B6851
:100E6000FB6006E00A4B1B68FB6002E00023FB60AE
:100E700000BFFB6818461437BD4680BC704700BFF2
:100E80006C05002070050020740000207800002010
:100E90007405002080B485B000AF03460A46FB719C
:100EA0001346BB800023FB7300237B730023BB73BB
:100EB0000023FB732EE0BB885AB297F907305340EA
:100EC0005BB2DBB203F001037B73FB795B08FB7160
:100ED0007B7B012B08D1BB8883F4804383F0020322
:100EE000BB800123BB7301E00023BB73BB885B089D
:100EF000BB80BB7B002B06D0BB886FEA43436FEA05
:100F00005343BB8003E0BB88C3F30E03BB80FB7B72
:100F10000133FB73FB7B072BCDD9BB8818461437F5
:100F2000BD4680BC704780B582B000AF03460A461C
:100F3000FB801346BB80FB88DBB2BA88114618469B
:100F4000FFF7A8FF0346BB80FB881B0A9BB2DBB2FE
:100F5000BA8811461846FFF79DFF0346BB80BB8841
:100F600018460837BD4680BD80B582B000AF7860B6
:100F70000B467B807B681BB27A881146184600F0CE
:100F800011F803467B807B681B0C1BB27A881146E4
:100F9000184600F007F803467B807B881846083720
:100FA000BD4680BD80B582B000AF03460A46FB80D7
:100FB0001346BB80FB88BA8811461846FFF7B3FF7B
:100FC000034618460837BD4680BD80B582B000AFE5
:100FD0000023FB71FB79002B02D0044801F01CFDBB
:100FE000FB7918460837BD4680BD00BF0860000881
:100FF00090B589B002AF786039607B681B887B82CE
:10100000B7F91230DB111BB2DBB203F001037B74C2
:101010007B7C002B04D07B8A03F07F031BB272E041
:101020007B8A03F00703FB81B7F91230DB101BB298
:1010300003F00F03BB82B7F914301B011AB2BB8A4D
:101040001343BB82B7F90E30002B02D0012B23D003
:1010500036E0B7F91430212B01DC2223BB823B6838
:1010600098693B6859693B68B3F900203B68B3F95C
:1010700002403B681B8F0193B7F91430009323465D
:10108000FFF734FC0346FB823B68DB8F002B1AD151
:10109000FA8A3B68DA8716E03B6803F128003B6870
:1010A0001A8FB7F914301946FFF7FCF80346FB8294
:1010B0003B689B8F002B08D1FA8A3B689A8704E033
:1010C0007B8AFB8202E000BF00E000BFFA8A3B6837
:1010D0001B8F19461046FFF726FF03461A463B684A
:1010E0001A87FB8A03F07F03FB827B8A23F0FF03CE
:1010F0001BB243F080031AB2FB8A13431AB27B6817
:101100001A80B7F9163018461C37BD4690BD80B519
:1011100086B000AFF860B9607A60FB6879681846FD
:10112000FFF766FF0346FB82BB6879681846FFF746
:101130005FFF0346BB82B7F91620B7F91430D31A04
:1011400018461837BD4680BD80B485B000AFF86042
:10115000B9607A607B68002B21D1FB68B3F900305D
:1011600023F0FF031AB2FB68B3F900309BB21B0AED
:101170009BB21BB213431AB2FB681A80BB68B3F967
:10118000003023F0FF031AB2BB68B3F900309BB202
:101190001B0A9BB21BB213431AB2BB681A80FB68CE
:1011A000B3F902301A46BB68B3F90230D31A1846B5
:1011B0001437BD4680BC704780B483B000AF786000
:1011C00039603B68B3F900207B681A803B68B3F94B
:1011D00002207B685A8000BF0C37BD4680BC704738
:1011E00080B58AB000AF78600B467B800023FB841B
:1011F0000023BB8400237B847B685B6AFB617B6884
:101200009B88BB827B887B810023FB825FE0FB8A1B
:10121000DBB21BB23B8107F108031946F86900F005
:10122000F1F9F860F86900F020FAF861FB68002B2A
:1012300011D17B8C01337B84FB691B685B68B3F93C
:1012400000301B121BB29BB203F001039AB2FB8C5D
:101250001344FB842AE0BB8C0133BB84FB685B68CE
:10126000B3F900309BB203F00103002B0CD0FB68F4
:101270005B68B3F900305B121BB29BB203F0010351
:101280009AB2FB8C1344FB84FB681B68002B0DD0C7
:10129000FB681B68BB61BB691A68FB681A60FB6965
:1012A0001A68BB691A60FB69BA691A60B7F90A3033
:1012B000002B06DBB7F90A309BB201339BB21BB29D
:1012C0007B81B7F916309BB201339BB2FB82B7F931
:1012D0001620B7F914309A4299DBBB8C9B009AB266
:1012E0007B8CD31A9AB2FB8C1344FB84B7F902307F
:1012F000002B05DD7A682849F86900F0D0F9F8611B
:10130000FB691B68184600F042F9386107F10803D1
:101310001946F86900F076F9B861BB69002B11D164
:10132000FB691B68BB610DE0FB695B68B3F90030CA
:10133000FA8C11461846FFF735FE0346FB84BB695D
:101340001B68BB61BB69002BEED1FB691B681946AA
:10135000386900F03BF9386100221049F86900F063
:101360009EF9F861FB691B68BB610DE0FB695B6876
:10137000B3F90030FA8C11461846FFF713FE034606
:10138000FB84BB691B68BB61BB69002BEED1FB8C86
:1013900018462837BD4680BD0F11000849110008C6
:1013A00080B592B002AFF860B9601346FB80142399
:1013B0007B63FA687B6BB2FBF3F3023B3B63BA6877
:1013C0003B6BDB001344FB62FB6ABB61BA693B6B9E
:1013D0009B001344BB62BB687B627B6A00221A607D
:1013E000BA697B6A5A607B6A5B6800225A807B6AB2
:1013F0005B6848F280021A80BB680833BB60BB6937
:101400000433BB6147F6FF73FB824FF6FF73BB8269
:1014100007F1180007F1080207F11401BB6A0193F4
:10142000FB6A00930346786A00F076F80023FB63BA
:101430002AE0FB6B9AB2FB8853409BB203F00F0388
:101440003B843B8CDB009AB2FB6B9BB203F007033F
:101450009BB21343FB83FB8B1B021AB2B7F91E30FE
:1014600013431BB2BB8207F1180007F1080207F112
:101470001401BB6A0193FB6A00930346786A00F08B
:101480004BF8FB6B0133FB63FA6B3B6B9A42D0D397
:101490007B6A1B68BB630123FB632AE03B6B1C4A2E
:1014A000A2FB03239B08FA6B9A4207D2FB6B5A1CE0
:1014B000FA63BA6B52681BB2538017E0FB6B5A1C7D
:1014C000FA639AB2FB8853407B84FB6B9BB21B028E
:1014D0009BB203F4E0639AB27B8C13439BB21AB2C3
:1014E000BB6B5B68C2F30D0212B25A80BB6B1B6808
:1014F000BB63BB6B1B68002BD0D100220549786A07
:1015000000F0CDF878627B6A18464037BD4680BD52
:10151000CDCCCCCC4911000880B586B000AFF860C6
:10152000B9607A603B607B681B6808333A6A9A420C
:1015300001D8002327E03B681B6804337A6A9A428B
:1015400001D800231FE07B681B687B617B681B68F8
:1015500003F108027B681A60FB681A687B691A60ED
:10156000FB687A691A603B681A687B695A603B6855
:101570001B681A1D3B681A607B695B68B96818466E
:10158000FFF71AFE7B6918461837BD4680BD80B448
:1015900085B000AF78607B681B68FB607B685B6828
:1015A000BB60FB685A687B685A60FB68BA685A601F
:1015B0007B681B681A687B681A60FB6800221A60E7
:1015C000FB6818461437BD4680BC704780B485B0B0
:1015D00000AF786039607B685B68FB603B685A6885
:1015E0007B685A603B68FA685A603B681A687B6897
:1015F0001A603B687A681A607B6818461437BD46E3
:1016000080BC704780B483B000AF786039603B68BD
:10161000B3F90230002B14DB02E07B681B687B60AF
:101620007B68002B08D07B685B68B3F902203B68BD
:10163000B3F902309A42F0D17B6811E07B681B68F5
:101640007B607B68002B0AD07B685B68B3F9003055
:101650009BB2DBB23A68B2F900209342EED17B68CC
:1016600018460C37BD4680BC704780B485B000AFCB
:1016700078600023FB6009E07B681B68BB607B68C7
:10168000FA681A607B68FB60BB687B607B68002B34
:10169000F2D1FB6818461437BD4680BC704780B550
:1016A0008EB000AFF860B9607A6001237B62FB689E
:1016B0007B630023FB600023BB6200233B626AE084
:1016C0003B6A01333B627B6B3B630023FB6100237E
:1016D0007B610BE0FB690133FB613B6B1B683B6388
:1016E0003B6B002B07D07B6901337B617A697B6A96
:1016F0009A42EFDB00E000BF7B6ABB6140E0FB6920
:10170000002B08D13B6BFB623B6B1B683B63BB69E7
:10171000013BBB6129E0BB69002B02D03B6B002B76
:1017200008D17B6BFB627B6B1B687B63FB69013BB6
:10173000FB611AE07B6B58683B6B5968BB687A6841
:1017400098470346002B08DC7B6BFB627B6B1B68B6
:101750007B63FB69013BFB6107E03B6BFB623B6B1F
:101760001B683B63BB69013BBB61BB6A002B03D0B9
:10177000BB6AFA6A1A6001E0FB6AFB60FB6ABB6243
:10178000FB69002BBBDCBB69002B02DD3B6B002B34
:10179000B5D13B6B7B637B6B002B91D1BB6A002285
:1017A0001A603B6A012B01DCFB6803E07B6A5B008B
:1017B0007B627CE718463837BD4680BD80B586B071
:1017C00000AF78607B683B613B69DB69FB603B692C
:1017D00000221A873B6900225A873B6900229A87B8
:1017E0003B690022DA8700237B612CE00121386904
:1017F000FFF7F6FC03467B813B691A8F7B89114614
:101800001846FFF790FB03461A463B691A874FF0CC
:10181000FF313869FFF7E4FC03467B813B691A8F8F
:101820007B8911461846FFF77EFB03461A463B6943
:101830001A877B69002B03D13B691A8F3B695A8752
:101840007B6901337B617A69FB689A42CED30023BE
:1018500018461837BD4680BD80B5ADF6280D00AFDF
:1018600007F62803A3F62403186007F62803A3F657
:10187000280319600023A7F822380023A7F820388E
:101880004FF6FF73A7F81E380023A7F81C38002373
:10189000A7F824384FF4614001F0E4FAB7F826388D
:1018A0005A1CA7F82628DBB21946024801F025FB8E
:1018B000F4E700BF0038014080B483B000AF786027
:1018C0003960002318460C37BD4680BC704700BF06
:1018D00080B400AF00231846BD4680BC704780B579
:1018E00000AFFFF7F5FF0346014A136000BF80BD5C
:1018F0007805002080B500AFFFF7EAFF0346024AF3
:10190000136000BF80BD00BF7C05002080B483B0A1
:1019100000AF064B1A68064B1B68D31A7B607B68C6
:1019200018460C37BD4680BC704700BF7C050020C0
:101930007805002080B584B000AF7860786803F047
:10194000BDFF4FF00002074B04F05CF902460B4666
:10195000C7E90223D7E90223104619461037BD46CE
:1019600080BD00BF0000594080B485B000AFF86072
:10197000B9607A60FB6801221A7000BF1437BD4657
:1019800080BC704780B483B000AF78607B68002271
:101990001A7000BF0C37BD4680BC704780B485B05C
:1019A00000AF786039607B68FB6002E0FB68013360
:1019B000FB60FB681B78002B04D03B685A1E3A6022
:1019C000002BF3D1FA687B68D31A18461437BD464A
:1019D00080BC704780B485B000AF78600023FB60A6
:1019E0000EE0FA6813469B0013445B0018467B68C0
:1019F0001B68591C7A6811601B780344303BFB60FC
:101A00007B681B681B782F2B04D97B681B681B78AD
:101A1000392BE6D9FB6818461437BD4680BC7047A1
:101A200080B499B000AFF860B9607A603B60854BD4
:101A30001B68BB65FB6E03F04003002B02D0824B9A
:101A40001B68BB65FB6E03F01003002B03D0FB6E1D
:101A500023F00103FB667B68012B02DD7B68242BEE
:101A600001DD0023E8E0FB6E03F00103002B01D051
:101A7000302300E0202387F85330002387F85F30BD
:101A8000FB6E03F00203002B23D0BB68002B09DAA6
:101A90002D2387F85F30BB685B42BB603B68013B2E
:101AA0003B6016E0FB6E03F00403002B06D02B23F3
:101AB00087F85F303B68013B3B600AE0FB6E03F058
:101AC0000803002B05D0202387F85F303B68013BDB
:101AD0003B60FB6E03F02003002B0CD07B68102BC7
:101AE00003D13B68023B3B6005E07B68082B02D1D9
:101AF0003B68013B3B6000237B65BB68002B1ED12C
:101B00007B6D5A1C7A6560333B44302203F8502CBD
:101B100018E0BB687A68B3FBF2F101FB02F29B1A92
:101B2000BA6D1A447B6D591C7965127860333B4459
:101B300003F8502CBA687B68B2FBF3F3BB60BB6858
:101B4000002BE6D17A6DBB6E9A4201DD7B6DBB66E0
:101B50003A68BB6ED31A3B60FB6E03F01103002B97
:101B60000AD104E0FB685A1CFA6020221A703B6814
:101B70005A1E3A60002BF5DC97F85F30002B05D039
:101B8000FB685A1CFA6097F85F201A70FB6E03F02E
:101B90002003002B18D07B68082B05D1FB685A1C4A
:101BA000FA6030221A700FE07B68102B0CD1FB68B2
:101BB0005A1CFA6030221A70224B1A68FB68591CB2
:101BC000F96092F821201A70FB6E03F01003002BCD
:101BD00011D105E0FB685A1CFA6097F853201A707F
:101BE0003B685A1E3A60002BF4DC04E0FB685A1C88
:101BF000FA6030221A70BB6E5A1EBA667A6D9A422B
:101C0000F4DB08E0FB685A1CFA6007F110017A6DFA
:101C10000A4412781A707B6D5A1E7A65002BF1DC2B
:101C200004E0FB685A1CFA6020221A703B685A1EB6
:101C30003A60002BF5DCFB6818466437BD4680BC73
:101C4000704700BF800000208400002080B48FB067
:101C500000AFF860B9607A603B603C4B1B687B6307
:101C60003B6C03F04003002B02D0394B1B687B63B5
:101C70000023FB6200233B632EE03B6B002B07D06D
:101C8000FB6A5A1CFA6238333B443A2203F8242C8C
:101C90003B6BBA6813441B781B09DBB21A467B6B9B
:101CA0001A44FB6A591CF962127838333B4403F832
:101CB000242C3B6BBA6813441B7803F00F037A6B38
:101CC0001A44FB6A591CF962127838333B4403F812
:101CD000242C3B6B01333B633B6B052BCDDD3B6C15
:101CE00003F01003002B0BD104E0FB685A1CFA60D0
:101CF00020221A707B685A1E7A60FA6A9A42F4DBD4
:101D000000233B630BE0FB685A1CFA6007F11401E7
:101D10003A6B0A4412781A703B6B01333B633A6B9F
:101D2000FB6A9A42EFDB04E0FB685A1CFA6020224F
:101D30001A707B685A1E7A60FA6A9A42F4DBFB6872
:101D400018463C37BD4680BC704700BF800000206D
:101D50008400002080B48FB000AFF860B9607A6072
:101D60003B600023FB6200237B638FE07B6B002BD7
:101D700007D0FB6A5A1CFA6238333B442E2203F820
:101D8000242C7B6BBA6813441B783B633B6B002BA2
:101D90000AD15B4B1A68FB6A591CF9621278383316
:101DA0003B4403F8242C6EE03B6B632B3DDD544B2E
:101DB0001A683B6B534981FB03014911DB17CB1AAE
:101DC0001A44FB6A591CF962127838333B4403F811
:101DD000242C3B6B4B4A82FB03125111DA178A1AEF
:101DE000642101FB02F29B1A3B63454B1A683B6B73
:101DF000454981FB03018910DB17CB1A1A44FB6AA2
:101E0000591CF962127838333B4403F8242C3A6B9E
:101E10003D4B83FB02139910D317C91A0B469B0045
:101E20000B445B00D31A3B6321E03B6B092B1EDDA7
:101E3000334B1A683B6B344981FB03018910DB1774
:101E4000CB1A1A44FB6A591CF962127838333B44A6
:101E500003F8242C3A6B2C4B83FB02139910D317F5
:101E6000C91A0B469B000B445B00D31A3B63244BFF
:101E70001A683B6B1A44FB6A591CF96212783833B2
:101E80003B4403F8242C7B6B01337B637B6B032B7C
:101E90007FF76CAF3B6C03F01003002B0BD104E019
:101EA000FB685A1CFA6020221A707B685A1E7A60FE
:101EB000FA6A9A42F4DB00237B630BE0FB685A1C4E
:101EC000FA6007F114017A6B0A4412781A707B6B7E
:101ED00001337B637A6BFB6A9A42EFDB04E0FB68B9
:101EE0005A1CFA6020221A707B685A1E7A60FA6ABD
:101EF0009A42F4DBFB6818463C37BD4680BC70470D
:101F0000800000201F85EB516766666680B487B04D
:101F100000AFF860B9607A607B68BA6813447B618F
:101F200007E0BA68531CBB60FB68591CF960127863
:101F30001A70BA687B699A42F3D100BF00BF1C37A0
:101F4000BD4680BC704780B5A2B002AFC7E90201B0
:101F50007A60FB7000237B6700233B67FB78472B8D
:101F600002D0FB78452B04D101233B67FB7820335B
:101F7000FB70FB78672B2BD107F1680207F1140384
:101F8000019307F1640300931346D7F88820D7E93B
:101F9000020100F0EBFE7867BB6E013BFB66FB6E57
:101FA00013F1040F04DBD7F88820FB6E9A4207DC9C
:101FB0006523FB70D7F88830013BC7F8883007E00D
:101FC0006623FB70BB6ED7F88820D31AC7F8883019
:101FD000FB78652B40F0B280D7F888305A1C07F1A7
:101FE000680107F11403019307F1640300930B46A2
:101FF000D7E9020100F0BAFE78677B6E002B04D0AF
:102000007B685A1C7A602D221A707B685A1C7A6091
:102010007A6F12781A70D7F88830002B04DD7B684D
:102020005A1C7A602E221A707B6F0133D7F88820F1
:1020300019467868FFF76AFFD7F888307A68134442
:102040007B603B6F002B01D0452100E065217B6860
:102050005A1C7A600A461A70BB6E002B11D14FF0E1
:1020600000024FF00003D7E9020103F009FF034625
:10207000002B02D00023FB6706E04FF0FF33FB6725
:1020800002E0BB6E013BFB67FB6F002B08DA7B684D
:102090005A1C7A602D221A70FB6F5B42FB6704E0CA
:1020A0007B685A1C7A602B221A70FA6F684B83FB8C
:1020B00002139910D317C91A0B469B000B445B00FF
:1020C000D11ACAB27B6802333032D2B21A70FB6FB7
:1020D0005F4A82FB03129210DB17D31AFB67FA6F79
:1020E0005B4B83FB02139910D317C91A0B469B0055
:1020F0000B445B00D11ACAB27B6801333032D2B2D2
:102100001A70FB6F524A82FB03129210DB17D31A2C
:10211000FB67FA6F4E4B83FB02139910D317C91A52
:102120000B469B000B445B00D11ACBB23033DAB2C2
:102130007B681A707B6803337B6082E0FB78662BD8
:102140007FD107F1680207F11403019307F16403DB
:1021500000931346D7F88820D7E9020100F038FE33
:1021600078677B6E002B04D07B685A1C7A602D2226
:102170001A707B6F1B78002B45D0BB6E002B27DCC1
:102180007B685A1C7A6030221A707B685A1C7A600D
:102190002E221A700023BB6707E07B685A1C7A6006
:1021A00030221A70BB6F0133BB67BB6E5B42BA6FE4
:1021B0009A42F2DB07E07A6F531C7B677B68591CFD
:1021C000796012781A707B6F1B78002BF3D138E09E
:1021D0000023BB6712E0BB6F5A1CBA67BA6E93420A
:1021E00004D17B685A1C7A602E221A707A6F531CB5
:1021F0007B677B68591C796012781A707B6F1B783B
:10220000002BE8D11DE07B685A1C7A6030221A70DE
:10221000D7F88830002B14DD7B685A1C7A602E2298
:102220001A700023BB6707E07B685A1C7A60302273
:102230001A70BB6F0133BB67BA6FD7F888309A4208
:10224000F2DB7B6800221A7000BF8037BD4680BD7C
:102250006766666680B584B000AF78600EE07B6824
:102260001B782E2B36D07B681B78652B0AD07B68B9
:102270001B78452B06D07B6801337B607B681B781D
:10228000002BECD17B681B78002B1AD04FF48071A7
:102290007868FFF783FB0346FB600BE0FB687A6816
:1022A0001A44FB68013379680B4412781A70FB6892
:1022B000013BFB60FB68002BF0DC7B682E221A7070
:1022C00009E07B685A1C7A602E221A707B68002213
:1022D0001A7000E000BF1037BD4680BD80B485B0E5
:1022E00000AF786002E07B6801337B607B681B781D
:1022F000002B03D07B681B782E2BF4D17B685A1CF3
:102300007A601B78002B2DD002E07B6801337B6064
:102310007B681B78002B07D07B681B78652B03D06C
:102320007B681B78452BF0D17B685A1E7A60FB6076
:1023300002E07B68013B7B607B681B78302BF8D028
:102340007B681B782E2B09D17B68013B7B6005E005
:102350007B6801337B607B6800221A707A68FB68B7
:102360009A42F5D100BF1437BD4680BC7047B0B566
:102370009EB002AFF860C7E90023D7F88C3003F0B5
:102380001003002B05D0D7F88C3023F00103C7F8D9
:102390008C30D7F88C3003F00103002B01D03023B0
:1023A00000E0202387F86730002387F86F30D7F8E4
:1023B0008C3003F00203002B36D04FF000024FF0B8
:1023C0000003D7E9000103F065FD0346002B0ED0A2
:1023D0002D2387F86F303C687B6883F00045C7E9A0
:1023E0000045D7F88030013BC7F880301CE0D7F8B3
:1023F0008C3003F00403002B08D02B2387F86F30B8
:10240000D7F88030013BC7F880300DE0D7F88C302A
:1024100003F00803002B07D0202387F86F30D7F88C
:102420008030013BC7F88030D7F88430002B02DAC7
:102430000623C7F8843097F8881007F11002D7F800
:10244000843000930B46D7E90001FFF77CFDD7F8F5
:102450008C3003F02003002B08D0D7F88430002BF9
:1024600004D107F110031846FFF7F4FE97F88830FF
:10247000672B0AD1D7F88C3003F02003002B04D14E
:1024800007F110031846FFF729FF07F110034FF477
:1024900080711846FFF782FA03463B66D7F8802022
:1024A0003B6ED31AC7F88030D7F88C3003F0110395
:1024B000002B0CD104E0FB685A1CFA6020221A7031
:1024C000D7F880305A1EC7F88020002BF3DC97F82D
:1024D0006F30002B05D0FB685A1CFA6097F86F200C
:1024E0001A70D7F88C3003F01003002B0DD105E0E3
:1024F000FB685A1CFA6097F867201A70D7F880308A
:102500005A1EC7F88020002BF2DC0023BB660BE0CC
:10251000FB685A1CFA6007F11001BA6E0A4412787F
:102520001A70BB6E0133BB66BA6E3B6E9A42EFDB2C
:1025300004E0FB685A1CFA6020221A70D7F8803039
:102540005A1EC7F88020002BF3DCFB681846703752
:10255000BD46B0BD80B592B004AFF860B9607A6096
:10256000FB68BB623DE2BB681B78252B06D0BA68CE
:10257000BB6A591CB96212781A702FE200233B62C1
:10258000BB680133BB60BB681B78203B102B3ED877
:1025900001A252F823F000BFF12500080F26000821
:1025A0000F260008FB2500080F2600080F2600084C
:1025B0000F2600080F2600080F2600080F26000827
:1025C0000F260008E72500080F260008DD25000873
:1025D0000F2600080F260008052600083B6A43F076
:1025E00010033B62CCE73B6A43F004033B62C7E75E
:1025F0003B6A43F008033B62C2E73B6A43F02003B7
:102600003B62BDE73B6A43F001033B62B8E74FF032
:10261000FF33FB61BB681B782F2B0AD9BB681B7883
:10262000392B06D807F108031846FFF7D3F9F861EC
:1026300015E0BB681B782A2B11D1BB680133BB6046
:102640007B681A1D7A601B68FB61FB69002B06DA48
:10265000FB695B42FB613B6A43F010033B624FF056
:10266000FF33BB61BB681B782E2B22D1BB680133C3
:10267000BB60BB681B782F2B0AD9BB681B78392B32
:1026800006D807F108031846FFF7A4F9B8610BE074
:10269000BB681B782A2B07D1BB680133BB607B6802
:1026A0001A1D7A601B68BB61BB69002B01DA00232D
:1026B000BB614FF0FF337B61BB681B786C2B03D091
:1026C000BB681B784C2B05D1BB681B787B61BB6852
:1026D0000133BB600A23FB62BB681B78413B372B8D
:1026E00000F23F8101A252F823F000BFD128000878
:1026F000632900086329000863290008632900088A
:102700006329000863290008632900086329000879
:102710006329000863290008632900086329000869
:102720006329000863290008632900086329000859
:102730006329000863290008632900086329000849
:102740006329000863290008192900086329000883
:102750006329000863290008632900086329000829
:10276000632900086329000863290008D9280008A4
:1027700063290008CD2700082729000863290008DD
:102780003129000863290008632900082729000867
:1027900063290008632900086329000863290008E9
:1027A00063290008132900089D28000863290008F0
:1027B000632900081B2800086329000893290008E2
:1027C0006329000863290008212900083B6A03F0F7
:1027D0001003002B0BD104E0BB6A5A1CBA62202202
:1027E0001A70FB69013BFB61FB69002BF4DC7B6821
:1027F0001A1D7A601968BB6A5A1CBA62CAB21A708A
:1028000004E0BB6A5A1CBA6220221A70FB69013BC1
:10281000FB61FB69002BF4DCE0E07B681A1D7A6049
:102820001B687B627B6A002B01D1754B7B62BB69A5
:102830001946786AFFF7B2F803463B613B6A03F03A
:102840001003002B0BD104E0BB6A5A1CBA62202291
:102850001A70FB695A1EFA613A699A42F4DB002346
:102860003B630AE07A6A531C7B62BB6A591CB962FB
:1028700012781A703B6B01333B633A6B3B699A42A7
:10288000F0DB04E0BB6A5A1CBA6220221A70FB69B2
:102890005A1EFA613A699A42F4DB9FE0FB69B3F190
:1028A000FF3F05D10823FB613B6A43F001033B6214
:1028B0007B681A1D7A601B6819463B6A0193BB69E5
:1028C0000093FB691022B86AFFF7AAF8B86285E0A6
:1028D0003B6A43F040033B627B696C2B0CD17B6805
:1028E0001A1D7A6019683B6A0093BB69FA69B86A75
:1028F000FFF7ACF9B86271E07B681A1D7A6019685D
:102900003B6A0093BB69FA69B86AFFF723FAB862B9
:1029100064E00823FB623DE03B6A43F040033B6216
:102920001023FB6236E03B6A43F002033B6230E077
:102930007B68073323F0070303F108027A60D3E9C9
:102940000023B9680978386A40F0020003900291C8
:10295000B9690191F9690091B86AFFF708FDB86299
:102960003CE0BB681B78252B04D0BB6A5A1CBA62BA
:1029700025221A70BB681B78002B06D0BA68BB6A88
:10298000591CB96212781A7028E0BB68013BBB6021
:1029900024E000BF7B696C2B05D17B681A1D7A602F
:1029A0001B687B630FE03B6A03F00203002B05D03A
:1029B0007B681A1D7A601B687B6304E07B681A1DC4
:1029C0007A601B687B63796B3B6A0193BB690093F8
:1029D000FB69FA6AB86AFFF723F8B862BB6801338B
:1029E000BB60BB681B78002B7FF4BDADBB6A0022C7
:1029F0001A70BA6AFB68D31A18463837BD4680BDCC
:102A0000A860000880B483B000AF0346FB7100BF2C
:102A10000C37BD4680BC70470FB480B5ADF5826DF4
:102A200000AF0023C7F8083407F21C4207F58263A1
:102A3000A3F20C431A6007F58263A3F20C4307F17B
:102A400008001A68D7F81814FFF784FD07F1080387
:102A5000C7F80C340FE0D7F80C341B781846FFF792
:102A6000D1FFD7F808340133C7F80834D7F80C344D
:102A70000133C7F80C34D7F80C341B78002BEAD19B
:102A8000D7F80834184607F58267BD46BDE8804090
:102A900004B0704700000000B0B58CB000AFC7E9CB
:102AA00002017A603B607B68002B01DA00237B60C7
:102AB0007B684E2B01DD4E237B600023FB623B6C69
:102AC00000221A607B6CBB624FF000024FF00003E3
:102AD000D7E9020103F0DEF90346002B08D03B6C76
:102AE00001221A60BC68FB6883F00045C7E9024513
:102AF00007F118031A46D7E9020102F063FAC7E9A1
:102B000002017B6C50337B62D7E906014FF0000273
:102B10004FF0000303F0B4F90346002B53D17B6C54
:102B200050337B6235E0D7E906014FF00002804B5D
:102B300003F068F802460B461046194607F11803E1
:102B40001A4602F03FFA02460B46C7E90423D7E9CA
:102B5000040175A3D3E9002302F074FD02460B467D
:102B6000104619464FF00002714B02F021FF024659
:102B70000B461046194603F0B5F90346DBB27A6AF4
:102B8000013A7A623033DAB27B6A1A70FB6A013337
:102B9000FB62D7E906014FF000024FF0000303F09B
:102BA0006FF90346002BBED007E07A6A531C7B62A4
:102BB000BB6A591CB96212781A707B6C50337A6AFE
:102BC0009A42F2D327E04FF000024FF00003D7E91A
:102BD000020103F07DF90346002B1CD006E0D7E983
:102BE0000423C7E90223FB6A013BFB624FF00002AA
:102BF0004F4BD7E9020102F0DBFE02460B46C7E964
:102C00000423D7E904014FF000024A4B03F042F9D4
:102C10000346002BE3D17B687A6C13447B62BB6C68
:102C2000002B03D1FB6A7A6A13447B623B68FA6A21
:102C30001A607A6A7B6C9A4226D27B6C00221A70E8
:102C40007B6C6CE04FF00002394BD7E9020102F0D7
:102C5000AFFE02460B46C7E9022307F110031A46EE
:102C6000D7E9020102F0AEF9C7E90201D7E904236E
:102C70001046194603F036F90346DAB2BB6A591C0E
:102C8000B9623032D2B21A70BA6A7B6A9A4204D8F8
:102C90007B6C5033BA6A9A42D4D37B6C50337A6AD5
:102CA0009A4205D37B6C4F3300221A707B6C36E05E
:102CB0007B6ABB627B6A1B780533DAB27B6A1A7067
:102CC00025E07B6A30221A707A6A7B6C9A4209D9B5
:102CD0007B6A013B7B627B6A1B780133DAB27B6AD9
:102CE0001A7014E07B6A31221A703B681B685A1C08
:102CF0003B681A60BB6C002B09D1BA6A7B6C9A42A4
:102D000002D9BB6A30221A70BB6A0133BB627B6A8C
:102D10001B78392BD5D8BB6A00221A707B6C1846F9
:102D20003037BD46B0BD00BFB81E85EB51B89E3FE1
:102D3000000024400000F03F80B588B004AFC7E930
:102D400002017A603B6001230293074B0193BB6948
:102D500000933B687A68D7E90201FFF79DFE0346BE
:102D600018461037BD4680BD8005002080B588B06C
:102D700004AFC7E902017A603B6001230293FB695B
:102D80000193BB6900933B687A68D7E90201FFF7BA
:102D900083FE034618461037BD4680BD80B588B017
:102DA00004AFC7E902017A603B6000230293074B3E
:102DB0000193BB6900933B687A68D7E90201FFF78A
:102DC0006BFE034618461037BD4680BD80050020C7
:102DD00080B588B004AFC7E902017A603B60002388
:102DE0000293FB690193BB6900933B687A68D7E95A
:102DF0000201FFF751FE034618461037BD4680BD5D
:102E000080B582B000AF0121012000F02DFC072227
:102E10000921134801F069FB07220A21104801F03B
:102E200064FB3B1D184601F092FA4FF40073BB801F
:102E30000123BB711823FB713B1D1946084801F0A3
:102E400001FA4FF48063BB804823FB713B1D194698
:102E5000034801F0F7F900BF0837BD4680BD00BF49
:102E60000000044080B586B000AF786001211020DA
:102E700000F054FC07F10803184601F055FC7B688C
:102E8000BB6030233B730023BB7300233B740023E0
:102E90003B7518237B8207F108031946064801F0A9
:102EA000EDFB0121044801F05BFCFFF7A9FF00BF27
:102EB0001837BD4680BD00BF0038014080B584B0E2
:102EC00000AF78600221786801F0C2FC0346002B55
:102ED000F8D0786801F09AFC0346FB730221786809
:102EE00001F0CAFC00BFFB7B0D2B01D1002300E0E9
:102EF000FB7B18461037BD4680BD80B582B000AF61
:102F000078600B46FB70FB789BB21946786801F03D
:102F10006EFC00BF0121786801F086FC0346002B9F
:102F2000F8D000BF00BF0837BD4680BD80B582B075
:102F300000AF78600B46FB70FB7819467868FFF7A6
:102F4000DCFF00BF0837BD4680BD80B582B000AF52
:102F50000346FB71FB7919460348FFF7E7FF00BF03
:102F60000837BD4680BD00BF0038014080B582B043
:102F700000AF786055217868FFF7BFFF00BF0837C2
:102F8000BD4680BD80B582B000AF0346FB71FB79C2
:102F90009BB21946074801F02AFC00BF01210548F1
:102FA00001F042FC0346002BF8D000BF00BF0837F9
:102FB000BD4680BD0038014080B582B000AF78606A
:102FC0000B467B8006E07B685A1C7A601B781846AB
:102FD000FFF7D8FF7B885A1E7A80002BF3D100BF01
:102FE00000BF0837BD4680BD80B483B000AF034644
:102FF0003960FB7197F90730002B0ADB3B68DAB2C6
:103000000C4997F907301201D2B20B4483F8002320
:103010000AE03B68DAB20849FB7903F00F03043B8E
:103020001201D2B20B441A7600BF0C37BD4680BCE9
:10303000704700BF00E100E000ED00E080B582B025
:1030400000AF78607B68013BB3F1807F01D301233F
:103050000FE00A4A7B68013B53600F214FF0FF30BD
:10306000FFF7C2FF054B00229A60044B07221A604B
:10307000002318460837BD4680BD00BF10E000E0C1
:1030800080B400AF154B1B68144A43F00103136072
:10309000124B5B68114A23F0030353600F4B1B680C
:1030A0000E4A23F0847323F4803313600B4B9B6C24
:1030B0000A4A23F4FE0323F4E0639364074B1B687E
:1030C000064A23F480231360044B00225A60034B0A
:1030D00000229A6000BFBD4680BC704700100240CD
:1030E00080B483B000AF7860134B1B68124A23F49E
:1030F000A02313607B68B3F5803F10D07B68B3F5E5
:10310000802F13D10C4B1B680B4A43F480231360B0
:10311000094B1B68084A43F48033136007E0064BF1
:103120001B68054A43F48033136000E000BF00BF12
:103130000C37BD4680BC70470010024080B483B09D
:1031400000AF0346FB71FB795B09DBB2012B02D1B7
:103150000E4B1B6809E0FB795B09DBB2022B02D145
:103160000A4B5B6B01E0094B9B6BFA7902F01F0283
:10317000012101FA02F21340002B14BF01230023A6
:10318000DBB218460C37BD4680BC704700100240C9
:1031900080B582B000AF00237B603120FFF7CEFF07
:1031A0000346FB707B6801337B60FB78002B03D107
:1031B0007B68B3F5A06FF0D13120FFF7BFFF034666
:1031C000002B14BF01230023DBB218460837BD468D
:1031D00080BD80B584B000AF0346FB710023FB6067
:1031E00007E0FB685A1CFA60B3F5A06F01D9002311
:1031F00007E0FB791846FFF7A1FF0346002BF0D04C
:10320000012318461037BD4680BD80B483B000AF9F
:103210000346FB71064B1B6823F00102FB7904494E
:1032200013430B6000BF0C37BD4680BC704700BF26
:103230000010024080B483B000AF0346FB71064B20
:103240005B6823F00302FB79034913434B6000BF23
:103250000C37BD4680BC70470010024080B483B07C
:1032600000AF78603960094B9B6C23F4FE0323F4B4
:10327000E0637A6811043A6812020A43034913436F
:103280008B6400BF0C37BD4680BC70470010024005
:1032900080B483B000AF0346FB71074B1B6823F07B
:1032A0008073FA7912061146034A0B43136000BF7C
:1032B0000C37BD4680BC704700100240B0B58AB0E4
:1032C00000AF03463960FB71134B07F108041D463C
:1032D0000FCD0FC495E80F0007C423800F4B9B6CE4
:1032E00023F00302FB790D4913438B643B685B0CAD
:1032F00028333B4413F8203C1A463B685B0C0133EF
:1033000028333B4413F8203C19461046FFF7A6FF2C
:1033100000BF2837BD46B0BDB060000800100240B5
:1033200080B483B000AF0346FB71074B5B6823F4A6
:103330004003FA7992051146034A0B43536000BFDC
:103340000C37BD4680BC70470010024080B400AF0F
:10335000044B5B68DBB203F00C03DBB21846BD46DE
:1033600080BC70470010024080B483B000AF0346B9
:10337000FB71064B5B6823F0F002FB7903491343B2
:103380004B6000BF0C37BD4680BC70470010024048
:1033900080B483B000AF0346FB80064B5B6823F428
:1033A000E062FB88034913434B6000BF0C37BD4606
:1033B00080BC70470010024080B483B000AF034669
:1033C000FB80074B5B6823F46053FA88D2001146F8
:1033D000034A0B43536000BF0C37BD4680BC7047A7
:1033E0000010024080B483B000AF0346FB80074B5F
:1033F0005B6823F4804323F07003FA880349134386
:103400004B6000BF0C37BD4680BC704700100240C7
:1034100080B483B000AF0346FB71124B5B6B114A63
:1034200023F005035363FB79012B0ED0042B13D13A
:103430000C4B5B6B0B4A43F004035363094B5B6B10
:10344000084A43F00103536307E0064B5B6B054AF0
:1034500043F00103536300E000BF00BF0C37BD46DB
:1034600080BC70470010024080B483B000AF0346B8
:10347000FB80064B5B6B23F44072FB8803491343CC
:103480004B6300BF0C37BD4680BC70470010024044
:1034900080B483B000AF0346FB71074B5B6B23F432
:1034A0000043FA79D2031146034A0B43536300BF2A
:1034B0000C37BD4680BC70470010024080B483B01A
:1034C00000AF0346FB71084B9B6B23F02103FA7995
:1034D00042F02002D2B21146034A0B43936300BF6D
:1034E0000C37BD4680BC70470010024080B485B0E8
:1034F00000AF234B5B6803F00C030C2B06D00C2BA6
:1035000034D8042B06D0082B07D02FE049F64043CF
:10351000FB602EE01B4BFB602BE0194B9B6C03F018
:103520000103002B09D0164B9B6C03F00203002B08
:1035300001D0154B02E0134B00E0124BBB60104B67
:103540009B6C1B0C03F07F0301337B600C4B9B6C6B
:103550001B0A03F0070301333B60BB687A6803FB77
:1035600002F23B68B2FBF3F3FB6002E0054BFB6049
:1035700000BFFB6818461437BD4680BC704700BFCB
:103580000010024000127A0000093D0080B500AF33
:10359000FFF7ACFF0246054B5B681B0903F00F0306
:1035A0000349CB5C22FA03F3184680BD00100240A9
:1035B000EC00002080B500AFFFF7E8FF0246054BA6
:1035C0005B681B0A03F007030349CB5C22FA03F391
:1035D000184680BD00100240EC00002080B500AF0E
:1035E000FFF7D4FF0246054B5B68DB0A03F00703D5
:1035F0000349CB5C22FA03F3184680BD0010024059
:10360000EC00002080B584B000AF7860144BFB6004
:10361000FFF76CFF02467B681A60FFF7B7FF0246B0
:103620007B685A60FFF7C6FF02467B689A60FFF727
:10363000D5FF02467B68DA607B68DA68094B5B6815
:10364000190940F207430B4010333B4413F8043C84
:10365000B2FBF3F27B681A6100BF1037BD4680BD34
:10366000020406080010024080B483B000AF786006
:103670000B46FB70FB78002B06D0094B9A6A084971
:103680007B6813438B6206E0054B9A6A7B68DB43D9
:10369000034913408B6200BF0C37BD4680BC7047A6
:1036A0000010024080B483B000AF78600B46FB701E
:1036B000FB78002B06D0094B5A6A08497B681343F4
:1036C0004B6206E0054B5A6A7B68DB4303491340B3
:1036D0004B6200BF0C37BD4680BC704700100240F3
:1036E00080B483B000AF78600B46FB70FB78002B92
:1036F00006D0094B1A6A08497B6813430B6206E03F
:10370000054B1A6A7B68DB43034913400B6200BF19
:103710000C37BD4680BC70470010024080B483B0B7
:1037200000AF78600B46FB70FB78002B06D0094B8E
:10373000DA6A08497B681343CB6206E0054BDA6A14
:103740007B68DB4303491340CB6200BF0C37BD46A7
:1037500080BC70470010024080B483B000AF786036
:103760000B46FB70FB78002B06D0094B1A6B0849FF
:103770007B6813430B6306E0054B1A6B7B68DB43E6
:10378000034913400B6300BF0C37BD4680BC704734
:103790000010024080B483B000AF78600B46FB702D
:1037A000FB78002B06D0094B9A6908497B681343C4
:1037B0008B6106E0054B9A697B68DB430349134044
:1037C0008B6100BF0C37BD4680BC704700100240C3
:1037D00080B483B000AF78600B46FB70FB78002BA1
:1037E00006D0094BDA6908497B681343CB6106E0D0
:1037F000054BDA697B68DB4303491340CB6100BFAB
:103800000C37BD4680BC70470010024080B483B0C6
:1038100000AF78600B46FB70FB78002B06D0094B9D
:103820005A6908497B6813434B6106E0054B5A69A6
:103830007B68DB43034913404B6100BF0C37BD4637
:1038400080BC70470010024080B483B000AF786045
:103850000B46FB70FB78002B06D0094B1A69084910
:103860007B6813430B6106E0054B1A697B68DB43F9
:10387000034913400B6100BF0C37BD4680BC704745
:103880000010024080B483B000AF78600B46FB703C
:10389000FB78002B06D0094BDA6808497B68134394
:1038A000CB6006E0054BDA687B68DB4303491340D5
:1038B000CB6000BF0C37BD4680BC70470010024093
:1038C00080B483B000AF0346FB71074B5B6B23F4FE
:1038D0008033FA7912041146034A0B43536300BF45
:1038E0000C37BD4680BC70470010024080B483B0E6
:1038F00000AF0346FB71074B1B6823F40023FA79E2
:10390000D2041146034A0B43136000BF0C37BD4677
:1039100080BC70470010024080B483B000AF786074
:10392000064B5B6823F0E06204497B6813434B60FD
:1039300000BF0C37BD4680BC704700BF001002407E
:1039400080B400AF044B9B6B034A43F080739363D6
:1039500000BFBD4680BC70470010024080B483B0F9
:1039600000AF03460A46FB711346BB71BB79002BBF
:1039700008D00B4B9B68FA7912021146084A0B4398
:10398000936008E0064B9B68FA791202D243114615
:10399000034A0B40936000BF0C37BD4680BC7047A4
:1039A0000010024080B483B000AF0346FB71054BAA
:1039B0009B68DAB2FB791340DBB218460C37BD4680
:1039C00080BC70470010024080B483B000AF034653
:1039D000FB71064B9B68FA7912041146034A0B43AC
:1039E000936000BF0C37BD4680BC7047001002409A
:1039F00080B483B000AF7860084BDA6907497B6810
:103A00001343CB61054BDA697B68DB430349134001
:103A1000CB6100BF0C37BD4680BC70470010024030
:103A200080B483B000AF7860084B9A6907497B681F
:103A300013438B61054B9A697B68DB430349134051
:103A40008B6100BF0C37BD4680BC70470010024040
:103A500080B483B000AF7860084B5A6907497B682F
:103A600013434B61054B5A697B68DB4303491340A1
:103A70004B6100BF0C37BD4680BC70470010024050
:103A800080B483B000AF7860084BDA6907497B687F
:103A90001343CB61054BDA697B68DB430349134071
:103AA000CB6100BF0C37BD4680BC704700100240A0
:103AB00080B400AF00BFBD4680BC704780B483B007
:103AC00000AF7860084B9A6907497B6813438B61A4
:103AD000054B9A697B68DB43034913408B6100BF48
:103AE0000C37BD4680BC70470010024080B483B0E4
:103AF00000AF7860084B5A6907497B6813434B61F4
:103B0000054B5A697B68DB43034913404B6100BF97
:103B10000C37BD4680BC70470010024080B400AF37
:103B2000044B1B68034A23F00103136000BFBD462A
:103B300080BC704710E000E080B582B000AF7860D4
:103B4000FFF724FD0346074AA2FB03239B0C7A6878
:103B500002FB03F31846FFF771FA00BF0837BD46B2
:103B600080BD00BF83DE1B4380B483B000AF7860AC
:103B70000B46FB703B1D1B68224A93422BD0214A07
:103B8000934239D8204A934203D0204A934211D01D
:103B900032E0FB78002B06D01D4BDB6A1C4A43F455
:103BA0008073D36229E01A4BDB6A194A23F48073CD
:103BB000D36222E0FB78002B06D0154BDB6A144A57
:103BC00043F40073D36218E0114BDB6A104A23F40C
:103BD0000073D36211E0FB78002B06D00C4BDB6A3C
:103BE0000B4A43F48063D36207E0094BDB6A084A5F
:103BF00023F48063D36200E000BF00BF0C37BD46F2
:103C000080BC7047004C0140002401400028014066
:103C10000010024080B483B000AF78600B46FB70A8
:103C20007B68144A93421FD1FB78002B06D0124BBD
:103C30001B6B114A43F00063136305E00E4B1B6BD3
:103C40000D4A23F000631363FB78002B06D00A4B68
:103C50001B6B094A43F08053136305E0064B1B6B53
:103C6000054A23F08053136300BF0C37BD4680BC68
:103C7000704700BF402800400010024080B483B06D
:103C800000AF78600B46FB707B680C4A93420FD103
:103C9000FB78002B06D00A4B1B6B094A43F00073DC
:103CA000136305E0064B1B6B054A23F00073136397
:103CB00000BF0C37BD4680BC704700BF00640040A9
:103CC0000010024080B483B000AF78600B46FB70F8
:103CD0007B680C4A93420FD1FB78002B06D00A4B2D
:103CE000DB6A094A43F40043D36205E0064BDB6A12
:103CF000054A23F40043D36200BF0C37BD4680BCA5
:103D0000704700BF004001400010024080B483B003
:103D100000AF78600B46FB707B680C4A93420FD172
:103D2000FB78002B06D00A4B9B6A094A43F4805368
:103D3000936205E0064B9B6A054A23F48053936225
:103D400000BF0C37BD4680BC704700BF003002404A
:103D50000010024080B483B000AF78600B46FB7067
:103D60007B680C4A93420FD1FB78002B06D00A4B9C
:103D70001B6B094A43F00053136305E0064B1B6BB2
:103D8000054A23F00053136300BF0C37BD4680BCC7
:103D9000704700BF007400400010024080B483B040
:103DA00000AF78600B46FB707B68164A93420FD1D8
:103DB000FB78002B06D0144B9B6A134A43F4001384
:103DC000936205E0104B9B6A0F4A23F40013936241
:103DD0007B680E4A93420FD1FB78002B06D00A4B2A
:103DE0009B6A094A43F48003936205E0064B9B6A91
:103DF000054A23F48003936200BF0C37BD4680BCA4
:103E0000704700BF00000240001002400004024062
:103E100080B483B000AF78600B46FB703B1D1B681D
:103E2000604A934200F0A6805E4A934200F2B3805B
:103E30005D4A934200F08D805B4A934200F2AB8072
:103E40005A4A934274D0594A934200F2A480584A85
:103E500093425CD0564A934200F29D80554A934269
:103E600044D0544A934200F29680534A93422CD055
:103E7000514A934200F28F80504A934203D0504AF5
:103E8000934211D087E0FB78002B06D04D4B9B6A04
:103E90004C4A43F0010393627EE04A4B9B6A494AD5
:103EA00023F00103936277E0FB78002B06D0454BAB
:103EB0009B6A444A43F0020393626DE0414B9B6A64
:103EC000404A23F00203936266E0FB78002B06D0A1
:103ED0003C4B9B6A3B4A43F0040393625CE0394BE2
:103EE0009B6A384A23F00403936255E0FB78002B69
:103EF00006D0344B9B6A334A43F0080393624BE08D
:103F0000304B9B6A2F4A23F00803936244E0FB780E
:103F1000002B06D02B4B9B6A2A4A43F01003936276
:103F20003AE0284B9B6A274A23F01003936233E060
:103F3000FB78002B06D0234B9B6A224A43F02003D8
:103F4000936229E01F4B9B6A1E4A23F02003936271
:103F500022E0FB78002B06D01A4B9B6A194A43F0EB
:103F60004003936218E0174B9B6A164A23F0400304
:103F7000936211E0FB78002B06D0124B9B6A114A2A
:103F800043F08003936207E00E4B9B6A0D4A23F0D7
:103F90008003936200E000BF00BF0C37BD4680BCC9
:103FA000704700BF001C0440001804400014044087
:103FB00000100440000C04400008044000000440CD
:103FC000000404400010024080B483B000AF786069
:103FD0000B46FB707B68524A93420FD1FB78002B53
:103FE00006D0504B1B6B4F4A43F40033136305E07C
:103FF0004C4B1B6B4B4A23F4003313637B684A4AD8
:1040000093420FD1FB78002B06D0464BDB6A454A22
:1040100043F01003D36205E0424BDB6A414A23F0D0
:104020001003D3627B68414A93420FD1FB78002B87
:1040300006D03C4B1B6B3B4A43F48023136305E0E3
:10404000384B1B6B374A23F4802313637B68384A51
:1040500093420FD1FB78002B06D0324B1B6B314AB9
:1040600043F40023136305E02E4B1B6B2D4A23F40E
:10407000002313637B682F4A93420FD1FB78002BF8
:1040800006D0284B1B6B274A43F48013136305E0CB
:10409000244B1B6B234A23F4801313637B68264A4B
:1040A00093420FD1FB78002B06D01E4BDB6A1D4AD2
:1040B00043F02003D36205E01A4BDB6A194A23F070
:1040C0002003D3627B681D4A93420FD1FB78002BFB
:1040D00006D0144B1B6B134A43F08043136305E077
:1040E000104B1B6B0F4A23F0804313637B68144A09
:1040F00093420FD1FB78002B06D00A4B1B6B094A69
:1041000043F00043136305E0064B1B6B054A23F0A5
:104110000043136300BF0C37BD4680BC704700BF2F
:1041200000440040001002400038014000480040B8
:10413000004C004000500040003C0140007800402E
:10414000007C004080B582B000AF78603B1D1B68EA
:104150001B4A934229D01A4A93422BD8194A9342B8
:104160001ED0184A934225D8174A934213D0164AB4
:1041700093421FD8154A934203D0154A934205D063
:1041800018E000210120FFF76FFA14E0002102205F
:10419000FFF76AFA0FE000210420FFF765FA0AE052
:1041A00000210820FFF760FA05E000211020FFF74A
:1041B0005BFA00E000BF00BF0837BD4680BD00BF0E
:1041C00000100440000C04400008044000000440BB
:1041D0000004044080B400AF154B4FF0FF321A6268
:1041E000134B6FF07F625A62124B4FF0FF321A622C
:1041F000104B4FF0FF325A620F4B4FF0FF321A62F2
:104200000D4B4FF0FF325A620C4B4FF0FF321A62E7
:104210000A4B4FF0FF325A62094B4FF0FF321A62DD
:10422000074B4FF0FF325A6200BFBD4680BC70475B
:10423000000004400004044000080440000C044056
:104240000010044080B489B000AF786039603B68EA
:10425000DB7803F00F03BB613B68DB7803F01003EE
:10426000002B05D03B689B781A46BB691343BB61A2
:104270007B687B610023FB771EE0FB7F9B00FB7369
:104280003B681B881A46FB7F42FA03F303F00103E5
:10429000002B0ED07B691B68FA7B0F2101FA02F21A
:1042A000D2431A40FB7BB96901FA03F31A437B69D5
:1042B0001A60FB7F0133FB77FB7F072BDDD97B681F
:1042C00004337B613B681B881B0A9BB23B61002364
:1042D000FB771DE0FB7F9B00FB73FB7F012202FA53
:1042E00003F31A463B691340002B0ED07B691B6811
:1042F000FA7B0F2101FA02F2D2431A40FB7BB96923
:1043000001FA03F31A437B691A60FB7F0133FB77E1
:10431000FB7F072BDED93B68DB78282B07D17B6836
:104320005B693A6812881A437B685A610AE03B6805
:10433000DB78482B06D17B681B693A6812881A43E0
:104340007B681A6100BF2437BD4680BC704780B4CB
:1043500083B000AF78607B684FF6FF721A807B688D
:1043600002229A707B680422DA7000BF0C37BD46C7
:1043700080BC704780B483B000AF78600B467B8010
:104380007B689A687B881340002B14BF01230023AD
:10439000DBB218460C37BD4680BC704780B483B092
:1043A00000AF78607B689B689BB218460C37BD46AF
:1043B00080BC704780B483B000AF78600B467B80D0
:1043C0007B68DA687B881340002B14BF012300232D
:1043D000DBB218460C37BD4680BC704780B483B052
:1043E00000AF78607B68DB689BB218460C37BD462F
:1043F00080BC704780B483B000AF78600B467B8090
:104400007A887B681A6100BF0C37BD4680BC704754
:1044100080B483B000AF78600B467B807A887B687D
:104420005A6100BF0C37BD4680BC704780B483B072
:1044300000AF78600B467B8013467B707B78002B47
:1044400003D07A887B681A6102E07A887B685A61B7
:1044500000BF0C37BD4680BC704780B483B000AF4E
:1044600078600B467B807A887B68DA6000BF0C3707
:10447000BD4680BC704780B483B000AF78600B4607
:104480007B8013467B707B78002B06D07B689A6913
:104490007B881A437B689A6106E07B689B697A880F
:1044A000D2431A407B689A6100BF0C37BD4680BC7E
:1044B000704780B483B000AF78600B467B807B8808
:1044C00043F480327B689A617A887B689A617B8842
:1044D00043F480327B689A617B689B697B689B6947
:1044E00000BF0C37BD4680BC704780B485B000AFBC
:1044F00078600B46FB701346BB70FB7803F0070334
:10450000DBB29B00FB73FB78072B02D87B68203360
:1045100001E07B682433BB60BB681B68FA7B0F211A
:1045200001FA02F2D2431340B978FA7B01FA02F29F
:104530001A43BB681A6000BF1437BD4680BC704781
:1045400080B487B000AFF8607A601A460B467B8172
:1045500013467B7297F90930002B33DB0023FB7580
:104560000DE07B8903F00103002B02D0FB7D7B81F2
:1045700008E07B895B087B81FB7D0133FB75FB7D5C
:104580001F2BEED97B89DBB203F00703DBB29B0064
:10459000BB757B89072B02D8FB68203301E0FB68E1
:1045A00024333B613B691B68BA7D0F2101FA02F29B
:1045B000D243134097F90910BA7D01FA02F21A4367
:1045C0003B691A6000BF1C37BD4680BC704700BF06
:1045D00080B582B000AF78607B68204A934203D1F7
:1045E0004FF40030FFF74CFA7B681D4A934202D12A
:1045F0001020FFF763FA7B681A4A934203D14FF405
:104600008020FFF73DFA7B68174A934203D14FF4AD
:104610000020FFF735FA7B68144A934203D14FF428
:104620008010FFF72DFA7B68114A934202D12020B7
:10463000FFF744FA7B680F4A934203D14FF0804062
:10464000FFF71EFA7B680C4A934203D14FF00040FB
:10465000FFF716FA00BF0837BD4680BD0044004092
:104660000038014000480040004C0040005000402D
:10467000003C014000780040007C004080B584B0E0
:1046800000AF786039600023FB607B68DB6923F052
:1046900030033A6812791A437B68DA617B68DB6918
:1046A00023F044033A6892791A437B68DA617B68A5
:1046B000DB6923F003033A68127A1A437B68DA61F4
:1046C0007B689B6923F018033A6852891A437B6818
:1046D0009A617B689B6923F004033A68127B1A4352
:1046E0007B689A617B680F4A934203D1FEF776FF9D
:1046F000F86002E0FEF75EFFF8603B681B68FA684E
:10470000B2FBF3F31A097B681A623B681B68FA680C
:10471000B2FBF3F303F00F027B685A6200BF10375D
:10472000BD4680BD0038014080B483B000AF7860E2
:104730007B684FF416521A607B6830221A717B68CE
:1047400000229A717B6800221A727B6818225A81B3
:104750007B6800221A7300BF0C37BD4680BC7047CF
:1047600080B483B000AF78600B46FB707B689B69B8
:1047700023F00102FB781A437B689A6100BF0C3773
:10478000BD4680BC704780B483B000AF78600B46F4
:104790007B8013467B707B78002B06D07B681A6980
:1047A0007B881A437B681A6106E07B681B697A88FC
:1047B000D2431A407B681A6100BF0C37BD4680BCEB
:1047C000704780B483B000AF78600B467B8013469F
:1047D0007B707B689B6923F002037A7852001A434E
:1047E0007B689A6100BF0C37BD4680BC704780B4BF
:1047F00083B000AF78600B467B807B88DAB27B6841
:104800001A6000BF0C37BD4680BC704780B483B0CF
:1048100000AF78607B685B689BB2DBB29BB21846E6
:104820000C37BD4680BC704780B483B000AF786061
:104830000B467B807B689A687B881340002B14BFF3
:1048400001230023DBB218460C37BD4680BC7047FD
:1048500080B483B000AF78600B467B807B68DA68F9
:104860007B881340002B14BF01230023DBB21846C2
:104870000C37BD4680BC704780B483B000AF786011
:104880000B467B807A887B685A6100BF0C37BD4637
:1048900080BC704780B483B000AF78600B467B80EB
:1048A0007B68DB6923F400527B881A437B68DA61FA
:1048B00000BF0C37BD4680BC704780B483B000AFEA
:1048C00078600B46FB707B68DB6923F48053FA78D1
:1048D00012031A437B68DA6100BF0C37BD4680BC07
:1048E000704780B483B000AF78600B46FB707B6884
:1048F0009B6A23F0FF02FB781A437B689A6200BF31
:104900000C37BD4680BC704780B483B000AF786080
:104910000B46FB707B68DB6A23F0FF02FB781A43CF
:104920007B68DA6200BF0C37BD4680BC704780B43C
:1049300083B000AF78600B46FB707B68DB6923F4C3
:104940000063FA78D2021A437B68DA6100BF0C3741
:10495000BD4680BC704780B483B000AF78600B4622
:10496000FB707B68DB6923F48073FA7812021A43C8
:104970007B68DA6100BF0C37BD4680BC704780B4ED
:1049800083B000AF78600B467B807B68DB6923F4E3
:1049900000727B881A437B68DA6100BF0C37BD4622
:1049A00080BC704780B483B000AF78600B46FB706A
:1049B0007B68DB6923F48063FA7892021A437B6890
:1049C000DA6100BF0C37BD4680BC704780B483B04D
:1049D00000AF78600B46FB707B681B6B23F4805341
:1049E000FA7812031A437B681A6300BF0C37BD467E
:1049F00080BC704780B483B000AF78600B46FB701A
:104A00007B681B6B23F47F63FA7812011A437B687F
:104A10001A6300BF0C37BD4680BC704780B483B0BA
:104A200000AF78600B46FB707B681B6B23F00102C4
:104A3000FB781A437B681A6300BF0C37BD4680BC05
:104A4000704780B483B000AF78600B46FB707B6822
:104A50001B6B23F00203FA7852001A437B681A6337
:104A600000BF0C37BD4680BC704780B483B000AF38
:104A700078607B68DB6943F008027B68DA6100BF1D
:104A80000C37BD4680BC704780B483B000AF7860FF
:104A90000B46FB70FB78002B06D07B689B6B43F0CA
:104AA00001027B689A6305E07B689B6B23F001023F
:104AB0007B689A6300BF0C37BD4680BC704780B4EA
:104AC00083B000AF78600B46FB701346BB707B6809
:104AD0009B6B23F001027B689A63FB78022B05D065
:104AE000FB78092B02D0FB78022B08D17B689B6BEB
:104AF00023F01E0343F010027B689A6361E0FB78A9
:104B0000032B02D0FB78012B08D17B689B6B23F031
:104B10001E0343F012027B689A6352E0FB78042B79
:104B200002D0FB78002B08D17B689B6B23F01E031F
:104B300043F014027B689A6343E0FB78052B02D0B4
:104B4000FB780C2B08D17B689B6B23F01E0343F092
:104B500016027B689A6334E0FB78062B02D0FB7860
:104B60000A2B08D17B689B6B23F01E0343F00202E3
:104B70007B689A6325E0FB78072B02D0FB780D2B2E
:104B800008D17B689B6B23F01E0343F004027B6813
:104B90009A6316E0FB78082B02D0FB780B2B08D128
:104BA0007B689B6B23F01E0343F006027B689A63CD
:104BB00007E07B689B6B23F01E0343F006027B68D3
:104BC0009A63BB78012B05D17B689B6B43F0010294
:104BD0007B689A6300BF0C37BD4680BC704700BF3E
:104BE00080B500AF174B1B68164A43F001031360F2
:104BF000144B5A681349144B13404B60114B1B68FC
:104C0000104A23F0847323F4803313600D4B1B6828
:104C10000C4A23F4802313600A4B5B68094A23F48F
:104C200043035360074B1B68064A23F07F4323F47A
:104C3000E0031360034B4FF41F029A6000F086F804
:104C400000BF80BD001002400CC0FFF880B48BB0E4
:104C500000AFF860B9607A603B60BB68FB6100231D
:104C6000FB7600233B6238E000237B622CE07B6A0A
:104C70000133FA6803FB02F23B6A0133B2FBF3F340
:104C80007B617A69BB689A4203D97A69BB68D31A97
:104C900002E0BA687B69D31A7B61FA697B699A4240
:104CA00009D97B69FB617B6ADAB27B681A703B6A5F
:104CB000DAB23B681A70FB69002B02D10123FB7644
:104CC00005E07B6A01337B627B6A3F2BCFD9FB7E99
:104CD000002B06D13B6A01333B623B6A032BC3D9ED
:104CE00000E000BFFB6918462C37BD4680BC70470A
:104CF00080B485B000AF7860134B00221A60124A6E
:104D00007B68DB005360104B00229A600E4B05223B
:104D10001A600D4B1B68FB60FB6803F00103002B5E
:104D200004D0FB6803F48033002BF2D0064B1B68E1
:104D3000054A23F001031360034B00229A6000BF71
:104D40001437BD4680BC704710E000E080B500AF6E
:104D50000B4B1B680A4A23F018031360084B1B68AF
:104D6000074A43F00103136000BF054B5B6803F083
:104D70000303022BF9D100F005F800BF80BD00BF8E
:104D80000060014080B586B000AF0023BB60002307
:104D90007B60824B1B68814A43F00103136000BFB4
:104DA0007E4B1B6803F00203002BF9D07B4B1B6882
:104DB0007A4A43F4803313600520FFF799FF784B5C
:104DC0001B68784A934211D9744B1B6B734A43F0AA
:104DD00080531363744B1B68734A23F4404313607E
:104DE000714B1B68704A43F4404313606B4B1B6864
:104DF00003F400337B607B68002B08D1BB68013370
:104E0000BB60BB68B3F5485F80F0C380EEE700BFCE
:104E1000624B1B6803F40033002B02D100237B603C
:104E2000B8E001237B600520FFF762FF5C4B5F4A1F
:104E30001A605F4B1B685E4A43F0100313605C4BC3
:104E40001B685B4A23F007031360554B1B68013B4B
:104E5000584AA2FB03235B0D7B617B6903F00702C9
:104E6000534B1B68524913430B604C4B5B684B4AD6
:104E700023F47F5323F030035360484B5B68474A69
:104E800043F090035360454B444A5B685360444B86
:104E90001B68494A934206D9404B5B683F4A43F43A
:104EA000A06353600AE03E4B1B68444A934205D915
:104EB0003A4B5B68394A43F480635360384B196856
:104EC000BB1CFA1C3E48FFF7C1FE344B9B6C334AB7
:104ED00023F003039364314B9B6C304A43F001038E
:104EE0009364BB7803F00703FB60FB7803F07F0358
:104EF0003B612A4B1B6B294A43F080531363274BBA
:104F00009B6C264A23F4FE0323F4E06393643B691D
:104F10001A04FB681B021A43204B9B6C1F49134366
:104F20008B641E4B1B681D4A43F08073136000E0C6
:104F300000BF1A4B1B6803F00073002BF8D0174B0F
:104F40005B68164A23F003035360144B5B68134AF3
:104F500043F00203536000E000BF104B5B6803F0B6
:104F60000C03082BF8D10120FFF7C2FE0B4B5B6846
:104F70000A4A23F0100353600120FFF7B9FE074BE4
:104F80005B68064A23F0800353600120FFF7B0FE00
:104F900000E000BF1837BD4680BD00BF00100240D2
:104FA000FC00002000D8B80500700040000E270764
:104FB00000200240819F5E1600A24A040051250293
:104FC00000127A002DE9F041C1F30A5EAEF2FF3C17
:104FD000BCF1130F044616460F4616DCBCF1000F59
:104FE00057DB334B43FA0CFC01EA0C03034323D099
:104FF000002221EA0C03C6E9002300F021FB04464D
:105000000B4620461946BDE8F081BCF1330F2CDC7D
:105010004FF0FF33AEF2134E23FA0EFE10EA0E0CE1
:1050200016D102460B466446C6E9002301F0004350
:1050300020461946BDE8F08120463946C2E9000104
:1050400007F000411C460B4620461946BDE8F0819A
:105050000B4620EA0E02C6E9002300F0F1FA0446EE
:105060000B4620461946BDE8F08102460B46C6E9CC
:10507000002300F01FF8B0B9224620463B463946CF
:1050800000F0E0FA04460B4620461946C6E9000146
:10509000B7E70B46002001F00041C2E900012046BD
:1050A0001946BDE8F081002207F000431446A8E746
:1050B000FFFF0F000B4631F0004106D00F4AA3F569
:1050C000801C94450DD804207047A0B10C4A1342AF
:1050D0000FD0914201D000207047B0FA80F0400913
:1050E000704703F1FF4C0CF5E00C9445EED804201A
:1050F0007047032070470220704700BFFFFFDF7F2B
:105100000000F07F08B50021044600F091F846F257
:10511000D003C0F600031868C36B03B1984720465C
:1051200000F05EF970B540F20006C0F2000640F2F1
:105130000005C0F20005761BB61006D0002455F815
:10514000043B01349847A642F9D140F20006C0F270
:10515000000640F20005C0F20005761B00F0CCFF0F
:10516000B61006D0002455F8043B01349847A642F7
:10517000F9D170BD30B5830748D0541E002A3FD006
:10518000CAB2034601E0013C3AD303F8012B9D0764
:10519000F9D1032C2DD9CDB20F2C45EA052545EACE
:1051A000054536D9A4F1100203F1200E22F00F0CB0
:1051B000E6444FEA121C03F1100242E9045542E9A9
:1051C000025510327245F8D10CF1010214F00C0FA7
:1051D00004F00F0C03EB021213D0ACF1040323F024
:1051E00003030433134442F8045B9342FBD10CF0F5
:1051F00003042CB1CAB21C4403F8012B9C42FBD11E
:1052000030BD13466446002CF4D1F9E7034614463A
:10521000BFE71A46A446E0E740F20003C0F20003ED
:105220002BB145F20130C0F6000000F063B87047C2
:105230002DE9F04F40F24053C2F2000383B00F4615
:10524000CDE90003186800F07BF846F2D003C0F601
:105250000003D3F80080D8F8486196B14FF00109F7
:105260004FF0000A7468651E0BD4013406EB840409
:1052700077B1D4F80031BB420AD0013D043C6B1C2D
:10528000F6D1019B186803B0BDE8F04F00F060B89C
:1052900022687368013BAB420CBF7560C4F800A084
:1052A000002AEAD0D6F8880109FA05F1D6F804B048
:1052B00001420BD1904772685A4512D1D8F8483153
:1052C000B342DAD01E46002ECCD1DAE7D6F88C01F4
:1052D00001420BD1D4F880100098904772685A456B
:1052E000ECD0D8F84861002EBCD1CAE7D4F88000D1
:1052F0009047E0E7002301461A46184600F02AB816
:1053000038B540F20005C0F2000540F20004C0F2DA
:1053100000042C1BA41005D055F8043D013C98470F
:10532000002CF9D1BDE8384000F0ECBE704700BF5A
:10533000704700BF704700BF704700BF704700BF95
:10534000704700BF0120704701207047704700BFC1
:10535000704700BF2DE9F04740F24056C2F2000608
:1053600007469946884692463068FFF7E9FF46F2BD
:10537000D000C0F600000368D3F8484124B3656844
:105380001F2D26DC57B96B1C02353068636044F86A
:105390002580FFF7DDFF0020BDE8F08704EB8501E5
:1053A0000123AB40022FC1F888A0D4F8882142EA3B
:1053B0000302C4F88821C1F8089102BFD4F88C21F7
:1053C0001343C4F88C31DEE703F5A674C3F84841F3
:1053D000D5E73068FFF7BCFF4FF0FF30DCE700BFD8
:1053E000FEE700BF70B54FF0FF0C4CF4E06C1CEA18
:1053F00011541DBF1CEA135594EA0C0F95EA0C0FCB
:1054000000F0DEF82C4481EA030621EA4C5123EA3D
:105410004C5350EA013518BF52EA033541F480116C
:1054200043F4801338D0A0FB02CE4FF00005E1FB1F
:1054300002E506F00042E0FB03E54FF00006E1FB69
:1054400003569CF0000F18BF4EF0010EA4F1FF04AC
:10545000B6F5007F64F5407404D25FEA4E0E6D41EC
:1054600046EB060642EAC62141EA55514FEAC520FD
:1054700040EA5E504FEACE2EB4F1FD0C88BFBCF579
:10548000E06F1ED8BEF1004F08BF5FEA500E50F12A
:10549000000041EB045170BD06F0004646EA0101F0
:1054A00040EA020081EA0301B4EB5C04C2BFD4EB22
:1054B0000C0541EA045170BD41F480114FF0000E1B
:1054C000013C00F3AB8014F1360FDEBF002001F089
:1054D000004170BDC4F10004203C35DA0C341BDC03
:1054E00004F11404C4F1200500FA05F320FA04F0D5
:1054F00001FA05F240EA020001F0004221F0004109
:1055000010EBD37021FA04F642EB06015EEA430E7B
:1055100008BF20EAD37070BDC4F10C04C4F12005AB
:1055200000FA04F320FA05F001FA04F240EA02005E
:1055300001F0004110EBD37041F100015EEA430E2F
:1055400008BF20EAD37070BDC4F1200500FA05F24F
:105550004EEA020E20FA04F301FA05F243EA0203CE
:1055600021FA04F001F0004121FA04F220EA0200DD
:1055700000EBD3705EEA430E08BF20EAD37070BD23
:1055800094F0000F0FD101F00046400041EB010103
:1055900011F4801F08BF013CF7D041EA060195F0E5
:1055A000000F18BF704703F00046520043EB03039F
:1055B00013F4801F08BF013DF7D043EA060370478C
:1055C00094EA0C0F0CEA135518BF95EA0C0F0CD097
:1055D00050EA410618BF52EA4306D1D181EA0301DD
:1055E00001F000414FF0000070BD50EA410606BFD7
:1055F0001046194652EA430619D094EA0C0F02D11C
:1056000050EA013613D195EA0C0F05D152EA033660
:105610001CBF104619460AD181EA030101F000417E
:1056200041F0FE4141F470014FF0000070BD41F0C7
:10563000FE4141F4780170BD81F0004102E000BFFD
:1056400083F0004330B54FEA41044FEA430594EA42
:10565000050F08BF90EA020F1FBF54EA000C55EA7D
:10566000020C7FEA645C7FEA655C00F0E2804FEA4E
:105670005454D4EB5555B8BF6D420CDD2C4480EA30
:10568000020281EA030382EA000083EA010180EA60
:10569000020281EA0303362D88BF30BD11F0004FAE
:1056A0004FEA01314FF4801C4CEA113102D04042E4
:1056B00061EB410113F0004F4FEA03334CEA13331F
:1056C00002D0524263EB430394EA050F00F0A78037
:1056D000A4F10104D5F1200E0DDB02FA0EFC22FA32
:1056E00005F2801841F1000103FA0EF2801843FA26
:1056F00005F359410EE0A5F120050EF1200E012A17
:1057000003FA0EFC28BF4CF0020C43FA05F3C01854
:1057100051EBE37101F0004507D54FF0000EDCF1CD
:10572000000C7EEB00006EEB0101B1F5801F1BD376
:10573000B1F5001F0CD349085FEA30004FEA3C0C7A
:1057400004F101044FEA445212F5800F80F09A8070
:10575000BCF1004F08BF5FEA500C50F1000041EB74
:10576000045141EA050130BD5FEA4C0C404141EB78
:105770000101013C28BFB1F5801FE9D291F0000F73
:1057800004BF01460020B1FA81F308BF2033A3F122
:105790000B03B3F120020CDA0C3208DD02F1140C19
:1057A000C2F10C0201FA0CF021FA02F10CE002F154
:1057B0001402D8BFC2F1200C01FA02F120FA0CFC4D
:1057C000DCBF41EA0C019040E41AA2BF01EB045196
:1057D000294330BD6FEA04041F3C1CDA0C340EDC94
:1057E00004F11404C4F1200220FA04F001FA02F3D7
:1057F00040EA030021FA04F345EA030130BDC4F195
:105800000C04C4F1200220FA02F001FA04F340EA89
:105810000300294630BD21FA04F0294630BD94F03A
:10582000000F83F4801306BF81F480110134013D21
:105830004EE77FEA645C18BF7FEA655C29D094EA92
:10584000050F08BF90EA020F05D054EA000C04BF10
:105850001946104630BD91EA030F1EBF00210020FB
:1058600030BD5FEA545C05D14000494128BF41F09A
:10587000004130BD14F580043CBF01F5801130BDFE
:1058800001F0004545F0FE4141F470014FF0000089
:1058900030BD7FEA645C1ABF194610467FEA655C3A
:1058A0001CBF0B46024650EA013406BF52EA0335DC
:1058B00091EA030F41F4002130BD00BF90F0000FCA
:1058C00004BF0021704730B54FF4806404F1320406
:1058D0004FF000054FF0000150E700BF90F0000FBF
:1058E00004BF0021704730B54FF4806404F13204E6
:1058F00010F0004548BF40424FF000013EE700BFB6
:1059000042004FEAE2014FEA31014FEA02701FBF45
:1059100012F07F4393F07F4F81F06051704732F077
:105920007F4208BF704793F07F4F04BF41F40021CE
:10593000704730B54FF4607401F0004521F000412C
:105940001CE700BF50EA010208BF704730B54FF0B6
:1059500000050AE050EA010208BF704730B511F0B7
:10596000004502D5404261EB41014FF4806404F1EF
:1059700032045FEA915C3FF4D8AE4FF003025FEA75
:10598000DC0C18BF03325FEADC0C18BF033202EBF9
:10599000DC02C2F1200300FA03FC20FA02F001FA53
:1059A00003FE40EA0E0021FA02F11444BDE600BFF6
:1059B00070B54FF0FF0C4CF4E06C1CEA11541DBFA5
:1059C0001CEA135594EA0C0F95EA0C0F00F0DEF870
:1059D0002C4481EA030621EA4C5123EA4C5350EA55
:1059E000013518BF52EA033541F4801143F48013A6
:1059F00038D0A0FB02CE4FF00005E1FB02E506F037
:105A00000042E0FB03E54FF00006E1FB03569CF08B
:105A1000000F18BF4EF0010EA4F1FF04B6F5007F91
:105A200064F5407404D25FEA4E0E6D4146EB060603
:105A300042EAC62141EA55514FEAC52040EA5E508C
:105A40004FEACE2EB4F1FD0C88BFBCF5E06F1ED836
:105A5000BEF1004F08BF5FEA500E50F1000041EB6D
:105A6000045170BD06F0004646EA010140EA02001A
:105A700081EA0301B4EB5C04C2BFD4EB0C0541EA3C
:105A8000045170BD41F480114FF0000E013C00F351
:105A9000AB8014F1360FDEBF002001F0004170BD75
:105AA000C4F10004203C35DA0C341BDC04F114048E
:105AB000C4F1200500FA05F320FA04F001FA05F21A
:105AC00040EA020001F0004221F0004110EBD370E7
:105AD00021FA04F642EB06015EEA430E08BF20EA13
