:040000050800C1919D
:020000040800F2
:10C00000A0350020C9C30008D1C300082FD70008FD
:10C01000D5C30008D7C30008D9C300081220FBAF5E
:10C020008F9E939B70324D4D685D0300DDC200080A
:10C03000DDC30008A472010865C30008B5C3000889
:10C04000E3C30008E3C30008E3C30008E3C3000838
:10C05000E3C30008E3C30008E3C30008E3C3000828
:10C06000E3C30008E3C30008E3C30008E3C3000818
:10C07000E3C30008E3C30008E3C30008E3C3000808
:10C08000E3C30008E3C30008E3C30008E3C30008F8
:10C0900000000000E3C3000800000000E3C3000844
:10C0A000E3C30008E3C30008E3C30008E3C30008D8
:10C0B000E3C30008E3C30008E3C30008E3C30008C8
:10C0C00000000000E3C3000800000000E3C3000814
:10C0D000E3C3000855E60008E3C30008E3C3000813
:10C0E000E3C30008E3C30008E3C30008E3C3000898
:10C0F000E3C30008E3C30008E3C30008E3C3000888
:10C1000000000000E3C30008E3C30008E3C3000825
:10C11000E3C30008E3C30008E3C30008E3C3000867
:10C12000E3C30008E3C30008E3C30008E3C3000857
:10C13000E3C30008E3C300080000000000000000A3
:10C14000E3C300080000000000000000A5D80008BC
:10C15000000000000000000000000000E3C3000831
:10C1600000000000000000000000000000000000CF
:10C1700000000000000000000000000000000000BF
:10C180000000000000000000E3C30008E3C3000853
:10C1900000F002F800F05AF80AA090E8000C82447F
:10C1A0008344AAF10107DA4501D100F04FF8AFF25C
:10C1B000090EBAE80F0013F0010F18BFFB1A43F085
:10C1C00001031847F8C7000018C800000A444FF0E0
:10C1D000000C10F8013B13F0070408BF10F8014BE6
:10C1E0001D1108BF10F8015B641E05D010F8016B2B
:10C1F000641E01F8016BF9D113F0080F1EBF10F88F
:10C20000014BAD1C0C1B09D16D1E58BF01F801CBB1
:10C21000FAD505E014F8016B01F8016B6D1EF9D534
:10C220009142D6D370470000002300240025002649
:10C23000103A28BF78C1FBD8520728BF30C148BF89
:10C240000B6070471FB51FBD10B510BD00F0CCFAD4
:10C25000114603B404F066FE03BCFFF7F3FF06F0DB
:10C2600061FC00F0E6FA03B4FFF7EEFF03BC00F058
:10C27000E9FA000080F309887047EFF309807047FE
:10C28000684680F3098804480078C00714BF02207C
:10C29000032080F314887047007C0108DFF818C081
:10C2A000EFF305831B0618BF6047EFF31483DB072A
:10C2B00008BF604700DF7047353A0108DFF818C053
:10C2C000EFF305831B0618BF6047EFF31483DB070A
:10C2D00008BF604700DF7047413C0108EFF3098069
:10C2E000816911F8021C39BB90E80F10E047EFF3A9
:10C2F000098C194B93E80600914218D059B10CB43F
:10C300004FF0010381F821302CE9F00FC1F824C06F
:10C3100007F02AFF0CBC1A60D2F824C0BCE8F00F6A
:10C3200092F821308CF309881BB192F82000CCF8E8
:10C3300000006FF0020E704710B5084A1268914273
:10C3400009D8074C54F8214090E80F10A047EFF3AC
:10C35000098C8CE80F0010BD3004002054C8000880
:10C3600054C8000807F0ECFD114B93E80600914219
:10C370001BD00CB44FF0000381F82130EFF3098C8F
:10C380002CE9F00FC1F824C007F0EEFE0CBC1A60D7
:10C39000D2F824C0BCE8F00F8CF3098892F8213061
:10C3A0001BB192F82030CCF800306FF0020E7047CD
:10C3B0003004002007F09AFFD6E7000006F034FEB4
:10C3C00007F094FFD0E7000009488047094800477C
:10C3D000FEE7FEE7FEE7FEE7FEE7FEE7FEE7FEE735
:10C3E000FEE7FEE704480549054A064B7047000092
:10C3F0008DE4000891C10008A02F0020A035002086
:10C40000A0310020A031002000487047402F0020BC
:10C4100040EA010310B59B070FD1042A0DD310C8C1
:10C4200008C9121F9C42F8D020BA19BA884201D913
:10C43000012010BD4FF0FF3010BD1AB1D30703D05B
:10C44000521C07E0002010BD10F8013B11F8014B11
:10C450001B1B07D110F8013B11F8014B1B1B01D12D
:10C46000921EF1D1184610BD10B5431C02E010F821
:10C47000011B71B18107FAD14FF0013202C88C1A49
:10C480008C4314EAC211F9D0C01A0A0603D0C01EA8
:10C4900010BDC01A10BD0A0401D0801E10BD0902D3
:10C4A000FCD0401E10BD40EA010370B59B072ED1A1
:10C4B0004FF00136042A2AD308C810C99D1B9D439A
:10C4C000121F15EAC61517D0D8B2E1B2401A50EAC9
:10C4D000056110D198B2A1B2401A50EA05410AD1C3
:10C4E00023F07F4024F07F41401A50EA052102D119
:10C4F000180EA0EB146070BDA342DBD018BA21BAAD
:10C50000884201D9012070BD4FF0FF3070BD0AB9DB
:10C51000002070BD10F8013B11F8014B63B1A3423C
:10C520000AD1521E08D010F8013B11F8014B1BB183
:10C53000A34201D1521EEDD1181B70BD421E12F84C
:10C54000013F002BFBD111F8013B002B02F8013B0E
:10C55000F9D17047032A40F2308010F0030C00F04C
:10C56000158011F8013BBCF1020F624498BF11F82D
:10C5700001CB00F8013B38BF11F8013BA2F10402E6
:10C5800098BF00F801CB38BF00F8013B11F003035E
:10C5900000F06780083AC0F0088051F8043B083A80
:10C5A00051F804CBA0E80810F5E7121D5CBF51F864
:10C5B000043B40F8043BAFF30080D20724BF11F8DE
:10C5C000013B11F801CB48BF11F8012B24BF00F843
:10C5D000013B00F801CB48BF00F8012B7047431A1C
:10C5E00028BF9A427FF6B6AF032A1044114440F2A6
:10C5F000268010F0030F1EBF11F8013D521E00F8F7
:10C60000013D10F0030F7FF4F6AF11F0030300F0CB
:10C61000C180083AC0F00B8051F8043D083A51F847
:10C6200004CD40F8043D40F804CDFFF7F3BF121DE0
:10C630005CBF51F8043D40F8043DAFF30080D207E1
:10C6400024BF11F8013D11F801CD48BF11F8012CAC
:10C6500024BF00F8013D00F801CD48BF00F8012CCF
:10C66000704710B5203AC0F00B80B1E81850203A5E
:10C67000A0E81850B1E81850A0E81850BFF4F5AF82
:10C680005FEA027C24BFB1E81850A0E8185044BF0C
:10C6900018C918C0BDE810405FEA827C24BF51F879
:10C6A000043B40F8043B08BF7047D20728BF31F86D
:10C6B000023B48BF11F8012B28BF20F8023B48BFBE
:10C6C00000F8012B704702F0FF0343EA032242EA1D
:10C6D000024200F002B84FF000020429C0F01280BC
:10C6E00010F0030C00F01B80CCF1040CBCF1020F25
:10C6F00018BF00F8012BA8BF20F8022BA1EB0C01FA
:10C7000000F00DB85FEAC17C24BF00F8012B00F8EF
:10C71000012B48BF00F8012B70474FF0000200B515
:10C72000134694469646203922BFA0E80C50A0E854
:10C730000C50B1F12001BFF4F7AF090728BFA0E802
:10C740000C5048BF0CC05DF804EB890028BF40F8CE
:10C75000042B08BF704748BF20F8022B11F0804F10
:10C7600018BF00F8012B7047704770477047431A95
:10C7700028BF9A427FF675AF104410F0030F1144A2
:10C780001EBF11F8013D521E00F8013D10F0030FCD
:10C790007FF4F6AF103AC0F00A8010B531E91850B6
:10C7A000103A20E91850BFF4F9AFBDE81040530724
:10C7B00024BF31E9081020E9081044BF51F8043DB6
:10C7C00040F8043D12F0030F08BF7047D20728BF9E
:10C7D00031F8023D48BF11F8012C28BF20F8023D76
:10C7E00048BF00F8012C70477546FFF70DFEAE46B6
:10C7F00005006946534620F00700854618B020B56D
:10C80000FFF7F0FDBDE820404FF000064FF00007B5
:10C810004FF000084FF0000B21F00701AC46ACE8E8
:10C82000C009ACE8C009ACE8C009ACE8C0098D4655
:10C83000704710B50446AFF300802046BDE81040B5
:10C84000FFF711BD01491820ABBEFEE7260002002C
:10C8500070470000000000000021014801F06EBE9A
:10C86000000800400121014801F068BE00080040B6
:10C870002DE9F04102787F2A03D0BDE8F04100F0B5
:10C8800079B801F8012B447801F8014B861C0D465C
:10C890004FF0021708E02946304600F06BF80744D5
:10C8A00006EB104680B20544641EF4D23846BDE85B
:10C8B000F081000070B500240B46F02842D00BDC5C
:10C8C0002A4AA0F10300072811694DD2DFE800F0E1
:10C8D00011151C21272A340000224021FD2843D0B5
:10C8E00002DCF12840D130E0FE283AD0FF283BD1CD
:10C8F00033E01C4605F078FF21E0062422461C495F
:10C900001846FFF727FE2FE0184699B1D1F8A41179
:10C9100003E0184671B1D1F8A81139B90AE01846F8
:10C92000D16FFAE71846D2F88010F6E707F068F8FA
:10C93000044619E0002417E01C4605F05DFF01469F
:10C940002046F3E7312008700DE01970422058703E
:10C950000F209870DA70042406E019705A700224CF
:10C9600002E0042018700124204670BDA472010862
:10C97000287301082DE9F84F0278A2F180031F2BDC
:10C9800003D800F04DF9BDE8F88FA2F1A0035E2BAB
:10C9900002D800F0DDF9F6E701F8012B0C4610F89B
:10C9A00001CB00250127FF21944B954ADFF854A2C3
:10C9B000DFF854924FF00116BCF11E0F72D2DFE87F
:10C9C0000CF00F17294EC1CAE571F46272717171D2
:10C9D0007171767A8999A6BCBF717171717171A2FA
:10C9E0000078611CFFF766FF207000F10210CAE7B3
:10C9F000027822B1012A53D021701846E8E040782D
:10CA0000C1074FF4804001D0804901E07F49091FF0
:10CA1000086045E0057825B1012D03D0002525707B
:10CA200056E00125177005215746504606F078FC60
:10CA3000202038610421384606F072FC102038614D
:10CA400001220621384606F019FC0C21704806F038
:10CA500067FC6F494FF4805010310860DFE71570B4
:10CA6000002205215646504606F008FC002204210B
:10CA7000304606F003FC00220621304606F0FEFB9D
:10CA800025703846A4E001886248634A0068B0FB1C
:10CA9000F2F00322801CB0FBF2F04843401EFDD1AF
:10CAA0002570AAE7A6E065702570022090E0214677
:10CAB00000F058FC8CE086780388C07866F31F434A
:10CAC000564E53EA00603BD0906001F0C1FCA6E7EF
:10CAD00030467DE010F8016B0EB94FF480760146C8
:10CAE000304601F087FCF61D2570F008000400F1C7
:10CAF00001106DE0007800F00301491C1177C0F3CC
:10CB0000800050778BE7214600F080F960E02170CB
:10CB10000122144610F8013B0AE010F8011B11F045
:10CB20003F0100D14021C91DC9080A440844521CD4
:10CB30005B1EF2D244EA02404AE000782170D5E759
:10CB40002170C5E701781174B0F801109182B0F836
:10CB50000300D0824CE012782146012A13D0064609
:10CB6000401C10F8012B42B110F8013B9C0701D585
:10CB7000DB0600D5001D521EF6D1801B0D7000048F
:10CB80004D70801C24E000F089F921E00646107801
:10CB9000214601280AD00D704D70A5700321F07850
:10CBA000800708D541F4802012E00CE0304600F008
:10CBB00041FB0146F3E7B6F801004FF4802202EB97
:10CBC0008040084304E01278012A04D021704846CE
:10CBD00000F10110D7E6C278B0F80110007962F3D5
:10CBE0001F4141EA006000906946002001F0B6F85C
:10CBF0002570ECE704F8011C3046C4E60100020091
:10CC000064050020000004400100050014040440F5
:10CC100000080440F002002040420F000100040020
:10CC20002DE9FC47027801F8012B0D464FF0011465
:10CC300010F8011B00226700803906464FF00108FA
:10CC400004F101090E2975D2DFE801F007141F2E47
:10CC50003C74747447535D62667705F0C5FD064603
:10CC6000FFF702FCC4B22C70681C22463146FFF765
:10CC700071FC23E00724684601F0DEFE2246694687
:10CC80002846FFF767FC304C54E0684601F0D4FEBC
:10CC900030680090684601F0EFFE002001F062FF6E
:10CCA00085F80080294C45E03E21681C08F0F8FF1B
:10CCB000040002D0012005F04BFF2C7004F58034F5
:10CCC000A41C37E03778701C394609F05BF8012066
:10CCD00005F03EFF85F8008028E085F80080307878
:10CCE00020B1012802D02A703C4623E006F0B2F8B9
:10CCF000FAE785F8008004F091FA10B9022008F0F4
:10CD000075FD4C4616E0307807F0ECFC2870EBE738
:10CD100007F0B6FC2870F4E716F8017B012005F057
:10CD200027FF3946304607F07FFD287004EB0744A3
:10CD300004F101142046BDE8FC872A70307800B168
:10CD4000012005F0C3FACFE7090001000200050049
:10CD5000FF2008704FF001107047000070B50121EE
:10CD6000084600F04FFE0121022000F04BFE012199
:10CD7000042000F047FE0121082000F043FE0121BD
:10CD80008D03284600F056FE1D4C0022052120464A
:10CD900000F0B9FC0521204606F0C2FA20202061EF
:10CDA00000220421204600F0AEFC0421204606F0BB
:10CDB000B7FA1020206100220621204600F0A3FCD3
:10CDC00001220621204606F059FA0E4C00220C21C1
:10CDD000204600F098FC606820F470206060606875
:10CDE00040F4A02060600749A810103108600E21AF
:10CDF000054806F095FA04481030056070BD000043
:10CE00000000044000080440000404402DE9F05FE5
:10CE1000002201F8012B012510F8018B8A46A94652
:10CE20000446DFF874B030E014F8017B17F03F00DF
:10CE300000D14020C01DC608380608D500220421B4
:10CE4000584606F01BFA1020CBF8100006E004212B
:10CE5000584606F065FA1020CBF8140052462146D9
:10CE6000384600F017FFB8F1000F06D104215846EC
:10CE700006F056FA1020CBF81400380602D5B2445A
:10CE8000B14401E0344435446D1CB8F10108CBD203
:10CE900049EA0540BDE8F09F000004402DE9F04F4D
:10CEA00087B0054605900020DFF880A3CDE9010199
:10CEB0008C1C8AF8000003906978AD1C07465FEA75
:10CEC000010871D015F8016BB1076ED5F7B3DFF823
:10CED00060B306F011000128BBF8149007D0574644
:10CEE00069460E2000F03AFF02280ED013E0694692
:10CEF000304600F033FF02280ED1B9F1010903D307
:10CF00009AF800100029F2D040E1B9F1010902D3EA
:10CF100039780029E4D000270128F5D1009904F8D8
:10CF2000011B0099090A04F8011B0099090C04F877
:10CF3000021B0099090E04F8011C3FB131060ED501
:10CF4000DBF80C1004F8011B0A0A00E007E004F803
:10CF5000012B0A0C04F8022B090E04F8011CF1063F
:10CF600052D5A97835F8030B61F31F4015F8011B62
:10CF700040EA01600490AE48B0F816B0F00715D052
:10CF8000AB48B0F814900021304600F0E7FE0228CC
:10CF900002D00128B8D109E0B9F10109B4D39AF857
:10CFA00000100029EFD0F1E011E187E0A048B0F8CF
:10CFB00014906946304600F0D1FE022802D00128C4
:10CFC00016D107E0B9F1010912D39AF8001000292F
:10CFD000EFD00DE09649009A89691140049A914278
:10CFE00006D0BBF1010B03D39AF800100029DDD065
:10CFF0008F49009A89691140049A914201D040F00A
:10D000001000012817D157E0DFF824B2F107BBF870
:10D01000149022D007BB0021304600F09FFE02286A
:10D0200002D0012807D107E0B9F1010903D39AF82A
:10D0300000100029EFD0A9E031060CD5DBF80C1068
:10D0400004F8011B0A0A04F8012B0A0C04F8022B4D
:10D05000090E04F8011C01272EE06946304600F055
:10D060007DFE022802D0012807D107E0B9F10109AD
:10D0700003D39AF800100029EFD087E031060CD5D1
:10D08000DBF80C1004F8011B0A0A04F8012B0A0C47
:10D0900004F8022B090E04F8011C009904F8011B86
:10D0A0000099090A04F8011B0099090C04F8021BF5
:10D0B0000099090E04F8011C002159E01FB35C48D7
:10D0C000B0F8149069460E2000F048FE022802D005
:10D0D00001285BD107E0B9F1010957D39AF8001094
:10D0E0000029EFD052E0009804F8010B0098000AE4
:10D0F00004F8010B0098000C04F8020B0098000ED5
:10D1000004F8010C0027A97835F8030B61F31F40E0
:10D1100015F8011B40EA01600090B10603D54449AF
:10D120008861012025E0DFF808B1BBF8149069465A
:10D13000304600F013FE022802D0012826D107E075
:10D14000B9F1010922D39AF800100029EFD01DE0AF
:10D1500031060CD5DBF80C1004F8011B0A0A04F8A0
:10D16000012B0A0C04F8022B090E04F8011C012102
:10D1700003910199491C01919AF8001031B9A8F165
:10D1800001015FEA01087FF49DAE0CE0B8F1000FE9
:10D1900009D015F8011B8A0701D5C90600D52D1D38
:10D1A000A8F10108F2E7012832D10FB32048574611
:10D1B000868A69460E2000F0D1FD022802D001289F
:10D1C00026D105E0761E23D339780029F1D01FE05F
:10D1D000009904F8011B0099090A04F8011B009941
:10D1E000090C04F8021B0099090E04F8011C0FE059
:10D1F000039969B10E485746868A00210E2000F037
:10D20000ADFD022804D1761E02D339780029F4D06E
:10D21000DDE901121170029948700298211A0598EF
:10D2200007B0281A41EA0040BDE8F08F0000002056
:10D23000640500202DE9F84F0026DFF8208105461F
:10D2400030468A46CF1C88F80060B5F80140ED1CD6
:10D25000002C77D015F8019BDFF804B15FEA8971E3
:10D260005FD55FEAC97139D0BBF814500021484638
:10D2700000F074FD022802D0012863D12EE06D1E5B
:10D2800060D398F800100029F0D05BE024B95FEA81
:10D29000C97001D04FF00E09BBF8145069464846DA
:10D2A00000F05CFD022802D001284BD106E06D1E83
:10D2B00048D398F800100029F0D043E0009907F80F
:10D2C000011B0099090A07F8011B0099090C07F8CE
:10D2D000021B0099090E07F8011C761C641ED5D2AA
:10D2E00030E0A97835F8030B61F31F4015F8011BF6
:10D2F00040EA016000901A48B0F814806946484638
:10D3000000F02CFD022802D001281BD107E0B8F163
:10D31000010817D39BF800100029EFD012E0761C0B
:10D3200000E0C346641EDCD20D485D46848A0021BD
:10D330000E2000F013FD022804D1641E02D32978C8
:10D340000029F4D08AF80060320A8AF801208AF8AD
:10D350000200A7EB0A00BDE8F88F000000000020E3
:10D36000640500202DE9F05F8B460578447802794A
:10D370004188407962F31F4141EA0066354FE0077A
:10D3800006D0E9074FF0200001D0386100E0786155
:10D39000A00706D5A9074FF0100001D5386100E0BD
:10D3A000786120060ED5E809C2074FF4805101D0FC
:10D3B000294A01E0284A121D116018B92749284856
:10D3C00008F000F8DFF890A04FF00009AAF1080A71
:10D3D00076B32448864200D9064601F095F8804687
:10D3E000E00704D0F868C0F34010A8421AD1A007A3
:10D3F00005D5B868C0F38010B0EB550F12D16007A7
:10D4000002D5B9EB950F0DD1A00602D5B9EB551F8A
:10D4100008D120060CD5DAF80000C0F30030B0EBDC
:10D42000D51F05D001F070F8A0EB0800B042D7D3AB
:10D43000F868B968C0F34010C1F3801140EA4100B8
:10D44000DAF80010090B40EAC1108BF8000006481A
:10D45000BDE8F09F00000440100804400400FA05F5
:10D460000CED00E0C0C62D0001000600094910B512
:10D4700000220A70084888600A7464238B82CA827A
:10D4800001238A610B774A7700F0E2FFBDE8104084
:10D49000FFF764BC64050020404B4C0070B50446A7
:10D4A000D0F808011D460E4600282AD0402A00DD8B
:10D4B0004022401EC4F80801D4F8100104EB80108B
:10D4C000FFF748F8D4F8100104EB80113046FFF75D
:10D4D000CFF9D4F8101104EB4101A1F80001D4F800
:10D4E000100104EB8010286094F81001401C00F03B
:10D4F0000300C4F81001D4F80C01401CC4F80C015E
:10D50000012070BDD0F80C31E3B15B1EC0F80C31C6
:10D51000D0F8143100EB83130B60D0F8141100EB3A
:10D520004101B1F80011116090F81411491C01F08B
:10D530000301C0F81411D0F80811491CC0F80811F3
:10D5400001207047002070470022C0F810210421FC
:10D55000C0F81421C0E94212704710B5044600F02B
:10D5600065F8204600F004F800F026F8002010BD11
:10D5700006490A6942F002020A614861086940F0FE
:10D580004000086140F6FF7000F05CB800200240E7
:10D590000848C168C90701D001207047C168490720
:10D5A00001D502207047C068C00601D5032070472E
:10D5B00004207047002002400248016941F08001C8
:10D5C000016170470020024004490A6822F01002FD
:10D5D0000A600A6802430A607047000000200240A7
:10D5E000044A136943F00103136101800F2000F026
:10D5F00029B800000020024030B50C46054689B22B
:10D60000FFF7EEFF042805D1210CA81CBDE830402F
:10D61000FFF7E6BF30BD000003490A6822F00702A9
:10D6200002430A607047000000200240034802499C
:10D630004160034941607047230167450020024073
:10D64000AB89EFCD00B50246FFF7A2FFFF21521EC6
:10D65000491EFDD1012801D1002AF5D1044900233A
:10D660000B613423CB60002A00D1052000BD0000EF
:10D67000002002402DE9F043CA7802F00F03D206E1
:10D6800001D58A781343002201274FF00F0C94062E
:10D69000240E0E8807FA02F52E4207D006680CFA0F
:10D6A00004F5AE4303FA04F426430660521CD2B2DA
:10D6B000082AECD30A88051D4FEA12280022B94631
:10D6C0009406240E09FA02F616EA080F07D02E680F
:10D6D0000CFA04F7BE4303FA04F426432E60521CEE
:10D6E000D2B2082AECD3CA78282A07D0482A03D114
:10D6F000026909880A430261BDE8F083426909882A
:10D700000A434261F8E74B0710B5DB0E082901D246
:10D71000203000E024300F249C4001689A40A1434F
:10D720001143016010BD416170470161704703F012
:10D730004FFB00207047000030B587B00121042066
:10D7400000F06CF94FF4D07005905F200024ADF824
:10D750001000164DADF818408DF812408DF81A40A3
:10D7600004A9284600F03CFF684600F02FFF702116
:10D770008DF8001001208DF80100D02001908DF867
:10D7800008406946284600F0EDFE0821284600F0D2
:10D7900017FF0121284600F0DBFE0121284600F09A
:10D7A000C3FEFFF759F807B030BD00000008004085
:10D7B0001CB507F0D7FA00281BD09E208DF800007A
:10D7C000E7208DF801006946102000F013FE07F0F5
:10D7D000C9FA00280DD000208DF800006946082005
:10D7E00000F008FE01A9002007F050FA012800D03F
:10D7F00000201CBD10B5084C4FF480412046FFF7B7
:10D8000094FF21152046FFF790FF2046BDE8104009
:10D810000221FFF78ABF00000004044010B5084C45
:10D820004FF480412046FFF77EFF21152046FFF789
:10D830007AFF2046BDE810400221FFF774BF0000C8
:10D840000004044070B5C27801780123EAB1144A9B
:10D8500012684478D243C2F30222C2F10405AC40FC
:10D8600085780F26D64035402C4301F1E021220176
:10D8700081F80024007800F01F018B4040098000EF
:10D8800000F1E020C0F8003170BD01F01F008340BE
:10D890004809800000F1E020C0F8803170BD000030
:10D8A0000CED00E02DE9F00F4FF0A0470023D7F872
:10D8B0008000DFF8DC80844601074CD5354C4FF002
:10D8C000150A04F5B4694FF0080BD7F89000C0B200
:10D8D0000209C0F3C001C0F3800552EA01061CD161
:10D8E000960006EB4101294414F83150C5F3830535
:10D8F000012D12D104EBC1056E8876B9244E143681
:10D90000B25C6A8014F83120520601D5882200E00A
:10D91000C82204F8312040F00100EFF3108272B603
:10D92000D8F8081009F80100491CB1FBFAF50AFB08
:10D93000151082F31088C8F80800C7F880B01BB92A
:10D94000D7F89400800601D5012300E00023D7F822
:10D9500080000107B9D44CEA000CEFF3108172B6D5
:10D960000B4C0C34226842EA0C0281F310882260CE
:10D970000BB1012100E0002198F80020114388F844
:10D980000010C7F88000BDE8F00F03F08BB900006D
:10D99000000400200022002010B54FF480610548EB
:10D9A000FFF7C1FEBDE810404FF400410248FFF709
:10D9B000BCBE0000000804400000044070B51546DD
:10D9C0000C460646FFF732FE0AE030462968FFF7AC
:10D9D00013FE042801D0012070BD241F2D1D361D0B
:10D9E000002CF2D1FFF7E8FD002070BD044A0029A9
:10D9F000516A01D0014300E0814351627047000049
:10DA000000100240044A0029916A01D0014300E05D
:10DA1000814391627047000000100240044A0029CF
:10DA2000116B01D0014300E0814311637047000096
:10DA300000100240044A0029D16A01D0014300E0ED
:10DA40008143D16270470000001002400C48016819
:10DA500041F001010160416821F00301416001686A
:10DA6000084A11400160816C074A114081640168D5
:10DA700021F4802101600021416081607047000035
:10DA800000100240FFFFF6FEFFF880FF01220B4965
:10DA9000B2EB501F01D1096806E00223B3EB501F1F
:10DAA00001D1496B00E0896B00F01F0082401142F8
:10DAB00001D0012070470020704700000010024094
:10DAC00000B500F035F804494968044AC1F3031170
:10DAD000515CC84000BD000000100240E002002080
:10DAE00000B5FFF7EDFF04494968044AC1F302217C
:10DAF000515CC84000BD000000100240E002002060
:10DB000000B5FFF7DDFF04494968044AC1F3C221AB
:10DB1000515CC84000BD000000100240E00200203F
:10DB20000248406800F00C007047000000100240FE
:10DB3000104A506800F00C010F48042905D008294C
:10DB400004D00C2901D149F640407047916CC907B7
:10DB500003D0916C890700D50848916C926CC1F391
:10DB60000641491CC2F302224843521CB0FBF2F0AA
:10DB7000704700000010024000127A0000093D00CA
:10DB800003494A6822F0F00202434A6070470000ED
:10DB90000010024009490A6822F4A0220A60B0F588
:10DBA000803F06D0B0F5802F07D1086840F4802070
:10DBB0000860086840F48030086070470010024038
:10DBC00003494A6822F4E06202434A607047000059
:10DBD0000010024003494A6822F4605242EAC00041
:10DBE000486070470010024003490A6822F08072C2
:10DBF00042EA0060086070470010024030B589B00A
:10DC00000D460446202209A16846FEF72AFD0F4A68
:10DC1000906C20F0030020439064684600EB554070
:10DC20004178007800F014F809B030BD0703050111
:10DC3000070109010B010D010F011101130115016C
:10DC4000170119011B011D011F01000000100240F6
:10DC5000000440EA01210348826C034B1A4011433F
:10DC60008164704700100240FFF880FF03494A6852
:10DC700022F0030202434A60704700000010024095
:10DC800003494A6822F4400242EA805048607047E3
:10DC9000001002402DE9F00110F03F0308BF4023BF
:10DCA00010F0800FDFF8ACC02B4C4FF0200628D0CE
:10DCB000002B04BFBDE8F00170470027082561680C
:10DCC00010E0401EFDD1DCF80800CCF81060C0F375
:10DCD00080180846401EFDD178085B1E40EAC81730
:10DCE0006D1E05D0002B1CBFCCF814600846E8D18F
:10DCF00027FA05F002F8010B002BDED1BDE8F00198
:10DD00007047002B19BF10276468BDE8F001704709
:10DD100011F8012B082513E0D00714BFCCF81070C0
:10DD2000CCF81470CCF814602046401EFDD1CCF81D
:10DD300010602046401EFDD152085B1E6D1E04D0AF
:10DD4000002BE9D1BDE8F0017047002BE0D1BDE820
:10DD5000F00170470000044064050020034A527837
:10DD60000AB100F005B800F03BB9000064050020DE
:10DD70002DE9F003954A4FF010080746C2F81080CD
:10DD8000202656611661C00714BFC2F81080C2F881
:10DD90001480566116617B085FEAC37C14BFC2F829
:10DDA0001080C2F8148056611661B8083B445FEADF
:10DDB000C07C14BFC2F81080C2F81480566116618E
:10DDC0000344F8085FEAC07C14BFC2F81080C2F8B0
:10DDD0001480566116611844C00714BFC2F8108041
:10DDE000C2F8148056611661C2F81480566116613B
:10DDF000C2F8108056611661106820F4702010601F
:10DE000010681060C2F81080DFF8C49199F81C30D7
:10DE1000B3F1000C03D0566116615B1EFBD1566155
:10DE200090681661C0F38010566193681661C3F361
:10DE3000801340EA4303566190681661C0F3801076
:10DE400043EA8000012819D0022818BF04287DD099
:10DE50001CF1210103D056611661491EFBD11168E6
:10DE600021F470211160116841F440311160C2F851
:10DE70001480C2F81080BDE8F003704717F0020F5D
:10DE800046D000252C4620235661D2F808C01661E2
:10DE9000CCF3801C6D08644445EACC755B1EF3D15D
:10DEA00056619368166184EA931313F0010F18BF4B
:10DEB0000820002918BF0D6099F81C1019B156618F
:10DEC0001661491EFBD1116821F47021116011689F
:10DED00041F440311160C2F8148000BF17F0800F88
:10DEE0000AD03C493C4B0968B1FBF3F13B4B5B6802
:10DEF000B3FBF1F1C9F80C1099F81010002918BF04
:10DF0000C2F814805CD056611661491EFBD157E0FF
:10DF1000BCF1000F04D056611661BCF1010CFAD1BE
:10DF2000136823F470231360136843F440331360C1
:10DF3000C2F81480096800234FF0200CCC0714BFEE
:10DF4000C2F81080C2F81480566100E00EE016613D
:10DF50000B444908BCF1010CF0D1D90714BFC2F839
:10DF60001080C2F8148056611661B7E799F81D3029
:10DF7000002B1CBF17F0020F212103D05661166140
:10DF8000491EFBD1BCF1000F04D056611661BCF1F3
:10DF9000010CFAD1116821F470211160116841F46B
:10DFA00040311160C2F8148053B117F0020F04BF62
:10DFB000C2F81480212103D156611661491EFBD19C
:10DFC000C2F81080BDE8F003704700000000044074
:10DFD00064050020F002002040420F00001000E025
:10DFE0002DE9F04FDFF8F8C34FF010080024CCF80B
:10DFF00010802027CCF81470DFF8E8B3DBF8042099
:10E0000013465B1EFDD1CCF8107013465B1EFDD18C
:10E01000C30714BFCCF81080CCF81480CCF814706F
:10E0200013465B1EFDD1CCF8107013465B1EFDD16C
:10E0300025184408E30714BFCCF81080CCF81480EE
:10E04000CCF8147013465B1EFDD1CCF8107013464B
:10E050005B1EFDD12C448508EB0714BFCCF8108063
:10E06000CCF81480CCF8147013465B1EFDD1CCF8AC
:10E07000107013465B1EFDD12C44C508EB0714BF7E
:10E08000CCF81080CCF81480CCF8147013465B1ECA
:10E09000FDD1CCF8107013465B1EFDD16319DB0770
:10E0A00014BFCCF81080CCF81480CCF81470134650
:10E0B0005B1EFDD1CCF8107013465B1EFDD1CCF871
:10E0C0001480CCF8147013465B1EFDD1CCF8107090
:10E0D00013465B1EFDD1CCF81080CCF814701346AB
:10E0E0005B1EFDD1CCF8107013465B1EFDD1DCF831
:10E0F000003023F47023CCF80030DCF80030CCF88A
:10E100000030CCF810809BF81C40251E0CD000BFBE
:10E11000CCF8147013465B1EFDD1CCF8107013467A
:10E120005B1EFDD1641EF3D1CCF8147013465B1E48
:10E13000FDD1DCF80830CCF81070C3F3801413461E
:10E140005B1EFDD1CCF8147013465B1EFDD1DCF8CC
:10E150000830CCF81070C3F3801613465B1EFDD157
:10E1600044EA4604CCF8147013465B1EFDD1DCF87B
:10E170000830CCF81070C3F3801613465B1EFDD137
:10E1800044EA8604012C26D0022C18BF042C75D03A
:10E1900015F121010CD000BFCCF814701046401EC0
:10E1A000FDD1CCF810701046401EFDD1491EF3D1B0
:10E1B000DCF8000020F47020CCF80000DCF800004F
:10E1C00040F44030CCF80000CCF81480CCF810803B
:10E1D0002046BDE8F08F10F0020F50D04FF000093C
:10E1E0004E462025CCF8147013465B1EFDD1DCF89A
:10E1F0000830CCF81070C3F380139246BAF1010ACC
:10E20000FCD14FEA59091E4449EAC3796D1EE9D190
:10E210003D466346CCF81470DE469246BAF1010AD8
:10E22000FCD1D3F808A01D61CAF3801A521EFDD19B
:10E2300086EA0A0212F0010F18BF0824002918BF4D
:10E24000C1F800909EF81C20002A18BFDBF804607B
:10E2500009D05D613146491EFDD11D613146491E1F
:10E26000FDD1521EF5D1196821F470211960196889
:10E2700041F440311960C3F8148042E065E05DB1BB
:10E28000CCF8147013465B1EFDD1CCF81070134609
:10E290005B1EFDD16D1EF3D1DCF8003023F470233A
:10E2A000CCF80030DCF8003043F44033CCF80030D8
:10E2B000CCF8148000250B682026D90714BFCCF8B1
:10E2C0001080CCF81480CCF814701146491EFDD192
:10E2D000CCF810701146491EFDD11D445B08761E16
:10E2E000EBD1E90714BFCCF81080CCF814803B4682
:10E2F0006546CCF814701146491EFDD12B61521EA3
:10E30000FDD110F0800F0AD0374838490068B0FBC3
:10E31000F1F037494968B1FBF0F0CBF80C009BF8FD
:10E320001020002A1CBFCCF81480DBF8041051D058
:10E33000CCF814700846401EFDD1CCF81070084689
:10E34000401EFDD1521EF3D144E09BF81D30002B3E
:10E350001CBF10F0020F21260CD000BFCCF81470A7
:10E360001146491EFDD1CCF810701146491EFDD151
:10E37000761EF3D165B100BFCCF814701146491E6A
:10E38000FDD1CCF810701146491EFDD16D1EF3D1A0
:10E39000DCF8001021F47021CCF80010DCF800103B
:10E3A00041F44031CCF80010CCF8148093B110F057
:10E3B000020F04BFCCF8148021210BD1CCF81470CB
:10E3C0001046401EFDD1CCF810701046401EFDD105
:10E3D000491EF3D1CCF810802046BDE8F08F000034
:10E3E0000000044064050020F002002040420F00BD
:10E3F000001000E0F0B4451E3CBFF0BC7047102791
:10E4000020261248DFF840C0D0F8042011F8013B64
:10E410005FF0080413F0010F14BFCCF81070CCF8B3
:10E420001470CCF814601046401EFDD1CCF810607A
:10E430001046401EFDD15B08641E6D1E3CBFF0BC43
:10E440007047002CE6D1E1E700000440640500209D
:10E450000C490D4A0968B0EB910F02D301205070AE
:10E460000DE000EB5101491EB1FBF0F000235370A9
:10E47000022803D90321B0FBF1F000E00120506035
:10E4800070470000F00200206405002010490F488A
:10E4900008601048016841F00101016041680E4ABE
:10E4A0001140416001680D4A11400160016821F48A
:10E4B00080210160416821F4430141600168084AFC
:10E4C000114001604FF41F018160704700127A0013
:10E4D000F0020020001002400CC0FFF8FFFFF6FE23
:10E4E000FFFF8F00BFF34F8F05480168054A01F415
:10E4F000E06111430160BFF34F8F00BFFDE70000F3
:10E500000CED00E00400FA05044805490068B0FB82
:10E51000F1F004494968B1FBF0F07047F0020020C7
:10E5200040420F00001000E00029016802D041F0D5
:10E53000800101E021F0800101607047002901683D
:10E5400002D041F0010101E021F0010101607047BA
:10E550000029416C02D041F4004101E021F4004166
:10E5600041647047C2690B7822F070021A43C2619D
:10E570000A7A4B781A43036A23F4407343EA02226F
:10E5800002624A68C2630C4A904202D00B4A90422F
:10E5900011D14A7A8B781A43036A23F4406343EA21
:10E5A000022202624A8989890A43416821F4405162
:10E5B00041EA021141607047002C014000340140E3
:10E5C000C26922F008020A43C2617047002101704B
:10E5D0004170817041600172417241818181704757
:10E5E00030B502680B8922F440721A430260144A63
:10E5F000144B90420DD0B0F1804F0AD0124CA04283
:10E6000007D0124CA04204D0114CA04201D0984235
:10E6100005D104688D7824F070042C430460904286
:10E6200001D0984205D1026B8B7A22F0FF021A4387
:10E6300002634A68C262098881620121416130BD7A
:10E64000002C01400034014000040040000800405C
:10E65000000C004070B516480468A00714D5144893
:10E6600008380068C5B2134802F0F0FC132804D93A
:10E670002946104802F04EFD06E005D14FF0130286
:10E680000DA10C4802F099FDE00709D00F4802F0F7
:10E69000EAFC074C0C3C20B10C4802F0FFFC206067
:10E6A00070BD2046BDE870400022012100F016B880
:10E6B0000C380140D81C00203C4441504C696E6B22
:10E6C0003A4F766572666C6F773E0A00C81A002072
:10E6D000826922F001020A4382617047002A0269BE
:10E6E00001D00A4300E08A430261704770B50446D6
:10E6F000C0690D46097920F030000843E061E06907
:10E70000A97920F044000843E061E069297A20F00B
:10E7100003000843E061A069698920F018000843FC
:10E72000A061A069297B20F004000843A0610A4889
:10E73000844202D1FFF7E4F901E0FFF7D1F929683B
:10E74000B0FBF1F1090921622968B0FBF1F000F09A
:10E750000F00606270BD000000380140002070476B
:10E760000348D0E90410081A02490988081A7047BA
:10E77000940400200E7A010870B50B4D0C46034638
:10E78000D5E90C0188420BD9401A844200DD0446C9
:10E7900022461846FDF7DEFE686B2044686300E001
:10E7A0000024204670BD0000940400200020704723
:10E7B0002DE9F041194F0C460646D7E90401401AED
:10E7C00017490988081A002802DC0020BDE8F081FA
:10E7D000844200DD0446D7E90602002590420FD3AB
:10E7E000104B021919448A420AD30D1A98462A4638
:10E7F0003146FDF7AFFE2E44641B4046C7F8188033
:10E8000034B122463146FDF7A5FEB8692044B8610F
:10E810003969601901443961D8E700009404002087
:10E820000E7A0108B220002010B5054C606800285F
:10E8300005D10120606000F005F80020606010BD87
:10E84000940400202DE9F047244CA06800283ED015
:10E85000D4E90401421AE0684FF0000652EA0001D0
:10E8600037D021461E4FC969DFF87880DFF87890ED
:10E870001E4D7AB1A069814205D338888B1828448F
:10E88000834200D3421A99F8003038F813009042BE
:10E8900000DA02461648E660007840F0800002F098
:10E8A00023FAE1690144E1616269024462613B88E3
:10E8B0002B448B4200D1E561216991420BD199F83B
:10E8C000002038F81210814205D10120E060BDE837
:10E8D000F087A660FBE7E660F9E7000094040020FB
:10E8E0000E7A0108127A0108D7040020B220002015
:10E8F0000C7A010810B50B4C206A18B1A06A401CB4
:10E90000A06210BD01202062606200F00DF80020BE
:10E9100060622062D4E90C018842F2D0401AFFF70D
:10E9200045FF10BD9404002010B5134C1348164B3E
:10E93000216B0A1A12481B780088821A114830F895
:10E94000130082420EDB1148007801F069FD216B53
:10E9500008442063A06A00280CD0616A002909D10C
:10E96000401E06E00120E062606A002802D0A06A32
:10E97000401CA06210BD000094040020F220002082
:10E98000107A0108127A0108D70400200D7A0108D4
:10E9900010B50446400702D52046FFF7ABFF20071D
:10E9A00004D52046BDE81040FFF73EBF10BD7047BC
:10E9B000002070470020704710B50B4800F03CF86D
:10E9C000002810D0084A0948116801700B0A4370EA
:10E9D0000B0C8370090EC17011790171517941716D
:10E9E00091798171012010BDCC040020B01F00205E
:10E9F0000E4810B5002141608160C1600C4A016180
:10EA0000C0E90512C0E9072141620A4A8162C0E9F2
:10EA10000B124263018038304FF4165202600171CC
:10EA200041710821817100F015F810BD9404002097
:10EA3000B2200020F220002005490A6802600A790D
:10EA400082714A7942718979017101207047000011
:10EA50005C05002010B507F0D3F804F091F8012010
:10EA600010BD10B507F024F9012010BD10B507F056
:10EA700087F9012010BD0000064902680A6082790A
:10EA80000A7142794A71007988710020C87108467C
:10EA900007F020B95C05002010B51048002410498B
:10EAA00044608460C4600461C0E90541C0E90714A2
:10EAB00044620C498462C0E90B4141630480FFF762
:10EAC000D0FF06484FF4165138300160047144718C
:10EAD00008218171FFF7D0FF10BD000094040020D1
:10EAE000B2200020F220002010B5FFF7D5FF10BDA6
:10EAF00070B51948007800282DD0184C0025012643
:10EB0000206A50B9D4E90C01884206D114498842E0
:10EB100003D02163E56225626163A06A70B1206A57
:10EB200060B9E06A50B92662FFF7FEFE2562D4E9BB
:10EB30000C01884202D0401AFFF738FED4E90101E7
:10EB4000084308D1D4E90401884204D06660A66075
:10EB5000FFF778FE656070BDD504002094040020A6
:10EB6000F220002070B505460D480068C16988474D
:10EB7000A0B90C4C35B104F08BF92060002006F0F0
:10EB800035FE0BE004F084F92168401AB0F5967F59
:10EB900001D3012000E0002003F0FAFF012070BD46
:10EBA00000740108580500200020704700207047BD
:10EBB000024910B50880FFF759FF10BD94040020EA
:10EBC0000A4810B58278018862F31F41C27841EA91
:10EBD000026207490A6002790A7142794A718079B2
:10EBE00088710846FFF748FF10BD0000B01F0020E5
:10EBF000CC0400200107890E01F1A041C0310A7840
:10EC000022F002020A7001F0DBBF000001468078AA
:10EC10008988020601D4024A115401F0D1BF0000D4
:10EC200014040020704700F0DFBA4FF0A041002824
:10EC300051F8940F02D040F0010001E020F00100F3
:10EC40000860704710B50B4C0B48A28800788242D0
:10EC500000D902461AB907490020143908718020EA
:10EC6000216802F041F8216801442160A188081A56
:10EC7000A08010BDE8040020F379010810B5064C0F
:10EC80000020A288216801F0CBFB216801442160AB
:10EC9000A188081AA08010BDE80400207047010672
:10ECA00008D50007800E00F1A040C030017821F0A7
:10ECB000050106E0800000F1A040C030017821F09D
:10ECC000090101707047010608D50007800E00F1A8
:10ECD000A040C030017841F0050106E0800000F15D
:10ECE000A040C030017841F0090101707047000078
:10ECF0002DE9F0476E4F0446A7F1080580074FF055
:10ED00000009A5F1140622D501F0C4FF3878C00926
:10ED1000FFF7C4FFF888A8803878C0F3411121B10B
:10ED200001295AD002296FD165E07978DFF8848112
:10ED30000C2969D2DFE801F0060C6813681827680F
:10ED40002B31384601F004FD1FE0FFF77BFF67E041
:10ED5000002005E001F0AEFFD8F8000039E0012006
:10ED600001F034FDC0B3F5E710F01F0F4CD1B878B7
:10ED7000012140F08000307000F07F0001F077FF4B
:10ED800001F098FF4CE001F0E3FB28B3DDE710F061
:10ED90001F0F39D146481B3812E001F067FDD8B18A
:10EDA00001F088FF444813E000F01F0001282BD138
:10EDB000707888B13879B178884225D23F490844C3
:10EDC0002860C2E701F016FE30B101F073FF3C4845
:10EDD000006828B3804723E016E010F01F0013D02E
:10EDE000012811D100F004F9D0B900F05DF9B8B9EB
:10EDF00000F0AEF807E010F01F0F05D100F082F927
:10EE000070B900F0C3F958B93878000603D4F8880F
:10EE100008B1002000E0802001F032FFA5F8049046
:10EE2000600721D5387800061CD4A888E0B1FFF728
:10EE300025FFA888C0B93878C0F3411161B1012914
:10EE40000AD110F01F0007D0012805D100F062F8A8
:10EE500050B900F037F838B9802001F011FFA5F85B
:10EE6000049001E001F02CFF200712D5387800064D
:10EE700006D5A888317908430BD0FFF7E3FE08E0F8
:10EE80003078010605D500F07F003070002101F0D8
:10EE9000EEFE600602D50020FFF7ACFE200604D58A
:10EEA000BDE8F0478020FFF7A5BEBDE8F087000071
:10EEB000F0040020747A01086C7A0108F303002042
:10EEC000707A010810B51049104A087912789042FA
:10EED00003D00F4A1278904214D1487820B102280A
:10EEE00005D020280ED10AE0FFF75EFE02E0488838
:10EEF000FFF75CFE30B101F0DDFE012010BDFFF731
:10EF00005FFEF7E7002010BDF0040020FC020020A7
:10EF1000FD02002010B50B490B4A08791278904287
:10EF200003D00A4A1278904209D14878092806D1BC
:10EF300000F064FB18B101F0BDFE012010BD0020FF
:10EF400010BD0000F0040020FF020020010300209B
:10EF500070B52249224A08791278904203D0214A9A
:10EF60001278904237D11D4849781F4C1F4D408878
:10EF700004291FD007DC79B101290FD002290BD059
:10EF8000032928D111E0202906D0212919D02229CE
:10EF90001AD023291FD11AE02C6010E0FFF70AFDD8
:10EFA00005E02C60FFF74EFE09E0FFF701FD0028A9
:10EFB000F7D110E0FFF7D2FB0BE001F07BFE012060
:10EFC00070BDFFF7F9FCF2E7FFF7F2FD01E0FFF794
:10EFD000C9FD0028F1D1002070BD0000F004002020
:10EFE000FC020020FD020020B01F0020E8040020E9
:10EFF0002DE9F041244E254930790978884203D023
:10F000002349097888423CD17078224C224D234F05
:10F010000C2836D2DFE800F03506212C35353535A1
:10F020003516243100F006FA58B3F078012802D0E2
:10F03000032803D003E01A48206000E02560FFF7B2
:10F0400001FE12E0F078022802D0032803D00CE081
:10F050001448206009E0256007E000F0D3F909E0DA
:10F0600000F0A6FA0BE001F025FE0120BDE8F081DA
:10F0700000F0D6F928B12760E1E700F0B5FA0028E2
:10F08000F1D10020F2E70000F0040020FF02002090
:10F0900001030020E8040020FE030020B01F002030
:10F0A000F11F00203220002010B51248124A0179C9
:10F0B000127891421BD142784188C088FE2A09D03B
:10F0C000FF2A14D199B990B901F0FAF878B101F09A
:10F0D000F1FD0AE059B9012809D100F009FE30B16B
:10F0E000074906480860FFF7ADFD012010BD00206C
:10F0F00010BD0000F004002000030020B01F00201D
:10F10000E804002070B51B4D1B490026687809787B
:10F1100088422CD1A888022829D1184CAA7812B389
:10F12000002003E0217801B10C44401C411C8A42BC
:10F13000F8D82078B0B103F011FB0146E01CFDF7D0
:10F14000FDF90F4A012614602078E98881420BD925
:10F150000C4990800978491E084206D10A490120CD
:10F16000087002E0002602E09180FFF76BFD304658
:10F1700070BD0000F0040020167A0108B4030020DE
:10F18000E8040020F3790108D804002010B5104AE3
:10F190001049002450780978884217D190880728B0
:10F1A00014D10E4B0C48012418600189D2888A4280
:10F1B00009D90B4899800078401E014204D10949C1
:10F1C0000120087000E09A80FFF73CFD204610BD4A
:10F1D000F0040020177A010806030020E80400204C
:10F1E000F3790108D8040020074800214170C1606C
:10F1F00001614161418081808161C161C180018182
:10F200000162418170470000F80400202DE9F047B9
:10F21000494EB08871884A4FDFF820817D1C002458
:10F22000884216D3B069A0B97461B48001233978DB
:10F230007A1C184607F02EF87080708848B1776104
:10F2400098F80000012801D8756102E07088401C20
:10F25000708070884FF00109B0BBF06808B1F460AD
:10F2600032E0316981B398F8000001280DD83C7074
:10F27000B48002237A1C0021012007F00BF8708073
:10F28000708800B1756134611EE03D78C846202D5C
:10F2900000D3002508FA05F0084218D0681CC1B256
:10F2A0003970B48002237A1C012006F0F3FF7080CD
:10F2B000708818B177617088401C7080306908FAD6
:10F2C00005F820EA08003061708830B902E06D1C52
:10F2D000EDB2DCE7B069002829D07088B188DFF88A
:10F2E0006880401A85B2174F98F8000037F8100070
:10F2F000A84200D205461548007828B140F08000A9
:10F300002A46716901F0F0FC706911492844706166
:10F31000B088284480B2B0800988884209D298F821
:10F32000000037F81000A84203D1C6F81890BDE8D5
:10F33000F087B461FBE70000F8040020FE790108C3
:10F34000F01F0020FA790108D7040020F4790108A1
:10F35000007A0108F8B51C4C1C4D1D4F2089002671
:10F3600018B9E5613888E0802681E0882189421A51
:10F370001848E169007801F053F80004E169000CD5
:10F380000144E161218901448BB2238109D039888C
:10F390008B4206D2114A1049127831F8121081427C
:10F3A00010D90F48017801200129009003D80021CD
:10F3B000064A022003E029786A1C02205B1E06F040
:10F3C000FDFF2681F8BD0000F80400203120002058
:10F3D000027A0108F5790108FA790108D7040020BA
:10F3E000FF79010810B50446000702D52046FFF753
:10F3F0000DFF600704D52046BDE81040FFF7AABF07
:10F4000010BD0000034804498078085C0349087077
:10F4100001207047F0040020FC030020B01F0020F2
:10F4200010B506F035FF02490870012010BD00003C
:10F43000B01F00200B4910B5C8780022012804D065
:10F44000022804D0032806D103E0074A02E0002086
:10F4500010BD064A521C8978002306F01BFF0120CC
:10F4600010BD0000F0040020F01F0020FD0300206C
:10F470002DE9FC5F4548007800287DD0444D0423E9
:10F4800000262978B146481C28704248007800EBD5
:10F49000400293405B1E0192994202DB85F8009086
:10F4A00001263D4A00241188FF2901D2491C118000
:10F4B0003A4931F81000384900900988884200D153
:10F4C000012439490020DFF8D8804FF0010BDFF824
:10F4D000D4A091F800E045E0002276B11AF80010BF
:10F4E0005346FF2901D2491C195418F8001021B1C4
:10F4F0001AF800308B4200D30122019918F80070ED
:10F5000002238B4007FA03F1009B994202DA0FB104
:10F51000012300E000233CB133B1D5F810C00BFA51
:10F5200000F141EA0C0129612049095C8F420ED0AB
:10F530001AF800708F4208D3D5F810C00BFA00F704
:10F5400047EA0C072F6185F8009008F800103AB1DF
:10F5500023B92A690BFA00F1114329610AF80090D6
:10F56000401CC0B27045B7D314B10B49A1F800904C
:10F570002869002808D000E006E06888002803D148
:10F58000BDE8FC5FFFF742BEBDE8FC9FD50400204C
:10F59000F8040020D7040020F8030020F6790108C1
:10F5A000FB030020FA030020FE790108FC03002081
:10F5B000094809498078C97810B1084A815409E09E
:10F5C000084A0020064B127802E01954401CC0B2D1
:10F5D0009042FAD301207047F0040020FB03002082
:10F5E000FC030020FE790108034810B5807806F07E
:10F5F000E3FE012010BD0000F00400200C4908B516
:10F60000C8780022012804D0022804D0032806D19B
:10F6100003E0002008BD074A00E0074A521C00230F
:10F620000093CB88897806F0C9FE012008BD000050
:10F63000F004002031200020FD0300202DE9F05FC0
:10F64000EFF3108072B6554D4FF00009EC68C5F825
:10F650000C9095F800A085F8009080F31088E007E2
:10F6600007D001F05DFA06F05DFF4D48006800B17B
:10F670008047E00605D501F02DFB4A48006800B13F
:10F680008047A00605D501F0E2FA4748006800B1BE
:10F690008047600703D54548006800B180474FF0B8
:10F6A000A048022C08D14248016811B1D8F888005E
:10F6B0008847FF21C8F88810200764D53D4E3E4F8B
:10F6C000AB46EFF3108272B65B46D3E9011081427C
:10F6D00054D1012053E0EFF3108472B6374815225D
:10F6E000405C491CB1FBF2F502FB151184F3108854
:10F6F00059600409C0F3C002C0F3800109D109EBCD
:10F70000420C8C4416F83CC0CCF3830CBCF10D0FBA
:10F710000AD0A50005EB4202551816F83510C1F3C2
:10F720008301012913D01CE0186920F00200186140
:10F73000307E20F080003076307C20F08000307405
:10F740008BF8019039680029BBD0022014E01CB965
:10F7500000F001008BF8010057F8241009B10420D3
:10F76000884716F83500C0F383000928A9D157F857
:10F7700024100029A5D008208847A2E7002082F3A2
:10F7800010880028A7D0BAF1000F05D0404650F8E5
:10F79000941F21F020010160BDE8F09F00040020CB
:10F7A000187A01081C7A0108207A0108247A0108D5
:10F7B000287A0108002200202C7A0108A0270020C6
:10F7C00010B515484024047001F0C0FA432001F040
:10F7D000F1FA12484FF0A042C0F30720C2F89C0093
:10F7E0000E48C0F30740C2F8B0000C48000EC2F843
:10F7F000B400FF20C2F880000948006800B104206E
:10F800000849096801B10221084340F0190042F893
:10F81000840F146110BD0000140400200022002099
:10F82000247A0108287A010870B500F005F900284B
:10F830001CD00F4802220F4D027042700E4C032064
:10F840002A632870A068022803D9A4F11F008260EF
:10F85000A2600A480649007840F0800001F044FAAE
:10F86000A068296B401AA0600120207370BD0000C1
:10F87000722000201C0500201B2E0020047A0108A5
:10F88000114910B50878022808D0032810D00428A0
:10F8900012D0052801D10020087010BD0B48C07B94
:10F8A000282801D0A828F8D1BDE8104000F064BA9B
:10F8B000BDE8104000F03CBD0548007840F08000F5
:10F8C00000F04EFDF4E700001C050020FC2D002098
:10F8D000047A0108204A10B5117869B301290ED0C5
:10F8E0001E48052900781BD007292BD000F038FDD1
:10F8F0001B4902200873BDE8104000F019BD1848EC
:10F900001F38C07B2A2803D02F2805D0AA2822D14F
:10F91000BDE8104000F004BBBDE8104000F096BA0E
:10F92000012181400F480068014201D0012000E020
:10F93000002040F23F4200E009E0BDE810400AA18B
:10F9400001F0F1BA00201070106B1F2803D1BDE840
:10F95000104000F0D5B810BD1C050020057A010844
:10F960001B2E0020E00400202E2E5C2E2E5C2E2E5E
:10F970005C736F757263655C7573625C6D73635CF9
:10F98000757362645F6D73632E630000104910B578
:10F990004868C86008B1012010BD0E4800F11F047E
:10F9A00082687AB1007B000604D50B48007840F0ED
:10F9B000800005E0A068096B884203D00748007802
:10F9C00000F0CEFC0120207300F0B2FC002010BD3E
:10F9D0001C050020FC2D0020047A0108057A01088E
:10F9E0001048007900F08F01080605D501F00F00DE
:10F9F0004FF48032824001E001228A400A480078B8
:10FA000040F0800088420CD108490968114208D0B2
:10FA10000749084A0968914203D10D22044901F0BF
:10FA200063B97047F0040020047A0108E004002064
:10FA30001B2E00205553425370B50A48022400F192
:10FA40001F05816831B1007B000608D406480078A4
:10FA500000F086FC2C7300F06BFC002070BD0120D0
:10FA600070BD0000FC2D0020057A010810B50E487D
:10FA70000E4C8068216B884202D82063032000E08E
:10FA8000042020700A480B49226B007840F0800067
:10FA900001F02AF90448226B1F308168891A8160BD
:10FAA0000021017310BD0000FC2D00201C0500206A
:10FAB000047A010872200020064810B50288074821
:10FAC0000549007800F0ACFC05490863BDE810402A
:10FAD000FFF700BF0A7A010872200020057A0108AA
:10FAE0001C05002010B50446400702D50020FFF792
:10FAF000E3FF200703D5BDE81040FFF7C1BE10BDEE
:10FB00002DE9F047734E326B1F2A01D2134600E0F5
:10FB10001F230020704D714902E00C5C2C54401CE6
:10FB20009842FAD3DFF8BC910127DFF8B4A199F825
:10FB300000001F2A40F080007ED129686A4A914265
:10FB40007AD1654C69681F346160A968A160697BDE
:10FB500019B9A97B09B1102901D927738AE0E97B7A
:10FB60004FF002082A293ED022DC1A294FD00FDCA0
:10FB70000429F2D006DCE9B30329EED1BDE8F04751
:10FB800000F05CBB1229E8D1BDE8F04700F0B8B83E
:10FB9000232944D007DC1B2935D01E29DDD1BDE83F
:10FBA000F04700F0DBB825293DD02829D5D148E021
:10FBB0009E2940D00FDC5529CFD004DC2F2954D00A
:10FBC0003529CAD103E05A2925D09129C5D1BDE8EC
:10FBD000F04700F0F5BBA12929D0A3295DD0A829C1
:10FBE0002FD0AA29B9D100F075FA002805D0287BBA
:10FBF000000600E003E04BD43770BDE8F087BDE8B5
:10FC0000F04700F0E5BBBDE8F04700F0BFBBBDE842
:10FC1000F04700F037BABDE8F04700F007BABDE89A
:10FC2000F04700F0D5BABDE8F04700F0A9BABDE84A
:10FC3000F047FFF7F9BD00E032E0BDE8F04700F023
:10FC400051BB00F047FA0028D7D0287B000605D525
:10FC500086F80080BDE8F04700F08EB89AF8000002
:10FC600000F07EFB84F80C8004E0287C800705D43B
:10FC700000202073BDE8F04700F05ABB00F02AFADC
:10FC80000028BAD0287B000602D437703762B4E768
:10FC900099F8000040F08000E2E700F061FB5CE7CB
:10FCA0004C4600F05DFB2078104C00F00F014FF443
:10FCB0008030884021685546084320609AF800004B
:10FCC00000F04EFB28788740206807430620276015
:10FCD000307092E71C050020FC2D002072200020CF
:10FCE000057A0108047A010855534243E4040020D0
:10FCF000024900200870012070470000B01F00205A
:10FD000010B5FFF799FE002820D0114B002080216C
:10FD10001870597002219970D97020241C71587183
:10FD20009871D8710B48016808200A7812B11A54EA
:10FD3000491C00E01C54401CC0B22428F5D30649DD
:10FD400024200863BDE81040FFF790BE10BD0000FE
:10FD500072200020B00300201C0500200548C07C54
:10FD6000C107044800F11F0000D00121017300F019
:10FD7000DFBA0000FC2D00202DE9F0412E4D2F4F61
:10FD80000026A969686ADFF8B88088420AD3387803
:10FD9000002440F0800000F0E3FA88F80C6000F0E6
:10FDA000C7FA08E028492748097830F81140E86A7E
:10FDB000844200D30446FFF7E9FD00B90024A86A95
:10FDC00048B374B1A96AE86922460144387840F022
:10FDD000800000F089FFA86A2044A862E86A001B3E
:10FDE000E862D5E90410AA6A4143914203D1AE62A8
:10FDF000696A08446862D8F808104046091BC8F8C8
:10FE00000810002C05D0E96A002902D103212970CD
:10FE10000673BDE8F081002CE3D0E96A286901444B
:10FE2000491EB1FBF0F26869824200D90246E969D5
:10FE3000686A06F02FFBC5E71C050020047A01085C
:10FE40001B2E0020067A0108D70400202DE9F0417E
:10FE50002F4C00252F4EA169606A884207D32E4897
:10FE60002563007800F07CFA357300F061FAFFF743
:10FE70008DFD20B1206B08B3A06A10B10FE025639F
:10FE800020E0E16A20690144491EB1FBF0F260699B
:10FE9000824200D90246E169606A06F0FBFA00205E
:10FEA0001E49A36A226B0BE0D4F81CC01F181CF873
:10FEB000077011F800C0674501D0256202E0401CC0
:10FEC0009042F1D3A16A206B0A18A262E16A0B1A70
:10FED000E362D4E904714F43974203D1A562626A99
:10FEE00011446162B168091AB16000280DD013B1E4
:10FEF0002078052809D1206A28B100203073BDE898
:10FF0000F04100F015BA0120F8E7BDE8F0810000EB
:10FF10001C0500201B2E0020057A010872200020FD
:10FF20002DE9F041344D0026344FA969686A8842B2
:10FF300007D333482E63007800F012FA3E7300F0C6
:10FF4000F7F9FFF723FD00B92E63296BA86A08446F
:10FF50002969884206D9BDE8F041FE2229A1002086
:10FF600000F0E1BF0020304905E0AB6AEC690A5CB3
:10FF70000344401CE2542A6B9042F6D3A86A110055
:10FF80000844A862EA6AA2EB0102EA6222D092B9AE
:10FF900088B129690844401EB0FBF1F468698442C5
:10FFA00000D904462246E969686A06F08DFAAE6215
:10FFB000686A20440DE0D5E9041202FB01F3834294
:10FFC00008D1E969686A06F07FFAAE626969686A11
:10FFD00008446862B968286B091AB960002809D01A
:10FFE000E86A10B12878052804D13E73BDE8F041D5
:10FFF00000F09EB9BDE8F0811C0500201B2E0020FA
:020000040801F1
:10000000057A01082E2E5C2E2E5C2E2E5C736F75E9
:100010007263655C7573625C6D73635C7573626457
:100020005F6D73632E6300007220002010B5FFF730
:1000300003FD00281FD0FFF7A9FC00281BD00E48A5
:100040000021062201700D4B427081701A7AD20194
:10005000C270017141718171C17109490820186331
:100060008A68082A03D9A1F11F0290608860BDE860
:100070001040FFF7FBBC10BD722000201C050020C3
:100080001B2E002010B5FFF7D7FC00281BD0FFF770
:100090007DFC002817D00C480321002201700B4979
:1000A00042700B7ADB018370C27004200863084938
:1000B0008A68042A03D9A1F11F0290608860BDE814
:1000C0001040FFF7D3BC10BD722000201C0500209B
:1000D0001B2E002070B5264C264DB4F81100E17C93
:1000E00040BA000440EA0121207D01430020C5E917
:1000F0000910E07B2F280AD004DC28280BD02A28FE
:1001000019D104E0A8280DD0AA2814D106E0FFF7E1
:100110003DFC002829D0E08A41BA0CE0FFF736FC0C
:10012000002822D0B4F81500E17D40BA000440EA6E
:100130000121207E014328690D4E4143E962A068F8
:1001400001251F3668B1884210D0207B000604D5F7
:100150000948007840F0800001E00848007800F08D
:10016000FFF8357300F0E4F8002070BD012070BD89
:10017000FC2D00201C050020047A0108057A0108E6
:1001800010B5FFF759FC00281CD0FFF7FFFB002833
:1001900018D00D4A0D489169491E0B0E03700B0CC7
:1001A00043700B0A8370C17011690B0E03710B0C45
:1001B00043710B0A8371C17108201063BDE81040C0
:1001C000FFF754BC10BD00001C0500207220002069
:1001D00010B5FFF731FC002829D0FFF7D7FB002826
:1001E00025D013480021134A017041708170082105
:1001F000C17091690B0E03710B0C43710B0A837173
:10020000C1710221017211690B0C43720B0A8372D6
:10021000C17209490C2010638A680C2A03D9A1F124
:100220001F0290608860BDE81040FFF71FBC10BD42
:10023000722000201C0500201B2E002010B5FFF7A7
:10024000FBFB002835D01B4870211B4B017000219F
:100250004170DC685A6832EA040406D006248470CF
:10026000282404734173DA6008E0DAB1134A127B80
:10027000E2B105228270202202734173C1700171C4
:10028000417181710A22C271017241728172C1721F
:100290008173C1730174417412201863BDE810406A
:1002A000FFF7E4BB022282703A22E5E78170017316
:1002B000E3E710BD722000201C0500201B2E00204B
:1002C00004490020086004490860044907200870B8
:1002D00001207047E40400201B2E00201C05002094
:1002E000FFF7EEBF10B5FFF7A7FB002817D00C48AB
:1002F00020220021027041700A4CC1770320226342
:10030000207009480649007840F0800000F0ECFCBD
:100310000648226B8168891A81600121017310BD32
:10032000722000201C050020047A01081B2E0020EA
:10033000084910B50648086007480D22007840F0CB
:10034000800000F0D1FC05490520087010BD0000B8
:10035000555342531B2E0020047A01081C0500202F
:1003600010B5044600F08CFC200605D504F00F0102
:100370004FF48030884001E00120A04002490A6823
:100380001043086010BD0000E00400200A4810B5CA
:10039000817C00F11F0429B101202073BDE81040C9
:1003A000FFF7C6BFC07C054900F00100486006F0B9
:1003B00089F80020F1E70000FC2D00201C0500203A
:1003C000024900200873FFF7B3BF00001B2E002076
:1003D0000F4810B5816800F11F0469B1007B000669
:1003E00004D50C48007840F0800001E00A4800780D
:1003F000FFF7B6FF012004E0FFF7C8FA002805D098
:1004000000202073BDE81040FFF792BF10BD000030
:10041000FC2D0020047A0108057A010870470000CD
:100420002DE9F05F05004FEA0570DFF8E0804FEA44
:10043000906408EBC40B0F46BBF80210DFF8D090B5
:1004400092464FF000061AD1A9F11000407878B119
:10045000600801218140EFF3108072B6D9F80030B6
:100460004B4080F310880020C9F80030BDE8F09FB1
:1004700018F83400C0F383000D2800D101268A4506
:1004800006D240F2E91223A1002000F04CFD5146B3
:100490001E4A0020A03202EB841202E0135C3B549F
:1004A000401C8842FAD31A484346001D425DABF80F
:1004B0000220A0F114056208286918F8348020FA97
:1004C00002FC0CF0010CC8F38018C4450CD1FF8865
:1004D00006B17FB101279740EFF3108672B67840DE
:1004E00086F31088C9F800002869D040C00707D0FB
:1004F000C82006E0EFF3108672B620F00100EFE7A7
:10050000882003F834000846B0E7000000220020ED
:10051000100400202E2E5C2E2E5C2E2E5C736F7528
:100520007263655C6869635F68616C5C6D6D3332D2
:100530005C6D6D333266333237305C757362645F85
:100540006D6D333246333237302E6300FFF748BAD1
:100550002DE9FC414E4BA3F11C051878A3F10804CA
:1005600010F01F0002D001286DD179E04949D878F8
:10057000494E0A784649494F1C390628C97810D097
:1005800006DC012809D0022814D003287ED141E0DE
:1005900007282AD00F2879D156E041482060122040
:1005A0005CE0002A72D019B13E4820600A2055E074
:1005B0003D48FAE70AB9012968D0022021B1009725
:1005C000787000209A7809E000967070F9E7009939
:1005D0000B7813B14B8819440091401C8242F6D12C
:1005E0000098017879B3206037E062B3072021B129
:1005F0000096707000209A7809E000977870F9E70B
:1006000000990B7813B14B8819440091401C824229
:10061000F6D1E5E7254800909878032801D000201E
:1006200008E002F0E5F80BE000990A780AB11144FD
:100630000091401C99788142F6D10098017811B15F
:10064000206000780AE021E01948007800281BD0DB
:100650001848009020600178C1B14088019005E001
:1006600001A9684600F02AF800280DD0A188019859
:10067000814208D9104980B2A0800978491E0842F9
:1006800001D1012028710120BDE8FC810020FBE799
:10069000F0040020F1790108E81E0020FE0200208D
:1006A0009C7A0108AF7A0108AE7A0108B27A010893
:1006B000F2790108B07A0108F379010870B5194A96
:1006C000194C1B4ED378194A2578212B1478154ADA
:1006D000127902D0222B22D116E0AA4201D0A242E6
:1006E0001DD1144A1378144A12780BB9012A16D076
:1006F00042B1124A02601046114A1288104430601A
:10070000092009E00F4AF5E7AA4201D0A24206D12A
:100710000D4830600D4800880860012070BD002041
:1007200070BD0000F0040020FF0200200103002043
:10073000E8040020F1790108D7040020FE0200201F
:1007400004030020E81E0020787A01089A7A010844
:1007500070B51C481B4C0078A4F1080410F01F0071
:100760000AD0184AA4F11403174D597812790128B8
:1007700006D0022824D109E01248163820601DE076
:10078000F1B1987882421BD2002015E002F08F0070
:10079000020605D500F00F064FF48032B24001E0AA
:1007A0000122824009B900070AD19868104207D097
:1007B000D868104000D0012028802560012070BD3D
:1007C000002070BDF0040020B01F002070B5264B43
:1007D000024619461878498810F01F00A3F11C063C
:1007E00004D0012829D0022827D111E0012924D1E1
:1007F00032B1012000F076FAF08840F0020005E006
:10080000002000F06FFAF08820F00200F08029E06C
:10081000187900F08F04200605D504F00F004FF47E
:100820008035854001E00125A540707828B120077A
:1008300003D0B068284200D009B1002070BD2AB1B1
:10084000204600F01DFAF06828430AE0306928428B
:1008500008D12046FEF7CEF92046FFF777FEF06874
:10086000A843F060012070BDF00400202DE9F05F86
:100870005A480026017811F01F0F7DD1574F80781C
:100880001C3FB1464FF0010A4FF4803B00287AD05C
:10089000534801783846C07809B901286CD008B1AE
:1008A000504C6CE0504C6AE06078022805D0042877
:1008B00045D0052845D007285CD148486179807823
:1008C00081423AD1787020794949B8700020474A6E
:1008D000098802E002F80090401C8842FAD3012502
:1008E000B8460AFA05F0D8F80810084202D028469F
:1008F000FEF7D5F9D8F808100BFA05F0084203D036
:1009000045F08000FEF7CBF96D1C102DE9D34FF0B8
:100910000110C8E902090120C8F81090FEF782F919
:10092000E0794006B8F8060002D540F0010001E089
:1009300020F00100A8F806001CE060881BE0E678C3
:1009400018E0BEB9A07800F08F05280604D505F0A0
:100950000F010BFA01F001E00AFA05F0B968014352
:100960002046B960FEF752F92846FEF7ACF9284652
:1009700000F026F9207801E02BE004E00444207820
:10098000002891D120E04D4687F8019001245E4671
:10099000B9680AFA04F0084202D02046FEF77FF94F
:1009A000B96806FA04F0084203D044F08000FEF76C
:1009B00076F9641C102CEBD34FF00110C7E9020547
:1009C00000203D61FEF72EF904487978807888424E
:1009D00002D00020BDE8F09F0120FBE7F0040020DA
:1009E000F1790108FE020020E81E0020F303002038
:1009F000020300202DE9F84F444800273E460078C6
:100A0000BA4600F01F00B94601287CD13F491C3985
:100A10004878002874D0002000903D4802780846AD
:100A2000C0780AB901286ED08B4608B1394C63E012
:100A3000394C61E06078022805D004280AD00528E6
:100A40001AD0072856D161799BF80100814251D014
:100A5000608850E02D48A778E67801794FF00009CA
:100A6000B94247D18078B04244D1012000902B4850
:100A700010F807A0C6553DE024490879B84239D19D
:100A8000A07800F08F085FEA086005D508F00F0035
:100A90004FF48035854002E0012505FA08F5887895
:100AA000B04215D1DBF8081020462943CBF80810D6
:100AB000DBF80C10A943CBF80C10FEF7A7F8404662
:100AC000FEF701F9404600F07BF849EA050911E01C
:100AD00056450FD119EA050F0CD1DBF80810404636
:100AE000A943CBF80810DBF80C10A943CBF80C1085
:100AF000FEF7D5F820780444207800289AD1009891
:100B0000BDE8F88FFFE70020FAE70000F0040020BE
:100B1000F1790108FE020020E81E0020F303002006
:100B2000234910B50820C1F88001BFF34F8FBFF3F0
:100B30006F8F01200024810001F1A04181F8C040A5
:100B4000401C1028F7D315211A48FBF7E6FD1A4977
:100B50001A4840224C608C60CC600C704C70428013
:100B600000F1A0024260C8220270047200F5907287
:100B7000C46142614FF0A0400D2280F8C0204FF0C8
:100B800055320A6150F8941F41F0020140F81419DF
:100B9000FF2101608160C1608461054910203B3103
:100BA00081F80004BDE81040432000F003B90000C4
:100BB00008E000E0A0270020000400200022002020
:100BC000F0B51D4B1D4D5FEA006C1A684FF0000434
:100BD0004FF00106A5F1A00700F00F0111D506EBBB
:100BE00041008640EFF3108072B6324380F31088E4
:100BF0001A6007EB411005EB01228032C4614261AB
:100C0000F0BD4FEA400C06FA0CF66FEA060CEFF363
:100C1000108672B602EA0C0286F310881A60064A41
:100C2000121D125C07EB411005EB0121428041606F
:100C3000882101700472F0BD10040020A022002061
:100C400010B5FDF751FFBDE81040FFF749BB4FF06D
:100C5000A04050F8841F21F020010160704710B5BA
:100C6000FEF706FCFDF744FF00F083F910BD0029F4
:100C700005D14FF0A04100F07F00C1F89800704707
:100C80000007800E00F1A040C030017841F0020161
:100C900001707047082202490020FFF7C1BB000025
:100CA000F004002002484FF40071006902F018B906
:100CB0004800002000221146802000F015B80000F6
:100CC0000248034902780020FFF7AABBF379010824
:100CD000B01F00204FF0A04050F8841F41F02001C9
:100CE000016070477047000070B500F00F000223EC
:100CF00003EB8004134800EBC40300F1A0055A8005
:100D0000002305EB841502E0CE5CEE545B1C93429D
:100D1000FAD30D4B61081B6923FA01F5ED0701D0E9
:100D2000882500E0C82500F8345001248C40EFF3FA
:100D3000108072B604491031634080F31088104669
:100D40000B6070BD002200200004002010B50121BE
:100D50000806FCF763FE154801686FF30F01016098
:100D600001684BF67F3211430160016821F0405168
:100D70000160016841F000510160001F016841F00D
:100D800040010160016841F0200101600120FCF791
:100D900077FF01218020FCF729FE4FF0A04050F89A
:100DA000941F41F00101016010BD0000046C00407F
:100DB00000207047002809DB00F01F02012191404C
:100DC0004009800000F1E020C0F8001170470000E9
:100DD000EFF3088400F00F010D2901D1EFF309842E
:100DE000A18B04F12005890500D52D1DC10600D475
:100DF000483500F07FFAEFF3098000F07BFAEFF35B
:100E0000088000F077FAEFF3148000F073FA2846B8
:100E100000F070FA606900F06DFAA06900F06AFAFB
:100E2000E06900F067FA1248006800F063FA1048C1
:100E3000001F006800F05EFA0D48001D006800F019
:100E400059FA0B481030006800F054FA084808308E
:100E5000006800F04FFA06480C30006800F04AFACB
:100E6000432204A1002000F05EF8FDF73BFBFEE703
:100E70002CED00E02E2E5C2E2E5C2E2E5C736F75FA
:100E80007263655C6461706C696E6B5C486172640E
:100E90004661756C745F48616E646C65722E6300A8
:100EA00010B5002A06DA22F00042D21D22F0070314
:100EB000102203E0D21C22F003030C2213B19C1871
:100EC0008C4201D9012010BD024401448360C0E975
:100ED0000021C91AD018884202D810600246F9E7EA
:100EE0000020106010BD000010B5044603F098FA11
:100EF000002805D04FF6FF71DFF808C0206800DF3A
:100F000010BD0000D93E010810B5044603F088FA70
:100F1000002803D0DFF808C0206800DF10BD000003
:100F2000293E010870472DE9F04116460F4600287A
:100F300018D1EFF3108572B600231A4619461846E9
:100F400000F0F8F9040003D13146384600F04EFABB
:100F500085F31088002C05D1EFF30380C00601D182
:100F600005F0DEFDBDE8F081704770470020704756
:100F7000704770477047704710B528220D490E48DA
:100F8000FBF76FFB05F08EFE0C4805F085FE05F0C3
:100F9000B7FC0B490B4A0C4B08604FF40071B0FBD7
:100FA000F1F01160094901221A60086009490848F6
:100FB000086010BD407401089C110020B51901089B
:100FC000500500202C0500203005002034050020AD
:100FD0009C0F00203805002000B591B0FDF7C0FB44
:100FE000402801D9402000E060B181B2684604F099
:100FF00057FE010006D06846FDF7DAFB10B101206C
:1010000001F0A6FD04F0D0FE0146402801D94021A0
:1010100000E059B16846FDF7AFFB38B181B26846D0
:1010200004F0B0FE10B1012001F092FD01F0A8FD26
:1010300011B000BD044841788078814201D0012080
:1010400070470020704700000401002030B50546BD
:10105000EFF3108472B600F006F8A968081A84F35A
:101060001088401E30BDEFF3108372B6D0E9001235
:101070008A4201D3501A02E080681044401A83F378
:1010800010887047EFF3108372B6C0E90221002187
:10109000016083F3108841607047000070B504461A
:1010A000EFF3108572B6D4E90001884201D0012027
:1010B00000E0002042220EA1FFF735FFE168206822
:1010C0000E5C401C2060A16888420CD302D14FF016
:1010D000010001E04FF000004FF0470204A1FFF7CC
:1010E00022FF0020206085F31088304670BD00008C
:1010F0002E2E5C2E2E5C2E2E5C736F757263655CDB
:101100006461706C696E6B5C636972635F62756663
:101110002E63000070B50446EFF3108572B6C06808
:10112000626881546068401C6060A16888420CD38A
:1011300002D14FF0010001E04FF000004FF030020B
:1011400009A1FFF7F0FE00206060D4E900018842A9
:1011500001D0012000E00020352203A1FFF7E3FECB
:1011600085F3108870BD00002E2E5C2E2E5C2E2E76
:101170005C736F757263655C6461706C696E6B5CE7
:10118000636972635F6275662E6300002DE9F0414A
:1011900014460E460746FFF766FF844200D22046FB
:1011A0000546002404E03846FFF778FF3055641CFC
:1011B000AC42F8D32846BDE8F0812DE9F041144651
:1011C0000E460746FFF742FF844200D220460546FE
:1011D000002404E0315D3846FFF79CFF641CAC42FC
:1011E000F8D32846BDE8F08110B508494FF40074E3
:1011F0002246A1F11000FFF745FF22460449BDE851
:101200001040A1F11000FFF73DBF0000D81A0020E8
:10121000E81C002000F0BCBC00F0BABC0248807999
:10122000002800D001207047F22D00200248C0792C
:10123000002800D001207047F22D00200248407A9B
:10124000002800D001207047F22D00200248007ACB
:10125000002800D001207047F22D00202DE9F04138
:101260008E212148FBF737FA204C214F8E2520682C
:101270001D4EB84210D1A5888E2D01D22A4601E01C
:101280004FF08E0201D84FF08E0518491648FBF733
:1012900061F9002086F847008E211448FBF71BFAFD
:1012A0002760A58041223546F11DE01DFBF752F96C
:1012B00035F8480F24F8480FA878A070E878E07057
:1012C0008200094909484C314C30FBF743F995F845
:1012D000440084F8440095F8450084F84500BDE8D2
:1012E000F04100F0BFB80000642D002000BF0020D6
:1012F000646C766B074A92F84B10102901D30020DA
:10130000704702EB8101C86412F84B0F401CC0B259
:101310001070704700BF002010B5054C4121E01D42
:10132000FBF7D9F9002024F8480FE07010BD000049
:1013300000BF00202DE9F047184F81461D46164694
:101340008846F81DFBF790F8441CB9F1000002D064
:101350004146FBF7C0F9002006B1308005B1287086
:10136000F879002818D0444502D8F91D224604E037
:10137000A4EB0800C1194246C91DB9F1000F02D003
:10138000B7F84800308016B14846FBF7E3F815B1CE
:1013900097F84A0028700120BDE8F08700BF0020C0
:1013A000014890F88C00704700BF0020054A92F871
:1013B0004B1029B102F14C01016092F84B007047CB
:1013C0000020704700BF002002488079002800D02C
:1013D0000120704700BF0020034890F88D000028CE
:1013E00000D001207047000000BF00202DE9F0412F
:1013F00088460746FBF738F8104D441C4126314615
:10140000E81DFBF768F9412C02D83946224602E074
:10141000413CE11932462C46E81DFBF79BF8A4F845
:10142000488000F011F908B1012003E000F00EF946
:1014300000B1022084F84A00BDE8F08100BF00201E
:10144000014981F88C00704700BF00200149887174
:101450007047000000BF0020014981F88D007047EF
:1014600000BF002070B5002211461046FCF761F95C
:101470001848174C0168216041686160008920812B
:101480000A21154800F018FE144E134D60B128686B
:10149000B04209D1A8880A2801D2AA8800E00A220D
:1014A0000D490B48FBF756F80A202660A08001463C
:1014B000094800F001FE28B12868B04202D1A8888E
:1014C0000A2804D2BDE87040014801F05BBF70BD3E
:1014D000F22D0020187C010800FC0108646C766B7A
:1014E00002498871084601F04DBF0000F22D00202E
:1014F0000249C871084601F045BF0000F22D0020E6
:1015000002494872084601F03DBF0000F22D00205C
:1015100002490872084601F035BF0000F22D002094
:101520002DE9F0410F4606464FF0FF340025DFF865
:101530003C8012E0705D082102F036FA84EA006413
:1015400008204146002C02DA81EA440400E06400ED
:10155000401E10F0FF00F5D16D1CBD42EADB2021DA
:10156000204602F021FAC043BDE8F081B71DC10456
:101570002DE9F0410E4617462021C04302F014FA2F
:1015800004460025DFF83C8012E0705D082102F07F
:101590000BFA84EA006408204146002C02DA81EA52
:1015A000440400E06400401E10F0FF00F5D16D1C03
:1015B000BD42EADB2021204602F0F6F9C043BDE837
:1015C000F0810000B71DC10470B514460D460646F3
:1015D000B2F5806F07D240F2DD120AA10020FFF7BA
:1015E000A2FC022070BD00F029FD08B1102070BDE2
:1015F0002A462146304600F0BDFE0028F7D02020C4
:1016000070BD00002E2E5C2E2E5C2E2E5C736F752E
:101610007263655C6461706C696E6B5C6472616757
:101620002D6E2D64726F705C6961705F666C6173A2
:10163000685F696E74662E6300000000C10600F0EA
:101640000F0000D409307047002070470120704718
:1016500010B500231A4600F0D3FA002800D001206C
:1016600010BD10B505F06AF8012800D0002010BDAB
:101670002DE9F041154E144D4FF0006430780128EB
:1016800006D040F2371212A10020FFF74CFC09E00F
:10169000B078022748B140F23D120DA10020FFF7BB
:1016A00042FC37700220BDE8F081204600F02CF8A3
:1016B00010B137702220F6E704F58064AC42F4D311
:1016C0000120B0700020EEE700BC0008D800002028
:1016D0002E2E5C2E2E5C2E2E5C736F757263655CF5
:1016E0006461706C696E6B5C647261672D6E2D64F1
:1016F000726F705C6961705F666C6173685F696E60
:1017000074662E630000000070B5204E04463078E9
:10171000012805D0FF221EA10020FFF704FC18E0DD
:101720004FF48060B4FBF0F100FB1141022511B1D0
:1017300040F2071208E0F17869B1D6E902121144CB
:10174000A14208D04FF4877211A10020FFF7EBFBF4
:101750003570022070BD1C4A1C49944201D38C4252
:1017600011D30121F170C6E90240204601F07EF953
:10177000262803D00028EDD0357070BD204600F03B
:101780005DFC0028F9D03570212070BDD800002004
:101790002E2E5C2E2E5C2E2E5C736F757263655C34
:1017A0006461706C696E6B5C647261672D6E2D6430
:1017B000726F705C6961705F666C6173685F696E9F
:1017C00074662E630000000000C0000800FC0108E1
:1017D0004FF480607047000010B5282804D20649F5
:1017E00051F82000002805D1F72204A10020FFF7BE
:1017F0009AFB0AA010BD00003C7301082E2E5C2E3F
:101800002E5C2E2E5C736F757263655C6461706C08
:10181000696E6B5C6572726F722E6300000000006F
:1018200001460120282901D20148405C7047000090
:10183000010000202DE9F04789460446804600E07B
:10184000641C2078402802D00028F9D163E0607839
:10185000622847D012DC522853D008DC422841D0FD
:10186000442848D0482840D04D2817D133E0542888
:101870003ED0552832D0562810D13FE0722840D0B3
:1018800006DC642837D068282FD06D2806D122E0E6
:1018900074282DD0752821D076282FD020A5204659
:1018A000FAF7E2FD07462846FAF7DEFD0646A019DC
:1018B000C11908EB0902891E91422BD2BA1EA11C44
:1018C000FAF78DFE324629462046FAF743FE207885
:1018D0000028B6D11FE000F07FFF01E000F084FF98
:1018E0000546DCE700F03AFFFAE700F071FFF7E7A2
:1018F00000F076FFF4E700F067FFF1E700F07CFF0F
:10190000EEE7094890F82A0010B1074D2A35C6E7DE
:1019100006A5C4E73C44A4EB0800BDE8F08700003E
:101920004552524F52000000A4720108687474704E
:10193000733A2F2F6D6265642E6F72672F64657620
:101940006963652F3F636F64653D40553F766572FF
:1019500073696F6E3D40563F7461726765745F696D
:10196000643D4054000000002DE9F043A3B08846D8
:1019700081461E461746802102A82A9DFAF7CDFE11
:10198000002002AC03E02154401C7F2802D2295CD5
:101990000029F8D180212046FFF74CFFCDE9004017
:1019A00033463A464146484604F0FEFD23B0BDE8C2
:1019B000F08370472DE9F0411E4615460C46074658
:1019C00005F01EFA2C4890F8201003290FD0022CA5
:1019D0000FD004B3012C0AD10168A94207D190F8B5
:1019E0002210A9B300214A1E016082608161BDE816
:1019F000F0810068A842FAD1304604F067FF04463F
:101A0000304604F065FF0646384602F0F5FE034610
:101A10002246314617E0384602F0EEFE0328E6D0B3
:101A2000304604F051FF8007E1D4384602F0E4FE6E
:101A30000746304604F04AFF0446304604F048FFAB
:101A400001463B4622462846BDE8F04103F0D6BF9A
:101A500028220A490848FAF704FE03F0F5FC084872
:101A60008178012903D14178022900D18170BDE834
:101A7000F04103F0F1BC00009C110020407401080B
:101A8000040100202DE9F0411D4E0446174696F84A
:101A900022008846550260B92946404602F068FE99
:101AA000032802D0214603F053FF96F822000028B5
:101AB0000FD07068A0420CD8F068A0420BD008D9B3
:101AC0003069401C00D134613069A04200D2044624
